{
  "fileName": "ORMExternal.sol",
  "contractName": "ORMExternal",
  "source": "pragma solidity ^0.5.0;\nimport \"./ORM.sol\";\nimport \"./OracleExternal.sol\";\ncontract ORMExternal is ORM, OracleExternal {\n    event addTableEvent(bytes32 indexed _table);\n    event addRowEvent(bytes32 indexed _table, bytes32 indexed _row);\n    event removeRowEvent(bytes32 indexed _table, bytes32 indexed _row);\n\n    function addTable(bytes32 _table) public onlyAuthorizedNode returns (bool) {\n        emit addTableEvent(_table);\n\n        return _addTable(_table);\n    }\n\n    function add(bytes32 _table, bytes32 _row) public onlyAuthorizedNode returns (bool) {\n        emit addRowEvent(_table, _row);\n\n        return _add(_table, _row);\n    }\n\n    function remove(bytes32 _table, bytes32 _row) public onlyAuthorizedNode returns (bool) {\n        emit removeRowEvent(_table, _row);\n\n        return _remove(_table, _row);\n    }\n\n    function containsKey(bytes32 _table) public view returns (bool) {\n        return _containsKey(_table);\n    }\n\n    function getTables() public view returns (bytes32[] memory) {\n        return _getTables();\n    }\n\n    function contains(bytes32 _table, bytes32 _row) public view returns (bool) {\n        return _contains(_table, _row);\n    }\n\n    function enumerate(bytes32 _table) public view returns (bytes32[] memory) {\n        return _enumerate(_table);\n    }\n\n    function length(bytes32 _table) public view returns (uint256) {\n        return _length(_table);\n    }\n\n    function get(bytes32 _table, uint256 index) public view returns (bytes32) {\n        return _get(_table, index);\n    }\n\n}",
  "sourcePath": "contracts/ORMExternal.sol",
  "abi": [
    {
      "anonymous": false,
      "inputs": [
        {
          "indexed": true,
          "internalType": "address",
          "name": "previousOwner",
          "type": "address"
        },
        {
          "indexed": true,
          "internalType": "address",
          "name": "newOwner",
          "type": "address"
        }
      ],
      "name": "OwnershipTransferred",
      "type": "event"
    },
    {
      "anonymous": false,
      "inputs": [
        {
          "indexed": true,
          "internalType": "bytes32",
          "name": "_table",
          "type": "bytes32"
        },
        {
          "indexed": true,
          "internalType": "bytes32",
          "name": "_row",
          "type": "bytes32"
        }
      ],
      "name": "addRowEvent",
      "type": "event"
    },
    {
      "anonymous": false,
      "inputs": [
        {
          "indexed": true,
          "internalType": "bytes32",
          "name": "_table",
          "type": "bytes32"
        }
      ],
      "name": "addTableEvent",
      "type": "event"
    },
    {
      "anonymous": false,
      "inputs": [
        {
          "indexed": true,
          "internalType": "bytes32",
          "name": "_table",
          "type": "bytes32"
        },
        {
          "indexed": true,
          "internalType": "bytes32",
          "name": "_row",
          "type": "bytes32"
        }
      ],
      "name": "removeRowEvent",
      "type": "event"
    },
    {
      "constant": false,
      "inputs": [
        {
          "internalType": "bytes32",
          "name": "_table",
          "type": "bytes32"
        },
        {
          "internalType": "bytes32",
          "name": "_row",
          "type": "bytes32"
        }
      ],
      "name": "add",
      "outputs": [
        {
          "internalType": "bool",
          "name": "",
          "type": "bool"
        }
      ],
      "payable": false,
      "stateMutability": "nonpayable",
      "type": "function"
    },
    {
      "constant": false,
      "inputs": [
        {
          "internalType": "bytes32",
          "name": "_table",
          "type": "bytes32"
        }
      ],
      "name": "addTable",
      "outputs": [
        {
          "internalType": "bool",
          "name": "",
          "type": "bool"
        }
      ],
      "payable": false,
      "stateMutability": "nonpayable",
      "type": "function"
    },
    {
      "constant": true,
      "inputs": [
        {
          "internalType": "address",
          "name": "",
          "type": "address"
        }
      ],
      "name": "authorizedNodes",
      "outputs": [
        {
          "internalType": "bool",
          "name": "",
          "type": "bool"
        }
      ],
      "payable": false,
      "stateMutability": "view",
      "type": "function"
    },
    {
      "constant": true,
      "inputs": [
        {
          "internalType": "bytes32",
          "name": "_table",
          "type": "bytes32"
        },
        {
          "internalType": "bytes32",
          "name": "_row",
          "type": "bytes32"
        }
      ],
      "name": "contains",
      "outputs": [
        {
          "internalType": "bool",
          "name": "",
          "type": "bool"
        }
      ],
      "payable": false,
      "stateMutability": "view",
      "type": "function"
    },
    {
      "constant": true,
      "inputs": [
        {
          "internalType": "bytes32",
          "name": "_table",
          "type": "bytes32"
        }
      ],
      "name": "containsKey",
      "outputs": [
        {
          "internalType": "bool",
          "name": "",
          "type": "bool"
        }
      ],
      "payable": false,
      "stateMutability": "view",
      "type": "function"
    },
    {
      "constant": true,
      "inputs": [
        {
          "internalType": "bytes32",
          "name": "_table",
          "type": "bytes32"
        }
      ],
      "name": "enumerate",
      "outputs": [
        {
          "internalType": "bytes32[]",
          "name": "",
          "type": "bytes32[]"
        }
      ],
      "payable": false,
      "stateMutability": "view",
      "type": "function"
    },
    {
      "constant": false,
      "inputs": [
        {
          "internalType": "address",
          "name": "_callbackAddress",
          "type": "address"
        },
        {
          "internalType": "bytes4",
          "name": "_callbackFunctionId",
          "type": "bytes4"
        },
        {
          "internalType": "bytes",
          "name": "_data",
          "type": "bytes"
        }
      ],
      "name": "fulfillExternalRequest",
      "outputs": [
        {
          "internalType": "bool",
          "name": "",
          "type": "bool"
        }
      ],
      "payable": false,
      "stateMutability": "nonpayable",
      "type": "function"
    },
    {
      "constant": true,
      "inputs": [
        {
          "internalType": "bytes32",
          "name": "_table",
          "type": "bytes32"
        },
        {
          "internalType": "uint256",
          "name": "index",
          "type": "uint256"
        }
      ],
      "name": "get",
      "outputs": [
        {
          "internalType": "bytes32",
          "name": "",
          "type": "bytes32"
        }
      ],
      "payable": false,
      "stateMutability": "view",
      "type": "function"
    },
    {
      "constant": true,
      "inputs": [
        {
          "internalType": "address",
          "name": "_node",
          "type": "address"
        }
      ],
      "name": "getAuthorizationStatus",
      "outputs": [
        {
          "internalType": "bool",
          "name": "",
          "type": "bool"
        }
      ],
      "payable": false,
      "stateMutability": "view",
      "type": "function"
    },
    {
      "constant": true,
      "inputs": [],
      "name": "getTables",
      "outputs": [
        {
          "internalType": "bytes32[]",
          "name": "",
          "type": "bytes32[]"
        }
      ],
      "payable": false,
      "stateMutability": "view",
      "type": "function"
    },
    {
      "constant": false,
      "inputs": [
        {
          "internalType": "address",
          "name": "sender",
          "type": "address"
        }
      ],
      "name": "initialize",
      "outputs": [],
      "payable": false,
      "stateMutability": "nonpayable",
      "type": "function"
    },
    {
      "constant": true,
      "inputs": [],
      "name": "isOwner",
      "outputs": [
        {
          "internalType": "bool",
          "name": "",
          "type": "bool"
        }
      ],
      "payable": false,
      "stateMutability": "view",
      "type": "function"
    },
    {
      "constant": true,
      "inputs": [
        {
          "internalType": "bytes32",
          "name": "_table",
          "type": "bytes32"
        }
      ],
      "name": "length",
      "outputs": [
        {
          "internalType": "uint256",
          "name": "",
          "type": "uint256"
        }
      ],
      "payable": false,
      "stateMutability": "view",
      "type": "function"
    },
    {
      "constant": true,
      "inputs": [],
      "name": "owner",
      "outputs": [
        {
          "internalType": "address",
          "name": "",
          "type": "address"
        }
      ],
      "payable": false,
      "stateMutability": "view",
      "type": "function"
    },
    {
      "constant": false,
      "inputs": [
        {
          "internalType": "bytes32",
          "name": "_table",
          "type": "bytes32"
        },
        {
          "internalType": "bytes32",
          "name": "_row",
          "type": "bytes32"
        }
      ],
      "name": "remove",
      "outputs": [
        {
          "internalType": "bool",
          "name": "",
          "type": "bool"
        }
      ],
      "payable": false,
      "stateMutability": "nonpayable",
      "type": "function"
    },
    {
      "constant": false,
      "inputs": [],
      "name": "renounceOwnership",
      "outputs": [],
      "payable": false,
      "stateMutability": "nonpayable",
      "type": "function"
    },
    {
      "constant": false,
      "inputs": [
        {
          "internalType": "address",
          "name": "_node",
          "type": "address"
        },
        {
          "internalType": "bool",
          "name": "_allowed",
          "type": "bool"
        }
      ],
      "name": "setFulfillmentPermission",
      "outputs": [],
      "payable": false,
      "stateMutability": "nonpayable",
      "type": "function"
    },
    {
      "constant": false,
      "inputs": [
        {
          "internalType": "address",
          "name": "newOwner",
          "type": "address"
        }
      ],
      "name": "transferOwnership",
      "outputs": [],
      "payable": false,
      "stateMutability": "nonpayable",
      "type": "function"
    }
  ],
  "bytecode": "0x60806040526118cc806100136000396000f3fe608060405234801561001057600080fd5b50600436106101165760003560e01c80638f32d59b116100a2578063c4d66de811610071578063c4d66de81461056d578063d1de592a146105b1578063d3e9c31414610601578063f2fde38b1461065d578063f6b102a6146106a157610116565b80638f32d59b14610436578063a9dbaf2514610458578063b10e41721461049a578063bc3c490d146104ea57610116565b80635bf2a4e9116100e95780635bf2a4e9146102e6578063715018a6146103365780637e53a740146103405780637fcd56db1461039c5780638da5cb5b146103ec57610116565b80631095a5f11461011b57806318ae19c21461016157806328343c34146101ad57806359eed7d91461020c575b600080fd5b6101476004803603602081101561013157600080fd5b81019080803590602001909291905050506106e7565b604051808215151515815260200191505060405180910390f35b6101976004803603604081101561017757600080fd5b810190808035906020019092919080359060200190929190505050610805565b6040518082815260200191505060405180910390f35b6101b5610819565b6040518080602001828103825283818151815260200191508051906020019060200280838360005b838110156101f85780820151818401526020810190506101dd565b505050509050019250505060405180910390f35b6102cc6004803603606081101561022257600080fd5b81019080803573ffffffffffffffffffffffffffffffffffffffff16906020019092919080357bffffffffffffffffffffffffffffffffffffffffffffffffffffffff191690602001909291908035906020019064010000000081111561028857600080fd5b82018360208201111561029a57600080fd5b803590602001918460018302840111640100000000831117156102bc57600080fd5b9091929391929390505050610828565b604051808215151515815260200191505060405180910390f35b61031c600480360360408110156102fc57600080fd5b810190808035906020019092919080359060200190929190505050610a67565b604051808215151515815260200191505060405180910390f35b61033e610a7b565b005b6103826004803603602081101561035657600080fd5b81019080803573ffffffffffffffffffffffffffffffffffffffff169060200190929190505050610bb6565b604051808215151515815260200191505060405180910390f35b6103ea600480360360408110156103b257600080fd5b81019080803573ffffffffffffffffffffffffffffffffffffffff169060200190929190803515159060200190929190505050610bd6565b005b6103f4610cab565b604051808273ffffffffffffffffffffffffffffffffffffffff1673ffffffffffffffffffffffffffffffffffffffff16815260200191505060405180910390f35b61043e610cd5565b604051808215151515815260200191505060405180910390f35b6104846004803603602081101561046e57600080fd5b8101908080359060200190929190505050610d34565b6040518082815260200191505060405180910390f35b6104d0600480360360408110156104b057600080fd5b810190808035906020019092919080359060200190929190505050610d46565b604051808215151515815260200191505060405180910390f35b6105166004803603602081101561050057600080fd5b8101908080359060200190929190505050610e67565b6040518080602001828103825283818151815260200191508051906020019060200280838360005b8381101561055957808201518184015260208101905061053e565b505050509050019250505060405180910390f35b6105af6004803603602081101561058357600080fd5b81019080803573ffffffffffffffffffffffffffffffffffffffff169060200190929190505050610e79565b005b6105e7600480360360408110156105c757600080fd5b81019080803590602001909291908035906020019092919050505061103b565b604051808215151515815260200191505060405180910390f35b6106436004803603602081101561061757600080fd5b81019080803573ffffffffffffffffffffffffffffffffffffffff16906020019092919050505061115c565b604051808215151515815260200191505060405180910390f35b61069f6004803603602081101561067357600080fd5b81019080803573ffffffffffffffffffffffffffffffffffffffff1690602001909291905050506111b2565b005b6106cd600480360360208110156106b757600080fd5b8101908080359060200190929190505050611238565b604051808215151515815260200191505060405180910390f35b6000606960003373ffffffffffffffffffffffffffffffffffffffff1673ffffffffffffffffffffffffffffffffffffffff16815260200190815260200160002060009054906101000a900460ff16806107735750610744610cab565b73ffffffffffffffffffffffffffffffffffffffff163373ffffffffffffffffffffffffffffffffffffffff16145b6107c8576040517f08c379a000000000000000000000000000000000000000000000000000000000815260040180806020018281038252602a815260200180611840602a913960400191505060405180910390fd5b817fa8c762fae9757a7aefaa4d2026c9b16af3b1265f3374ed7a689d0336795ee27c60405160405180910390a26107fe8261124a565b9050919050565b60006108118383611267565b905092915050565b606061082361128c565b905090565b6000606960003373ffffffffffffffffffffffffffffffffffffffff1673ffffffffffffffffffffffffffffffffffffffff16815260200190815260200160002060009054906101000a900460ff16806108b45750610885610cab565b73ffffffffffffffffffffffffffffffffffffffff163373ffffffffffffffffffffffffffffffffffffffff16145b610909576040517f08c379a000000000000000000000000000000000000000000000000000000000815260040180806020018281038252602a815260200180611840602a913960400191505060405180910390fd5b60008573ffffffffffffffffffffffffffffffffffffffff1685858560405160240180806020018281038252848482818152602001925080828437600081840152601f19601f8201169050808301925050509350505050604051602081830303815290604052907bffffffffffffffffffffffffffffffffffffffffffffffffffffffff19166020820180517bffffffffffffffffffffffffffffffffffffffffffffffffffffffff83818316178352505050506040518082805190602001908083835b602083106109f057805182526020820191506020810190506020830392506109cd565b6001836020036101000a0380198251168184511680821785525050505050509050019150506000604051808303816000865af19150503d8060008114610a52576040519150601f19603f3d011682016040523d82523d6000602084013e610a57565b606091505b5050905080915050949350505050565b6000610a73838361129d565b905092915050565b610a83610cd5565b610af5576040517f08c379a00000000000000000000000000000000000000000000000000000000081526004018080602001828103825260208152602001807f4f776e61626c653a2063616c6c6572206973206e6f7420746865206f776e657281525060200191505060405180910390fd5b600073ffffffffffffffffffffffffffffffffffffffff16603660009054906101000a900473ffffffffffffffffffffffffffffffffffffffff1673ffffffffffffffffffffffffffffffffffffffff167f8be0079c531659141344cd1fd0a4f28419497f9722a3daafe3b4186f6b6457e060405160405180910390a36000603660006101000a81548173ffffffffffffffffffffffffffffffffffffffff021916908373ffffffffffffffffffffffffffffffffffffffff160217905550565b60696020528060005260406000206000915054906101000a900460ff1681565b610bde610cd5565b610c50576040517f08c379a00000000000000000000000000000000000000000000000000000000081526004018080602001828103825260208152602001807f4f776e61626c653a2063616c6c6572206973206e6f7420746865206f776e657281525060200191505060405180910390fd5b80606960008473ffffffffffffffffffffffffffffffffffffffff1673ffffffffffffffffffffffffffffffffffffffff16815260200190815260200160002060006101000a81548160ff0219169083151502179055505050565b6000603660009054906101000a900473ffffffffffffffffffffffffffffffffffffffff16905090565b6000603660009054906101000a900473ffffffffffffffffffffffffffffffffffffffff1673ffffffffffffffffffffffffffffffffffffffff16610d186112c2565b73ffffffffffffffffffffffffffffffffffffffff1614905090565b6000610d3f826112ca565b9050919050565b6000606960003373ffffffffffffffffffffffffffffffffffffffff1673ffffffffffffffffffffffffffffffffffffffff16815260200190815260200160002060009054906101000a900460ff1680610dd25750610da3610cab565b73ffffffffffffffffffffffffffffffffffffffff163373ffffffffffffffffffffffffffffffffffffffff16145b610e27576040517f08c379a000000000000000000000000000000000000000000000000000000000815260040180806020018281038252602a815260200180611840602a913960400191505060405180910390fd5b81837fc5d91f356cea4a2933ed9f78ec87b4f91a05986ee2a3154f0bd20bfad9d1b3b860405160405180910390a3610e5f83836112e4565b905092915050565b6060610e7282611309565b9050919050565b600360019054906101000a900460ff1680610e985750610e97611323565b5b80610eb05750600360009054906101000a900460ff16155b610f05576040517f08c379a000000000000000000000000000000000000000000000000000000000815260040180806020018281038252602e81526020018061186a602e913960400191505060405180910390fd5b6000600360019054906101000a900460ff161590508015610f57576001600360016101000a81548160ff0219169083151502179055506001600360006101000a81548160ff0219169083151502179055505b81603660006101000a81548173ffffffffffffffffffffffffffffffffffffffff021916908373ffffffffffffffffffffffffffffffffffffffff160217905550603660009054906101000a900473ffffffffffffffffffffffffffffffffffffffff1673ffffffffffffffffffffffffffffffffffffffff16600073ffffffffffffffffffffffffffffffffffffffff167f8be0079c531659141344cd1fd0a4f28419497f9722a3daafe3b4186f6b6457e060405160405180910390a38015611037576000600360016101000a81548160ff0219169083151502179055505b5050565b6000606960003373ffffffffffffffffffffffffffffffffffffffff1673ffffffffffffffffffffffffffffffffffffffff16815260200190815260200160002060009054906101000a900460ff16806110c75750611098610cab565b73ffffffffffffffffffffffffffffffffffffffff163373ffffffffffffffffffffffffffffffffffffffff16145b61111c576040517f08c379a000000000000000000000000000000000000000000000000000000000815260040180806020018281038252602a815260200180611840602a913960400191505060405180910390fd5b81837f060df603306baa87050778b5ce94a1a38056c1ac5b1a7df3ee860c699662731b60405160405180910390a3611154838361133a565b905092915050565b6000606960008373ffffffffffffffffffffffffffffffffffffffff1673ffffffffffffffffffffffffffffffffffffffff16815260200190815260200160002060009054906101000a900460ff169050919050565b6111ba610cd5565b61122c576040517f08c379a00000000000000000000000000000000000000000000000000000000081526004018080602001828103825260208152602001807f4f776e61626c653a2063616c6c6572206973206e6f7420746865206f776e657281525060200191505060405180910390fd5b6112358161135f565b50565b6000611243826114a5565b9050919050565b60006112608260006114c290919063ffffffff16565b9050919050565b600061128482611276856114e2565b6114ff90919063ffffffff16565b905092915050565b60606112986000611523565b905090565b60006112ba826112ac856114e2565b61153890919063ffffffff16565b905092915050565b600033905090565b60006112dd6112d8836114e2565b61155b565b9050919050565b6000611301826112f3856114e2565b61156c90919063ffffffff16565b905092915050565b606061131c611317836114e2565b61165d565b9050919050565b6000803090506000813b9050600081149250505090565b600061135782611349856114e2565b6116f490919063ffffffff16565b905092915050565b600073ffffffffffffffffffffffffffffffffffffffff168173ffffffffffffffffffffffffffffffffffffffff1614156113e5576040517f08c379a000000000000000000000000000000000000000000000000000000000815260040180806020018281038252602681526020018061181a6026913960400191505060405180910390fd5b8073ffffffffffffffffffffffffffffffffffffffff16603660009054906101000a900473ffffffffffffffffffffffffffffffffffffffff1673ffffffffffffffffffffffffffffffffffffffff167f8be0079c531659141344cd1fd0a4f28419497f9722a3daafe3b4186f6b6457e060405160405180910390a380603660006101000a81548173ffffffffffffffffffffffffffffffffffffffff021916908373ffffffffffffffffffffffffffffffffffffffff16021790555050565b60006114bb82600061175e90919063ffffffff16565b9050919050565b60006114da82846001016116f490919063ffffffff16565b905092915050565b60006114f882600061177e90919063ffffffff16565b9050919050565b600082600101828154811061151057fe5b9060005260206000200154905092915050565b60606115318260010161165d565b9050919050565b600080836000016000848152602001908152602001600020541415905092915050565b600081600101805490509050919050565b60006115788383611538565b1561165257600060018460000160008581526020019081526020016000205403905060006001856001018054905003905081811461160b5760008560010182815481106115c157fe5b90600052602060002001549050808660010184815481106115de57fe5b90600052602060002001819055506001830186600001600083815260200190815260200160002081905550505b846000016000858152602001908152602001600020600090558460010180548061163157fe5b60019003818190600052602060002001600090559055600192505050611657565b600090505b92915050565b60608082600101805490506040519080825280602002602001820160405280156116965781602001602082028038833980820191505090505b50905060005b83600101805490508110156116ea578360010181815481106116ba57fe5b90600052602060002001548282815181106116d157fe5b602002602001018181525050808060010191505061169c565b5080915050919050565b60006117008383611538565b611753578260010182908060018154018082558091505090600182039060005260206000200160009091929091909150558360000160008481526020019081526020016000208190555060019050611758565b600090505b92915050565b6000611776828460010161153890919063ffffffff16565b905092915050565b600061178a838361175e565b6117fc576040517f08c379a00000000000000000000000000000000000000000000000000000000081526004018080602001828103825260198152602001807f4572726f72206b657920646f6573206e6f74206578697374210000000000000081525060200191505060405180910390fd5b82600001600083815260200190815260200160002090509291505056fe4f776e61626c653a206e6577206f776e657220697320746865207a65726f20616464726573734e6f7420616e20617574686f72697a6564206e6f646520746f2066756c66696c6c207265717565737473436f6e747261637420696e7374616e63652068617320616c7265616479206265656e20696e697469616c697a6564a265627a7a723158206a7f68ab3c00aa1a7c4c476c781ae737ec5f78c5a5d22f4c21d1d1c9711b288164736f6c63430005100032",
  "compiler": {
    "name": "solc",
    "version": "0.5.16+commit.9c3226ce.Emscripten.clang",
    "optimizer": {
      "enabled": false,
      "runs": 200
    },
    "evmVersion": "petersburg"
  }
}