{
  "fileName": "ERC20NonDilutive.sol",
  "contractName": "ERC20NonDilutive",
  "source": "pragma solidity ^0.5.0;\n\nimport \"@openzeppelin/contracts-ethereum-package/contracts/ownership/Ownable.sol\";\nimport \"@openzeppelin/contracts-ethereum-package/contracts/token/ERC20/ERC20Mintable.sol\";\nimport \"./ERC721PreferredStock.sol\";\n\ncontract ERC20NonDilutive is ERC20Mintable {\n\n    // Virtual \"common stock\", has no ownership\n    // serves to compute ownership of protected stock\n    uint256 public commonStockSupply;\n    ERC721PreferredStock preferredStock; //ERC721 inflation-protection preferred stock\n    // Used to keep track of mint tokenId since burning\n    // makes supply unreliable for usage as min tokenId\n    uint256 public preferredStockMaxId;\n\n    // Authorized claim per preferred share\n    uint256 public authorizedPerShare;\n    // Total claimed\n    // (not equal to preferredStock * authorizedPerShare since preferredStock can be minted)\n    uint256 public totalClaimed;\n    // Total minted claimable\n    uint256 public totalClaimable;\n    // Claimed tokens by share. New shares are minted as having\n    //    claimed[tokenId] = authorizedPerShare\n    // such as to allow only future inflation protection\n    mapping (uint256 => uint256) claimed;\n\n    // Emits event when preferredStock holder claims tokens\n    event PreferredStockClaim(uint256 indexed tokenId, uint256 amount);\n\n    function initialize() public initializer {\n        // Supply is 0\n        ERC20Mintable.initialize(_msgSender());\n        // Initialize preffered stock contract\n        preferredStock = new ERC721PreferredStock();\n        preferredStock.initialize(address(this));\n\n        authorizedPerShare = 0;\n        commonStockSupply = 0;\n        totalClaimed = 0;\n        totalClaimable = 0;\n        preferredStockMaxId = 0;\n    }\n\n    function preferredStockSupply() public view returns (uint256) {\n        return _preferredStockSupply();\n    }\n\n    function preferredStockAddress() public view returns (address) {\n        return address(preferredStock);\n    }\n\n    function _preferredStockSupply() internal view returns (uint256) {\n        return preferredStock.totalSupply();\n    }\n\n    /**\n     * @dev Overrieds the standard ERC20Mintable mint function. See {ERC20-_mint}.\n     *\n     * Requirements:\n     *\n     * - the caller must have the {MinterRole}.\n     */\n    function mint(address account, uint256 amount) public onlyMinter returns (bool) {\n        // No prefferred stock\n        uint256 preferredSupply = _preferredStockSupply();\n        if (preferredSupply == 0) {\n            _mint(account, amount);\n            return true;\n        }\n\n        uint256 mintPerShare = amount.div(commonStockSupply);\n        // Reverse operation to avoid rounding errors and the creation of dust\n        uint256 mintCommon = mintPerShare.mul(commonStockSupply);\n\n        // Mint common stock tokens\n        _mint(account, mintCommon);\n        // Increase authorized claim per share\n        authorizedPerShare = authorizedPerShare.add(mintPerShare);\n        // Mint preferred stock tokens\n        uint256 mintPreffered = mintPerShare.mul(preferredSupply);\n        // Tokens are held on the contracts balance\n        // Loss of the ERC721 token holder will permanently lock that claim\n        _mint(address(this), mintPreffered);\n        totalClaimable = totalClaimable.add(mintPreffered);\n\n        return true;\n    }\n\n    /**\n   * @notice Mints preferred stock.\n   * @dev Preferred stock has a claim on future inflation.\n   * @param account Address to mint to\n   * @param amount Amount of ERC-721 tokens to mint\n   */\n    function mintPrefferedStock(address account, uint256 amount) public onlyMinter returns (bool) {\n        uint256 preferredStockEndId = preferredStockMaxId.add(amount);\n        for (uint256 tokenId = preferredStockMaxId; tokenId < preferredStockEndId; tokenId++) {\n            preferredStock.mint(account, tokenId);\n            claimed[tokenId] = authorizedPerShare; //Only right to future inflation.\n        }\n\n        // Update min id for future minting\n        preferredStockMaxId = preferredStockEndId;\n\n        return true;\n    }\n\n    function burnPrefferedStock(uint256[] calldata tokenIds) external returns (bool) {\n        return _burnPrefferedStock(tokenIds);\n    }\n    function burnPrefferedStockByIndex(uint256[] calldata tokenIndexes) external returns (bool) {\n        uint256[] memory tokenIds = new uint256[](tokenIndexes.length);\n\n        for (uint256 i = 0; i < tokenIndexes.length; i++) {\n            tokenIds[i] = preferredStock.tokenByIndex(tokenIndexes[i]);\n        }\n\n        return _burnPrefferedStock(tokenIds);\n    }\n\n    function _burnPrefferedStock(uint256[] memory tokenIds) internal returns (bool) {\n        address sender = _msgSender();\n        for (uint256 i = 0; i < tokenIds.length; i++) {\n            uint256 tokenId = tokenIds[i];\n            address tokenOwner = preferredStock.ownerOf(tokenId);\n            require(sender == tokenOwner, \"Sender does not own preferred share.\");\n            require(claimed[tokenId] == authorizedPerShare, \"Must claim all tokens before burn\");\n\n            delete(claimed[tokenId]); // No longer needed to keep track of claim\n            // deleting ERC721 token reduces its supply, does not impact max token id\n            preferredStock.burn(tokenId);\n        }\n\n        return true;\n    }\n\n    function mintCommonStock(uint256 amount) public onlyMinter returns (uint256) {\n        commonStockSupply = commonStockSupply.add(amount);\n        return commonStockSupply;\n    }\n\n    function burnCommonStock(uint256 amount) public onlyMinter returns (uint256) {\n        commonStockSupply = commonStockSupply.sub(amount);\n        return commonStockSupply;\n    }\n\n    function claimByIndex(uint256[] calldata tokenIndexes) external returns (bool) {\n        for (uint256 i = 0; i < tokenIndexes.length; i++) {\n            uint256 tokenId = preferredStock.tokenByIndex(tokenIndexes[i]);\n            _claimById(tokenId);\n        }\n\n        return true;\n    }\n\n    function claimById(uint256[] calldata tokenIds) external returns (bool) {\n        for (uint256 i = 0; i < tokenIds.length; i++) {\n            uint256 tokenId = tokenIds[i];\n            _claimById(tokenId);\n        }\n\n        return true;\n    }\n\n    function _claimById(uint256 tokenId) internal returns (bool) {\n        address sender = _msgSender();\n        address tokenOwner = preferredStock.ownerOf(tokenId);\n        require(sender == tokenOwner, \"Sender does not own preferred share.\");\n        require(authorizedPerShare > claimed[tokenId], \"Tokens already claimed.\");\n\n        uint256 authorizedAmount = authorizedPerShare.sub(claimed[tokenId]);\n        //Update claimed amount\n        claimed[tokenId] = claimed[tokenId].add(authorizedAmount);\n        totalClaimed = totalClaimed.add(authorizedAmount);\n\n        emit PreferredStockClaim(tokenId, authorizedAmount);\n        //Transfer claimed tokens\n        _transfer(address(this), sender, authorizedAmount);\n\n        return true;\n    }\n\n}",
  "sourcePath": "contracts/token/ERC20NonDilutive.sol",
  "abi": [
    {
      "anonymous": false,
      "inputs": [
        {
          "indexed": true,
          "internalType": "address",
          "name": "owner",
          "type": "address"
        },
        {
          "indexed": true,
          "internalType": "address",
          "name": "spender",
          "type": "address"
        },
        {
          "indexed": false,
          "internalType": "uint256",
          "name": "value",
          "type": "uint256"
        }
      ],
      "name": "Approval",
      "type": "event"
    },
    {
      "anonymous": false,
      "inputs": [
        {
          "indexed": true,
          "internalType": "address",
          "name": "account",
          "type": "address"
        }
      ],
      "name": "MinterAdded",
      "type": "event"
    },
    {
      "anonymous": false,
      "inputs": [
        {
          "indexed": true,
          "internalType": "address",
          "name": "account",
          "type": "address"
        }
      ],
      "name": "MinterRemoved",
      "type": "event"
    },
    {
      "anonymous": false,
      "inputs": [
        {
          "indexed": true,
          "internalType": "uint256",
          "name": "tokenId",
          "type": "uint256"
        },
        {
          "indexed": false,
          "internalType": "uint256",
          "name": "amount",
          "type": "uint256"
        }
      ],
      "name": "PreferredStockClaim",
      "type": "event"
    },
    {
      "anonymous": false,
      "inputs": [
        {
          "indexed": true,
          "internalType": "address",
          "name": "from",
          "type": "address"
        },
        {
          "indexed": true,
          "internalType": "address",
          "name": "to",
          "type": "address"
        },
        {
          "indexed": false,
          "internalType": "uint256",
          "name": "value",
          "type": "uint256"
        }
      ],
      "name": "Transfer",
      "type": "event"
    },
    {
      "constant": false,
      "inputs": [
        {
          "internalType": "address",
          "name": "account",
          "type": "address"
        }
      ],
      "name": "addMinter",
      "outputs": [],
      "payable": false,
      "stateMutability": "nonpayable",
      "type": "function"
    },
    {
      "constant": true,
      "inputs": [
        {
          "internalType": "address",
          "name": "owner",
          "type": "address"
        },
        {
          "internalType": "address",
          "name": "spender",
          "type": "address"
        }
      ],
      "name": "allowance",
      "outputs": [
        {
          "internalType": "uint256",
          "name": "",
          "type": "uint256"
        }
      ],
      "payable": false,
      "stateMutability": "view",
      "type": "function"
    },
    {
      "constant": false,
      "inputs": [
        {
          "internalType": "address",
          "name": "spender",
          "type": "address"
        },
        {
          "internalType": "uint256",
          "name": "amount",
          "type": "uint256"
        }
      ],
      "name": "approve",
      "outputs": [
        {
          "internalType": "bool",
          "name": "",
          "type": "bool"
        }
      ],
      "payable": false,
      "stateMutability": "nonpayable",
      "type": "function"
    },
    {
      "constant": true,
      "inputs": [],
      "name": "authorizedPerShare",
      "outputs": [
        {
          "internalType": "uint256",
          "name": "",
          "type": "uint256"
        }
      ],
      "payable": false,
      "stateMutability": "view",
      "type": "function"
    },
    {
      "constant": true,
      "inputs": [
        {
          "internalType": "address",
          "name": "account",
          "type": "address"
        }
      ],
      "name": "balanceOf",
      "outputs": [
        {
          "internalType": "uint256",
          "name": "",
          "type": "uint256"
        }
      ],
      "payable": false,
      "stateMutability": "view",
      "type": "function"
    },
    {
      "constant": false,
      "inputs": [
        {
          "internalType": "uint256",
          "name": "amount",
          "type": "uint256"
        }
      ],
      "name": "burnCommonStock",
      "outputs": [
        {
          "internalType": "uint256",
          "name": "",
          "type": "uint256"
        }
      ],
      "payable": false,
      "stateMutability": "nonpayable",
      "type": "function"
    },
    {
      "constant": false,
      "inputs": [
        {
          "internalType": "uint256[]",
          "name": "tokenIds",
          "type": "uint256[]"
        }
      ],
      "name": "burnPrefferedStock",
      "outputs": [
        {
          "internalType": "bool",
          "name": "",
          "type": "bool"
        }
      ],
      "payable": false,
      "stateMutability": "nonpayable",
      "type": "function"
    },
    {
      "constant": false,
      "inputs": [
        {
          "internalType": "uint256[]",
          "name": "tokenIndexes",
          "type": "uint256[]"
        }
      ],
      "name": "burnPrefferedStockByIndex",
      "outputs": [
        {
          "internalType": "bool",
          "name": "",
          "type": "bool"
        }
      ],
      "payable": false,
      "stateMutability": "nonpayable",
      "type": "function"
    },
    {
      "constant": false,
      "inputs": [
        {
          "internalType": "uint256[]",
          "name": "tokenIds",
          "type": "uint256[]"
        }
      ],
      "name": "claimById",
      "outputs": [
        {
          "internalType": "bool",
          "name": "",
          "type": "bool"
        }
      ],
      "payable": false,
      "stateMutability": "nonpayable",
      "type": "function"
    },
    {
      "constant": false,
      "inputs": [
        {
          "internalType": "uint256[]",
          "name": "tokenIndexes",
          "type": "uint256[]"
        }
      ],
      "name": "claimByIndex",
      "outputs": [
        {
          "internalType": "bool",
          "name": "",
          "type": "bool"
        }
      ],
      "payable": false,
      "stateMutability": "nonpayable",
      "type": "function"
    },
    {
      "constant": true,
      "inputs": [],
      "name": "commonStockSupply",
      "outputs": [
        {
          "internalType": "uint256",
          "name": "",
          "type": "uint256"
        }
      ],
      "payable": false,
      "stateMutability": "view",
      "type": "function"
    },
    {
      "constant": false,
      "inputs": [
        {
          "internalType": "address",
          "name": "spender",
          "type": "address"
        },
        {
          "internalType": "uint256",
          "name": "subtractedValue",
          "type": "uint256"
        }
      ],
      "name": "decreaseAllowance",
      "outputs": [
        {
          "internalType": "bool",
          "name": "",
          "type": "bool"
        }
      ],
      "payable": false,
      "stateMutability": "nonpayable",
      "type": "function"
    },
    {
      "constant": false,
      "inputs": [
        {
          "internalType": "address",
          "name": "spender",
          "type": "address"
        },
        {
          "internalType": "uint256",
          "name": "addedValue",
          "type": "uint256"
        }
      ],
      "name": "increaseAllowance",
      "outputs": [
        {
          "internalType": "bool",
          "name": "",
          "type": "bool"
        }
      ],
      "payable": false,
      "stateMutability": "nonpayable",
      "type": "function"
    },
    {
      "constant": false,
      "inputs": [],
      "name": "initialize",
      "outputs": [],
      "payable": false,
      "stateMutability": "nonpayable",
      "type": "function"
    },
    {
      "constant": false,
      "inputs": [
        {
          "internalType": "address",
          "name": "sender",
          "type": "address"
        }
      ],
      "name": "initialize",
      "outputs": [],
      "payable": false,
      "stateMutability": "nonpayable",
      "type": "function"
    },
    {
      "constant": true,
      "inputs": [
        {
          "internalType": "address",
          "name": "account",
          "type": "address"
        }
      ],
      "name": "isMinter",
      "outputs": [
        {
          "internalType": "bool",
          "name": "",
          "type": "bool"
        }
      ],
      "payable": false,
      "stateMutability": "view",
      "type": "function"
    },
    {
      "constant": false,
      "inputs": [
        {
          "internalType": "address",
          "name": "account",
          "type": "address"
        },
        {
          "internalType": "uint256",
          "name": "amount",
          "type": "uint256"
        }
      ],
      "name": "mint",
      "outputs": [
        {
          "internalType": "bool",
          "name": "",
          "type": "bool"
        }
      ],
      "payable": false,
      "stateMutability": "nonpayable",
      "type": "function"
    },
    {
      "constant": false,
      "inputs": [
        {
          "internalType": "uint256",
          "name": "amount",
          "type": "uint256"
        }
      ],
      "name": "mintCommonStock",
      "outputs": [
        {
          "internalType": "uint256",
          "name": "",
          "type": "uint256"
        }
      ],
      "payable": false,
      "stateMutability": "nonpayable",
      "type": "function"
    },
    {
      "constant": false,
      "inputs": [
        {
          "internalType": "address",
          "name": "account",
          "type": "address"
        },
        {
          "internalType": "uint256",
          "name": "amount",
          "type": "uint256"
        }
      ],
      "name": "mintPrefferedStock",
      "outputs": [
        {
          "internalType": "bool",
          "name": "",
          "type": "bool"
        }
      ],
      "payable": false,
      "stateMutability": "nonpayable",
      "type": "function"
    },
    {
      "constant": true,
      "inputs": [],
      "name": "preferredStockAddress",
      "outputs": [
        {
          "internalType": "address",
          "name": "",
          "type": "address"
        }
      ],
      "payable": false,
      "stateMutability": "view",
      "type": "function"
    },
    {
      "constant": true,
      "inputs": [],
      "name": "preferredStockMaxId",
      "outputs": [
        {
          "internalType": "uint256",
          "name": "",
          "type": "uint256"
        }
      ],
      "payable": false,
      "stateMutability": "view",
      "type": "function"
    },
    {
      "constant": true,
      "inputs": [],
      "name": "preferredStockSupply",
      "outputs": [
        {
          "internalType": "uint256",
          "name": "",
          "type": "uint256"
        }
      ],
      "payable": false,
      "stateMutability": "view",
      "type": "function"
    },
    {
      "constant": false,
      "inputs": [],
      "name": "renounceMinter",
      "outputs": [],
      "payable": false,
      "stateMutability": "nonpayable",
      "type": "function"
    },
    {
      "constant": true,
      "inputs": [],
      "name": "totalClaimable",
      "outputs": [
        {
          "internalType": "uint256",
          "name": "",
          "type": "uint256"
        }
      ],
      "payable": false,
      "stateMutability": "view",
      "type": "function"
    },
    {
      "constant": true,
      "inputs": [],
      "name": "totalClaimed",
      "outputs": [
        {
          "internalType": "uint256",
          "name": "",
          "type": "uint256"
        }
      ],
      "payable": false,
      "stateMutability": "view",
      "type": "function"
    },
    {
      "constant": true,
      "inputs": [],
      "name": "totalSupply",
      "outputs": [
        {
          "internalType": "uint256",
          "name": "",
          "type": "uint256"
        }
      ],
      "payable": false,
      "stateMutability": "view",
      "type": "function"
    },
    {
      "constant": false,
      "inputs": [
        {
          "internalType": "address",
          "name": "recipient",
          "type": "address"
        },
        {
          "internalType": "uint256",
          "name": "amount",
          "type": "uint256"
        }
      ],
      "name": "transfer",
      "outputs": [
        {
          "internalType": "bool",
          "name": "",
          "type": "bool"
        }
      ],
      "payable": false,
      "stateMutability": "nonpayable",
      "type": "function"
    },
    {
      "constant": false,
      "inputs": [
        {
          "internalType": "address",
          "name": "sender",
          "type": "address"
        },
        {
          "internalType": "address",
          "name": "recipient",
          "type": "address"
        },
        {
          "internalType": "uint256",
          "name": "amount",
          "type": "uint256"
        }
      ],
      "name": "transferFrom",
      "outputs": [
        {
          "internalType": "bool",
          "name": "",
          "type": "bool"
        }
      ],
      "payable": false,
      "stateMutability": "nonpayable",
      "type": "function"
    }
  ],
  "bytecode": "0x608060405261636d806100136000396000f3fe608060405234801561001057600080fd5b50600436106101c35760003560e01c8063983b2d56116100f9578063c3b3701411610097578063d54ad2a111610071578063d54ad2a1146108a6578063d929ce00146108c4578063dd62ed3e14610955578063e140c50d146109cd576101c3565b8063c3b37014146107fa578063c4d66de814610818578063c4ea14d61461085c576101c3565b8063a9059cbb116100d3578063a9059cbb146106b4578063aa271e1a1461071a578063b6a95c6914610776578063bf7e1d4a146107dc576101c3565b8063983b2d56146106005780639865027514610644578063a457c2d71461064e576101c3565b80634838ed19116101665780635939a25a116101405780635939a25a1461053e57806370a08231146105805780637e6c5f03146105d85780638129fc1c146105f6576101c3565b80634838ed1914610471578063499fe4271461048f5780634f20ddeb146104ad576101c3565b80631a738066116101a25780631a738066146102dd57806323b872dd1461031f57806339509351146103a557806340c10f191461040b576101c3565b8062d72dfe146101c8578063095ea7b31461025957806318160ddd146102bf575b600080fd5b61023f600480360360208110156101de57600080fd5b81019080803590602001906401000000008111156101fb57600080fd5b82018360208201111561020d57600080fd5b8035906020019184602083028401116401000000008311171561022f57600080fd5b9091929391929390505050610a5e565b604051808215151515815260200191505060405180910390f35b6102a56004803603604081101561026f57600080fd5b81019080803573ffffffffffffffffffffffffffffffffffffffff16906020019092919080359060200190929190505050610ba0565b604051808215151515815260200191505060405180910390f35b6102c7610bbe565b6040518082815260200191505060405180910390f35b610309600480360360208110156102f357600080fd5b8101908080359060200190929190505050610bc8565b6040518082815260200191505060405180910390f35b61038b6004803603606081101561033557600080fd5b81019080803573ffffffffffffffffffffffffffffffffffffffff169060200190929190803573ffffffffffffffffffffffffffffffffffffffff16906020019092919080359060200190929190505050610c54565b604051808215151515815260200191505060405180910390f35b6103f1600480360360408110156103bb57600080fd5b81019080803573ffffffffffffffffffffffffffffffffffffffff16906020019092919080359060200190929190505050610d2d565b604051808215151515815260200191505060405180910390f35b6104576004803603604081101561042157600080fd5b81019080803573ffffffffffffffffffffffffffffffffffffffff16906020019092919080359060200190929190505050610de0565b604051808215151515815260200191505060405180910390f35b610479610f12565b6040518082815260200191505060405180910390f35b610497610f18565b6040518082815260200191505060405180910390f35b610524600480360360208110156104c357600080fd5b81019080803590602001906401000000008111156104e057600080fd5b8201836020820111156104f257600080fd5b8035906020019184602083028401116401000000008311171561051457600080fd5b9091929391929390505050610f1e565b604051808215151515815260200191505060405180910390f35b61056a6004803603602081101561055457600080fd5b8101908080359060200190929190505050611018565b6040518082815260200191505060405180910390f35b6105c26004803603602081101561059657600080fd5b81019080803573ffffffffffffffffffffffffffffffffffffffff1690602001909291905050506110a4565b6040518082815260200191505060405180910390f35b6105e06110ed565b6040518082815260200191505060405180910390f35b6105fe6110f3565b005b6106426004803603602081101561061657600080fd5b81019080803573ffffffffffffffffffffffffffffffffffffffff16906020019092919050505061134c565b005b61064c6113bd565b005b61069a6004803603604081101561066457600080fd5b81019080803573ffffffffffffffffffffffffffffffffffffffff169060200190929190803590602001909291905050506113cf565b604051808215151515815260200191505060405180910390f35b610700600480360360408110156106ca57600080fd5b81019080803573ffffffffffffffffffffffffffffffffffffffff1690602001909291908035906020019092919050505061149c565b604051808215151515815260200191505060405180910390f35b61075c6004803603602081101561073057600080fd5b81019080803573ffffffffffffffffffffffffffffffffffffffff1690602001909291905050506114ba565b604051808215151515815260200191505060405180910390f35b6107c26004803603604081101561078c57600080fd5b81019080803573ffffffffffffffffffffffffffffffffffffffff169060200190929190803590602001909291905050506114d7565b604051808215151515815260200191505060405180910390f35b6107e4611686565b6040518082815260200191505060405180910390f35b610802611695565b6040518082815260200191505060405180910390f35b61085a6004803603602081101561082e57600080fd5b81019080803573ffffffffffffffffffffffffffffffffffffffff16906020019092919050505061169b565b005b6108646117a4565b604051808273ffffffffffffffffffffffffffffffffffffffff1673ffffffffffffffffffffffffffffffffffffffff16815260200191505060405180910390f35b6108ae6117ce565b6040518082815260200191505060405180910390f35b61093b600480360360208110156108da57600080fd5b81019080803590602001906401000000008111156108f757600080fd5b82018360208201111561090957600080fd5b8035906020019184602083028401116401000000008311171561092b57600080fd5b90919293919293905050506117d4565b604051808215151515815260200191505060405180910390f35b6109b76004803603604081101561096b57600080fd5b81019080803573ffffffffffffffffffffffffffffffffffffffff169060200190929190803573ffffffffffffffffffffffffffffffffffffffff169060200190929190505050611828565b6040518082815260200191505060405180910390f35b610a44600480360360208110156109e357600080fd5b8101908080359060200190640100000000811115610a0057600080fd5b820183602082011115610a1257600080fd5b80359060200191846020830284011164010000000083111715610a3457600080fd5b90919293919293905050506118af565b604051808215151515815260200191505060405180910390f35b6000606083839050604051908082528060200260200182016040528015610a945781602001602082028038833980820191505090505b50905060008090505b84849050811015610b8d5760ce60009054906101000a900473ffffffffffffffffffffffffffffffffffffffff1673ffffffffffffffffffffffffffffffffffffffff16634f6ccce7868684818110610af257fe5b905060200201356040518263ffffffff1660e01b81526004018082815260200191505060206040518083038186803b158015610b2d57600080fd5b505afa158015610b41573d6000803e3d6000fd5b505050506040513d6020811015610b5757600080fd5b8101908080519060200190929190505050828281518110610b7457fe5b6020026020010181815250508080600101915050610a9d565b50610b97816118fc565b91505092915050565b6000610bb4610bad611b91565b8484611b99565b6001905092915050565b6000603554905090565b6000610bda610bd5611b91565b6114ba565b610c2f576040517f08c379a000000000000000000000000000000000000000000000000000000000815260040180806020018281038252603081526020018061619c6030913960400191505060405180910390fd5b610c448260cd54611d9090919063ffffffff16565b60cd8190555060cd549050919050565b6000610c61848484611dda565b610d2284610c6d611b91565b610d1d8560405180606001604052806028815260200161620e60289139603460008b73ffffffffffffffffffffffffffffffffffffffff1673ffffffffffffffffffffffffffffffffffffffff1681526020019081526020016000206000610cd3611b91565b73ffffffffffffffffffffffffffffffffffffffff1673ffffffffffffffffffffffffffffffffffffffff168152602001908152602001600020546120949092919063ffffffff16565b611b99565b600190509392505050565b6000610dd6610d3a611b91565b84610dd18560346000610d4b611b91565b73ffffffffffffffffffffffffffffffffffffffff1673ffffffffffffffffffffffffffffffffffffffff16815260200190815260200160002060008973ffffffffffffffffffffffffffffffffffffffff1673ffffffffffffffffffffffffffffffffffffffff1681526020019081526020016000205461215490919063ffffffff16565b611b99565b6001905092915050565b6000610df2610ded611b91565b6114ba565b610e47576040517f08c379a000000000000000000000000000000000000000000000000000000000815260040180806020018281038252603081526020018061619c6030913960400191505060405180910390fd5b6000610e516121dc565b90506000811415610e7057610e668484612286565b6001915050610f0c565b6000610e8760cd548561244390919063ffffffff16565b90506000610ea060cd548361248d90919063ffffffff16565b9050610eac8682612286565b610ec18260d05461215490919063ffffffff16565b60d0819055506000610edc848461248d90919063ffffffff16565b9050610ee83082612286565b610efd8160d25461215490919063ffffffff16565b60d28190555060019450505050505b92915050565b60d25481565b60cf5481565b600080600090505b8383905081101561100d57600060ce60009054906101000a900473ffffffffffffffffffffffffffffffffffffffff1673ffffffffffffffffffffffffffffffffffffffff16634f6ccce7868685818110610f7d57fe5b905060200201356040518263ffffffff1660e01b81526004018082815260200191505060206040518083038186803b158015610fb857600080fd5b505afa158015610fcc573d6000803e3d6000fd5b505050506040513d6020811015610fe257600080fd5b81019080805190602001909291905050509050610ffe81612513565b50508080600101915050610f26565b506001905092915050565b600061102a611025611b91565b6114ba565b61107f576040517f08c379a000000000000000000000000000000000000000000000000000000000815260040180806020018281038252603081526020018061619c6030913960400191505060405180910390fd5b6110948260cd5461215490919063ffffffff16565b60cd8190555060cd549050919050565b6000603360008373ffffffffffffffffffffffffffffffffffffffff1673ffffffffffffffffffffffffffffffffffffffff168152602001908152602001600020549050919050565b60d05481565b600060019054906101000a900460ff168061111257506111116127b3565b5b8061112957506000809054906101000a900460ff16155b61117e576040517f08c379a000000000000000000000000000000000000000000000000000000000815260040180806020018281038252602e81526020018061629d602e913960400191505060405180910390fd5b60008060019054906101000a900460ff1615905080156111ce576001600060016101000a81548160ff02191690831515021790555060016000806101000a81548160ff0219169083151502179055505b6111de6111d9611b91565b61169b565b6040516111ea90612cd1565b604051809103906000f080158015611206573d6000803e3d6000fd5b5060ce60006101000a81548173ffffffffffffffffffffffffffffffffffffffff021916908373ffffffffffffffffffffffffffffffffffffffff16021790555060ce60009054906101000a900473ffffffffffffffffffffffffffffffffffffffff1673ffffffffffffffffffffffffffffffffffffffff1663c4d66de8306040518263ffffffff1660e01b8152600401808273ffffffffffffffffffffffffffffffffffffffff1673ffffffffffffffffffffffffffffffffffffffff168152602001915050600060405180830381600087803b1580156112e857600080fd5b505af11580156112fc573d6000803e3d6000fd5b50505050600060d081905550600060cd81905550600060d181905550600060d281905550600060cf8190555080156113495760008060016101000a81548160ff0219169083151502179055505b50565b61135c611357611b91565b6114ba565b6113b1576040517f08c379a000000000000000000000000000000000000000000000000000000000815260040180806020018281038252603081526020018061619c6030913960400191505060405180910390fd5b6113ba816127ca565b50565b6113cd6113c8611b91565b612824565b565b60006114926113dc611b91565b8461148d856040518060600160405280602581526020016163146025913960346000611406611b91565b73ffffffffffffffffffffffffffffffffffffffff1673ffffffffffffffffffffffffffffffffffffffff16815260200190815260200160002060008a73ffffffffffffffffffffffffffffffffffffffff1673ffffffffffffffffffffffffffffffffffffffff168152602001908152602001600020546120949092919063ffffffff16565b611b99565b6001905092915050565b60006114b06114a9611b91565b8484611dda565b6001905092915050565b60006114d082606861287e90919063ffffffff16565b9050919050565b60006114e96114e4611b91565b6114ba565b61153e576040517f08c379a000000000000000000000000000000000000000000000000000000000815260040180806020018281038252603081526020018061619c6030913960400191505060405180910390fd5b60006115558360cf5461215490919063ffffffff16565b9050600060cf5490505b818110156116735760ce60009054906101000a900473ffffffffffffffffffffffffffffffffffffffff1673ffffffffffffffffffffffffffffffffffffffff166340c10f1986836040518363ffffffff1660e01b8152600401808373ffffffffffffffffffffffffffffffffffffffff1673ffffffffffffffffffffffffffffffffffffffff16815260200182815260200192505050602060405180830381600087803b15801561161057600080fd5b505af1158015611624573d6000803e3d6000fd5b505050506040513d602081101561163a57600080fd5b81019080805190602001909291905050505060d05460d3600083815260200190815260200160002081905550808060010191505061155f565b508060cf81905550600191505092915050565b60006116906121dc565b905090565b60cd5481565b600060019054906101000a900460ff16806116ba57506116b96127b3565b5b806116d157506000809054906101000a900460ff16155b611726576040517f08c379a000000000000000000000000000000000000000000000000000000000815260040180806020018281038252602e81526020018061629d602e913960400191505060405180910390fd5b60008060019054906101000a900460ff161590508015611776576001600060016101000a81548160ff02191690831515021790555060016000806101000a81548160ff0219169083151502179055505b61177f8261295c565b80156117a05760008060016101000a81548160ff0219169083151502179055505b5050565b600060ce60009054906101000a900473ffffffffffffffffffffffffffffffffffffffff16905090565b60d15481565b6000611820838380806020026020016040519081016040528093929190818152602001838360200280828437600081840152601f19601f820116905080830192505050505050506118fc565b905092915050565b6000603460008473ffffffffffffffffffffffffffffffffffffffff1673ffffffffffffffffffffffffffffffffffffffff16815260200190815260200160002060008373ffffffffffffffffffffffffffffffffffffffff1673ffffffffffffffffffffffffffffffffffffffff16815260200190815260200160002054905092915050565b600080600090505b838390508110156118f15760008484838181106118d057fe5b9050602002013590506118e281612513565b505080806001019150506118b7565b506001905092915050565b600080611907611b91565b905060008090505b8351811015611b8657600084828151811061192657fe5b60200260200101519050600060ce60009054906101000a900473ffffffffffffffffffffffffffffffffffffffff1673ffffffffffffffffffffffffffffffffffffffff16636352211e836040518263ffffffff1660e01b81526004018082815260200191505060206040518083038186803b1580156119a557600080fd5b505afa1580156119b9573d6000803e3d6000fd5b505050506040513d60208110156119cf57600080fd5b810190808051906020019092919050505090508073ffffffffffffffffffffffffffffffffffffffff168473ffffffffffffffffffffffffffffffffffffffff1614611a66576040517f08c379a00000000000000000000000000000000000000000000000000000000081526004018080602001828103825260248152602001806162796024913960400191505060405180910390fd5b60d05460d360008481526020019081526020016000205414611ad3576040517f08c379a00000000000000000000000000000000000000000000000000000000081526004018080602001828103825260218152602001806162366021913960400191505060405180910390fd5b60d360008381526020019081526020016000206000905560ce60009054906101000a900473ffffffffffffffffffffffffffffffffffffffff1673ffffffffffffffffffffffffffffffffffffffff166342966c68836040518263ffffffff1660e01b815260040180828152602001915050600060405180830381600087803b158015611b5f57600080fd5b505af1158015611b73573d6000803e3d6000fd5b505050505050808060010191505061190f565b506001915050919050565b600033905090565b600073ffffffffffffffffffffffffffffffffffffffff168373ffffffffffffffffffffffffffffffffffffffff161415611c1f576040517f08c379a00000000000000000000000000000000000000000000000000000000081526004018080602001828103825260248152602001806162f06024913960400191505060405180910390fd5b600073ffffffffffffffffffffffffffffffffffffffff168273ffffffffffffffffffffffffffffffffffffffff161415611ca5576040517f08c379a00000000000000000000000000000000000000000000000000000000081526004018080602001828103825260228152602001806161546022913960400191505060405180910390fd5b80603460008573ffffffffffffffffffffffffffffffffffffffff1673ffffffffffffffffffffffffffffffffffffffff16815260200190815260200160002060008473ffffffffffffffffffffffffffffffffffffffff1673ffffffffffffffffffffffffffffffffffffffff168152602001908152602001600020819055508173ffffffffffffffffffffffffffffffffffffffff168373ffffffffffffffffffffffffffffffffffffffff167f8c5be1e5ebec7d5bd14f71427d1e84f3dd0314c0f7b2291e5b200ac8c7c3b925836040518082815260200191505060405180910390a3505050565b6000611dd283836040518060400160405280601e81526020017f536166654d6174683a207375627472616374696f6e206f766572666c6f770000815250612094565b905092915050565b600073ffffffffffffffffffffffffffffffffffffffff168373ffffffffffffffffffffffffffffffffffffffff161415611e60576040517f08c379a00000000000000000000000000000000000000000000000000000000081526004018080602001828103825260258152602001806162cb6025913960400191505060405180910390fd5b600073ffffffffffffffffffffffffffffffffffffffff168273ffffffffffffffffffffffffffffffffffffffff161415611ee6576040517f08c379a00000000000000000000000000000000000000000000000000000000081526004018080602001828103825260238152602001806161316023913960400191505060405180910390fd5b611f528160405180606001604052806026815260200161617660269139603360008773ffffffffffffffffffffffffffffffffffffffff1673ffffffffffffffffffffffffffffffffffffffff168152602001908152602001600020546120949092919063ffffffff16565b603360008573ffffffffffffffffffffffffffffffffffffffff1673ffffffffffffffffffffffffffffffffffffffff16815260200190815260200160002081905550611fe781603360008573ffffffffffffffffffffffffffffffffffffffff1673ffffffffffffffffffffffffffffffffffffffff1681526020019081526020016000205461215490919063ffffffff16565b603360008473ffffffffffffffffffffffffffffffffffffffff1673ffffffffffffffffffffffffffffffffffffffff168152602001908152602001600020819055508173ffffffffffffffffffffffffffffffffffffffff168373ffffffffffffffffffffffffffffffffffffffff167fddf252ad1be2c89b69c2b068fc378daa952ba7f163c4a11628f55a4df523b3ef836040518082815260200191505060405180910390a3505050565b6000838311158290612141576040517f08c379a00000000000000000000000000000000000000000000000000000000081526004018080602001828103825283818151815260200191508051906020019080838360005b838110156121065780820151818401526020810190506120eb565b50505050905090810190601f1680156121335780820380516001836020036101000a031916815260200191505b509250505060405180910390fd5b5060008385039050809150509392505050565b6000808284019050838110156121d2576040517f08c379a000000000000000000000000000000000000000000000000000000000815260040180806020018281038252601b8152602001807f536166654d6174683a206164646974696f6e206f766572666c6f77000000000081525060200191505060405180910390fd5b8091505092915050565b600060ce60009054906101000a900473ffffffffffffffffffffffffffffffffffffffff1673ffffffffffffffffffffffffffffffffffffffff166318160ddd6040518163ffffffff1660e01b815260040160206040518083038186803b15801561224657600080fd5b505afa15801561225a573d6000803e3d6000fd5b505050506040513d602081101561227057600080fd5b8101908080519060200190929190505050905090565b600073ffffffffffffffffffffffffffffffffffffffff168273ffffffffffffffffffffffffffffffffffffffff161415612329576040517f08c379a000000000000000000000000000000000000000000000000000000000815260040180806020018281038252601f8152602001807f45524332303a206d696e7420746f20746865207a65726f20616464726573730081525060200191505060405180910390fd5b61233e8160355461215490919063ffffffff16565b60358190555061239681603360008573ffffffffffffffffffffffffffffffffffffffff1673ffffffffffffffffffffffffffffffffffffffff1681526020019081526020016000205461215490919063ffffffff16565b603360008473ffffffffffffffffffffffffffffffffffffffff1673ffffffffffffffffffffffffffffffffffffffff168152602001908152602001600020819055508173ffffffffffffffffffffffffffffffffffffffff16600073ffffffffffffffffffffffffffffffffffffffff167fddf252ad1be2c89b69c2b068fc378daa952ba7f163c4a11628f55a4df523b3ef836040518082815260200191505060405180910390a35050565b600061248583836040518060400160405280601a81526020017f536166654d6174683a206469766973696f6e206279207a65726f000000000000815250612a73565b905092915050565b6000808314156124a0576000905061250d565b60008284029050828482816124b157fe5b0414612508576040517f08c379a00000000000000000000000000000000000000000000000000000000081526004018080602001828103825260218152602001806161ed6021913960400191505060405180910390fd5b809150505b92915050565b60008061251e611b91565b9050600060ce60009054906101000a900473ffffffffffffffffffffffffffffffffffffffff1673ffffffffffffffffffffffffffffffffffffffff16636352211e856040518263ffffffff1660e01b81526004018082815260200191505060206040518083038186803b15801561259557600080fd5b505afa1580156125a9573d6000803e3d6000fd5b505050506040513d60208110156125bf57600080fd5b810190808051906020019092919050505090508073ffffffffffffffffffffffffffffffffffffffff168273ffffffffffffffffffffffffffffffffffffffff1614612656576040517f08c379a00000000000000000000000000000000000000000000000000000000081526004018080602001828103825260248152602001806162796024913960400191505060405180910390fd5b60d360008581526020019081526020016000205460d054116126e0576040517f08c379a00000000000000000000000000000000000000000000000000000000081526004018080602001828103825260178152602001807f546f6b656e7320616c726561647920636c61696d65642e00000000000000000081525060200191505060405180910390fd5b600061270a60d360008781526020019081526020016000205460d054611d9090919063ffffffff16565b90506127328160d360008881526020019081526020016000205461215490919063ffffffff16565b60d360008781526020019081526020016000208190555061275e8160d15461215490919063ffffffff16565b60d181905550847f9d79b7d25bbd801b72e9e8975cbc603d56169859e5ddd80c31fbc9790d3186d4826040518082815260200191505060405180910390a26127a7308483611dda565b60019350505050919050565b6000803090506000813b9050600081149250505090565b6127de816068612b3990919063ffffffff16565b8073ffffffffffffffffffffffffffffffffffffffff167f6ae172837ea30b801fbfcdd4108aa1d5bf8ff775444fd70256b44e6bf3dfc3f660405160405180910390a250565b612838816068612c1490919063ffffffff16565b8073ffffffffffffffffffffffffffffffffffffffff167fe94479a9f7e1952cc78f2d6baab678adc1b772d936c6583def489e524cb6669260405160405180910390a250565b60008073ffffffffffffffffffffffffffffffffffffffff168273ffffffffffffffffffffffffffffffffffffffff161415612905576040517f08c379a00000000000000000000000000000000000000000000000000000000081526004018080602001828103825260228152602001806162576022913960400191505060405180910390fd5b8260000160008373ffffffffffffffffffffffffffffffffffffffff1673ffffffffffffffffffffffffffffffffffffffff16815260200190815260200160002060009054906101000a900460ff16905092915050565b600060019054906101000a900460ff168061297b575061297a6127b3565b5b8061299257506000809054906101000a900460ff16155b6129e7576040517f08c379a000000000000000000000000000000000000000000000000000000000815260040180806020018281038252602e81526020018061629d602e913960400191505060405180910390fd5b60008060019054906101000a900460ff161590508015612a37576001600060016101000a81548160ff02191690831515021790555060016000806101000a81548160ff0219169083151502179055505b612a40826114ba565b612a4e57612a4d826127ca565b5b8015612a6f5760008060016101000a81548160ff0219169083151502179055505b5050565b60008083118290612b1f576040517f08c379a00000000000000000000000000000000000000000000000000000000081526004018080602001828103825283818151815260200191508051906020019080838360005b83811015612ae4578082015181840152602081019050612ac9565b50505050905090810190601f168015612b115780820380516001836020036101000a031916815260200191505b509250505060405180910390fd5b506000838581612b2b57fe5b049050809150509392505050565b612b43828261287e565b15612bb6576040517f08c379a000000000000000000000000000000000000000000000000000000000815260040180806020018281038252601f8152602001807f526f6c65733a206163636f756e7420616c72656164792068617320726f6c650081525060200191505060405180910390fd5b60018260000160008373ffffffffffffffffffffffffffffffffffffffff1673ffffffffffffffffffffffffffffffffffffffff16815260200190815260200160002060006101000a81548160ff0219169083151502179055505050565b612c1e828261287e565b612c73576040517f08c379a00000000000000000000000000000000000000000000000000000000081526004018080602001828103825260218152602001806161cc6021913960400191505060405180910390fd5b60008260000160008373ffffffffffffffffffffffffffffffffffffffff1673ffffffffffffffffffffffffffffffffffffffff16815260200190815260200160002060006101000a81548160ff0219169083151502179055505050565b61345280612cdf8339019056fe608060405261343f806100136000396000f3fe608060405234801561001057600080fd5b50600436106101425760003560e01c806370a08231116100b8578063a14481941161007c578063a1448194146106b5578063a22cb4651461071b578063aa271e1a1461076b578063b88d4fde146107c7578063c4d66de8146108cc578063e985e9c51461091057610142565b806370a08231146105085780638129fc1c146105605780638832e6e31461056a578063983b2d561461066757806398650275146106ab57610142565b80632f745c591161010a5780632f745c59146102f457806340c10f191461035657806342842e0e146103bc57806342966c681461042a5780634f6ccce7146104585780636352211e1461049a57610142565b806301ffc9a714610147578063081812fc146101ac578063095ea7b31461021a57806318160ddd1461026857806323b872dd14610286575b600080fd5b6101926004803603602081101561015d57600080fd5b8101908080357bffffffffffffffffffffffffffffffffffffffffffffffffffffffff1916906020019092919050505061098c565b604051808215151515815260200191505060405180910390f35b6101d8600480360360208110156101c257600080fd5b81019080803590602001909291905050506109f4565b604051808273ffffffffffffffffffffffffffffffffffffffff1673ffffffffffffffffffffffffffffffffffffffff16815260200191505060405180910390f35b6102666004803603604081101561023057600080fd5b81019080803573ffffffffffffffffffffffffffffffffffffffff16906020019092919080359060200190929190505050610a8f565b005b610270610c76565b6040518082815260200191505060405180910390f35b6102f26004803603606081101561029c57600080fd5b81019080803573ffffffffffffffffffffffffffffffffffffffff169060200190929190803573ffffffffffffffffffffffffffffffffffffffff16906020019092919080359060200190929190505050610c83565b005b6103406004803603604081101561030a57600080fd5b81019080803573ffffffffffffffffffffffffffffffffffffffff16906020019092919080359060200190929190505050610cf9565b6040518082815260200191505060405180910390f35b6103a26004803603604081101561036c57600080fd5b81019080803573ffffffffffffffffffffffffffffffffffffffff16906020019092919080359060200190929190505050610db8565b604051808215151515815260200191505060405180910390f35b610428600480360360608110156103d257600080fd5b81019080803573ffffffffffffffffffffffffffffffffffffffff169060200190929190803573ffffffffffffffffffffffffffffffffffffffff16906020019092919080359060200190929190505050610e33565b005b6104566004803603602081101561044057600080fd5b8101908080359060200190929190505050610e53565b005b6104846004803603602081101561046e57600080fd5b8101908080359060200190929190505050610ec4565b6040518082815260200191505060405180910390f35b6104c6600480360360208110156104b057600080fd5b8101908080359060200190929190505050610f44565b604051808273ffffffffffffffffffffffffffffffffffffffff1673ffffffffffffffffffffffffffffffffffffffff16815260200191505060405180910390f35b61054a6004803603602081101561051e57600080fd5b81019080803573ffffffffffffffffffffffffffffffffffffffff16906020019092919050505061100c565b6040518082815260200191505060405180910390f35b6105686110e1565b005b61064d6004803603606081101561058057600080fd5b81019080803573ffffffffffffffffffffffffffffffffffffffff16906020019092919080359060200190929190803590602001906401000000008111156105c757600080fd5b8201836020820111156105d957600080fd5b803590602001918460018302840111640100000000831117156105fb57600080fd5b91908080601f016020809104026020016040519081016040528093929190818152602001838380828437600081840152601f19601f820116905080830192505050505050509192919290505050611201565b604051808215151515815260200191505060405180910390f35b6106a96004803603602081101561067d57600080fd5b81019080803573ffffffffffffffffffffffffffffffffffffffff16906020019092919050505061127e565b005b6106b36112ef565b005b610701600480360360408110156106cb57600080fd5b81019080803573ffffffffffffffffffffffffffffffffffffffff16906020019092919080359060200190929190505050611301565b604051808215151515815260200191505060405180910390f35b6107696004803603604081101561073157600080fd5b81019080803573ffffffffffffffffffffffffffffffffffffffff16906020019092919080351515906020019092919050505061137c565b005b6107ad6004803603602081101561078157600080fd5b81019080803573ffffffffffffffffffffffffffffffffffffffff169060200190929190505050611534565b604051808215151515815260200191505060405180910390f35b6108ca600480360360808110156107dd57600080fd5b81019080803573ffffffffffffffffffffffffffffffffffffffff169060200190929190803573ffffffffffffffffffffffffffffffffffffffff169060200190929190803590602001909291908035906020019064010000000081111561084457600080fd5b82018360208201111561085657600080fd5b8035906020019184600183028401116401000000008311171561087857600080fd5b91908080601f016020809104026020016040519081016040528093929190818152602001838380828437600081840152601f19601f820116905080830192505050505050509192919290505050611551565b005b61090e600480360360208110156108e257600080fd5b81019080803573ffffffffffffffffffffffffffffffffffffffff1690602001909291905050506115c9565b005b6109726004803603604081101561092657600080fd5b81019080803573ffffffffffffffffffffffffffffffffffffffff169060200190929190803573ffffffffffffffffffffffffffffffffffffffff1690602001909291905050506116e2565b604051808215151515815260200191505060405180910390f35b600060336000837bffffffffffffffffffffffffffffffffffffffffffffffffffffffff19167bffffffffffffffffffffffffffffffffffffffffffffffffffffffff1916815260200190815260200160002060009054906101000a900460ff169050919050565b60006109ff82611776565b610a54576040517f08c379a000000000000000000000000000000000000000000000000000000000815260040180806020018281038252602c8152602001806132c3602c913960400191505060405180910390fd5b6067600083815260200190815260200160002060009054906101000a900473ffffffffffffffffffffffffffffffffffffffff169050919050565b6000610a9a82610f44565b90508073ffffffffffffffffffffffffffffffffffffffff168373ffffffffffffffffffffffffffffffffffffffff161415610b21576040517f08c379a00000000000000000000000000000000000000000000000000000000081526004018080602001828103825260218152602001806133686021913960400191505060405180910390fd5b8073ffffffffffffffffffffffffffffffffffffffff16610b406117e8565b73ffffffffffffffffffffffffffffffffffffffff161480610b6f5750610b6e81610b696117e8565b6116e2565b5b610bc4576040517f08c379a00000000000000000000000000000000000000000000000000000000081526004018080602001828103825260388152602001806131e76038913960400191505060405180910390fd5b826067600084815260200190815260200160002060006101000a81548173ffffffffffffffffffffffffffffffffffffffff021916908373ffffffffffffffffffffffffffffffffffffffff160217905550818373ffffffffffffffffffffffffffffffffffffffff168273ffffffffffffffffffffffffffffffffffffffff167f8c5be1e5ebec7d5bd14f71427d1e84f3dd0314c0f7b2291e5b200ac8c7c3b92560405160405180910390a4505050565b6000609e80549050905090565b610c94610c8e6117e8565b826117f0565b610ce9576040517f08c379a00000000000000000000000000000000000000000000000000000000081526004018080602001828103825260318152602001806133896031913960400191505060405180910390fd5b610cf48383836118e4565b505050565b6000610d048361100c565b8210610d5b576040517f08c379a000000000000000000000000000000000000000000000000000000000815260040180806020018281038252602b81526020018061313a602b913960400191505060405180910390fd5b609c60008473ffffffffffffffffffffffffffffffffffffffff1673ffffffffffffffffffffffffffffffffffffffff1681526020019081526020016000208281548110610da557fe5b9060005260206000200154905092915050565b6000610dca610dc56117e8565b611534565b610e1f576040517f08c379a00000000000000000000000000000000000000000000000000000000081526004018080602001828103825260308152602001806132726030913960400191505060405180910390fd5b610e298383611908565b6001905092915050565b610e4e83838360405180602001604052806000815250611551565b505050565b610e63610e5e6117e8565b611534565b610eb8576040517f08c379a00000000000000000000000000000000000000000000000000000000081526004018080602001828103825260308152602001806132726030913960400191505060405180910390fd5b610ec181611929565b50565b6000610ece610c76565b8210610f25576040517f08c379a000000000000000000000000000000000000000000000000000000000815260040180806020018281038252602c8152602001806133ba602c913960400191505060405180910390fd5b609e8281548110610f3257fe5b90600052602060002001549050919050565b6000806066600084815260200190815260200160002060009054906101000a900473ffffffffffffffffffffffffffffffffffffffff169050600073ffffffffffffffffffffffffffffffffffffffff168173ffffffffffffffffffffffffffffffffffffffff161415611003576040517f08c379a00000000000000000000000000000000000000000000000000000000081526004018080602001828103825260298152602001806132496029913960400191505060405180910390fd5b80915050919050565b60008073ffffffffffffffffffffffffffffffffffffffff168273ffffffffffffffffffffffffffffffffffffffff161415611093576040517f08c379a000000000000000000000000000000000000000000000000000000000815260040180806020018281038252602a81526020018061321f602a913960400191505060405180910390fd5b6110da606860008473ffffffffffffffffffffffffffffffffffffffff1673ffffffffffffffffffffffffffffffffffffffff16815260200190815260200160002061193e565b9050919050565b600060019054906101000a900460ff168061110057506110ff61194c565b5b8061111757506000809054906101000a900460ff16155b61116c576040517f08c379a000000000000000000000000000000000000000000000000000000000815260040180806020018281038252602e815260200180613311602e913960400191505060405180910390fd5b60008060019054906101000a900460ff1615905080156111bc576001600060016101000a81548160ff02191690831515021790555060016000806101000a81548160ff0219169083151502179055505b6111c4611963565b6111cd57600080fd5b6111dd63780e9d6360e01b61197a565b80156111fe5760008060016101000a81548160ff0219169083151502179055505b50565b600061121361120e6117e8565b611534565b611268576040517f08c379a00000000000000000000000000000000000000000000000000000000081526004018080602001828103825260308152602001806132726030913960400191505060405180910390fd5b611273848484611a83565b600190509392505050565b61128e6112896117e8565b611534565b6112e3576040517f08c379a00000000000000000000000000000000000000000000000000000000081526004018080602001828103825260308152602001806132726030913960400191505060405180910390fd5b6112ec81611af4565b50565b6112ff6112fa6117e8565b611b4e565b565b600061131361130e6117e8565b611534565b611368576040517f08c379a00000000000000000000000000000000000000000000000000000000081526004018080602001828103825260308152602001806132726030913960400191505060405180910390fd5b6113728383611ba8565b6001905092915050565b6113846117e8565b73ffffffffffffffffffffffffffffffffffffffff168273ffffffffffffffffffffffffffffffffffffffff161415611425576040517f08c379a00000000000000000000000000000000000000000000000000000000081526004018080602001828103825260198152602001807f4552433732313a20617070726f766520746f2063616c6c65720000000000000081525060200191505060405180910390fd5b80606960006114326117e8565b73ffffffffffffffffffffffffffffffffffffffff1673ffffffffffffffffffffffffffffffffffffffff16815260200190815260200160002060008473ffffffffffffffffffffffffffffffffffffffff1673ffffffffffffffffffffffffffffffffffffffff16815260200190815260200160002060006101000a81548160ff0219169083151502179055508173ffffffffffffffffffffffffffffffffffffffff166114df6117e8565b73ffffffffffffffffffffffffffffffffffffffff167f17307eab39ab6107e8899845ad3d59bd9653f200f220920489ca2b5937696c3183604051808215151515815260200191505060405180910390a35050565b600061154a8260d2611bc690919063ffffffff16565b9050919050565b61156261155c6117e8565b836117f0565b6115b7576040517f08c379a00000000000000000000000000000000000000000000000000000000081526004018080602001828103825260318152602001806133896031913960400191505060405180910390fd5b6115c384848484611ca4565b50505050565b600060019054906101000a900460ff16806115e857506115e761194c565b5b806115ff57506000809054906101000a900460ff16155b611654576040517f08c379a000000000000000000000000000000000000000000000000000000000815260040180806020018281038252602e815260200180613311602e913960400191505060405180910390fd5b60008060019054906101000a900460ff1615905080156116a4576001600060016101000a81548160ff02191690831515021790555060016000806101000a81548160ff0219169083151502179055505b6116ac611d16565b6116b46110e1565b6116bd82611e2d565b80156116de5760008060016101000a81548160ff0219169083151502179055505b5050565b6000606960008473ffffffffffffffffffffffffffffffffffffffff1673ffffffffffffffffffffffffffffffffffffffff16815260200190815260200160002060008373ffffffffffffffffffffffffffffffffffffffff1673ffffffffffffffffffffffffffffffffffffffff16815260200190815260200160002060009054906101000a900460ff16905092915050565b6000806066600084815260200190815260200160002060009054906101000a900473ffffffffffffffffffffffffffffffffffffffff169050600073ffffffffffffffffffffffffffffffffffffffff168173ffffffffffffffffffffffffffffffffffffffff161415915050919050565b600033905090565b60006117fb82611776565b611850576040517f08c379a000000000000000000000000000000000000000000000000000000000815260040180806020018281038252602c8152602001806131bb602c913960400191505060405180910390fd5b600061185b83610f44565b90508073ffffffffffffffffffffffffffffffffffffffff168473ffffffffffffffffffffffffffffffffffffffff1614806118ca57508373ffffffffffffffffffffffffffffffffffffffff166118b2846109f4565b73ffffffffffffffffffffffffffffffffffffffff16145b806118db57506118da81856116e2565b5b91505092915050565b6118ef838383611f47565b6118f983826121a2565b6119038282612340565b505050565b6119128282612407565b61191c8282612340565b6119258161261f565b5050565b61193b61193582610f44565b8261266b565b50565b600081600001549050919050565b6000803090506000813b9050600081149250505090565b60006119756380ac58cd60e01b61098c565b905090565b63ffffffff60e01b817bffffffffffffffffffffffffffffffffffffffffffffffffffffffff19161415611a16576040517f08c379a000000000000000000000000000000000000000000000000000000000815260040180806020018281038252601c8152602001807f4552433136353a20696e76616c696420696e746572666163652069640000000081525060200191505060405180910390fd5b600160336000837bffffffffffffffffffffffffffffffffffffffffffffffffffffffff19167bffffffffffffffffffffffffffffffffffffffffffffffffffffffff1916815260200190815260200160002060006101000a81548160ff02191690831515021790555050565b611a8d8383611908565b611a9a60008484846126a5565b611aef576040517f08c379a00000000000000000000000000000000000000000000000000000000081526004018080602001828103825260328152602001806131656032913960400191505060405180910390fd5b505050565b611b088160d261289590919063ffffffff16565b8073ffffffffffffffffffffffffffffffffffffffff167f6ae172837ea30b801fbfcdd4108aa1d5bf8ff775444fd70256b44e6bf3dfc3f660405160405180910390a250565b611b628160d261297090919063ffffffff16565b8073ffffffffffffffffffffffffffffffffffffffff167fe94479a9f7e1952cc78f2d6baab678adc1b772d936c6583def489e524cb6669260405160405180910390a250565b611bc2828260405180602001604052806000815250611a83565b5050565b60008073ffffffffffffffffffffffffffffffffffffffff168273ffffffffffffffffffffffffffffffffffffffff161415611c4d576040517f08c379a00000000000000000000000000000000000000000000000000000000081526004018080602001828103825260228152602001806132ef6022913960400191505060405180910390fd5b8260000160008373ffffffffffffffffffffffffffffffffffffffff1673ffffffffffffffffffffffffffffffffffffffff16815260200190815260200160002060009054906101000a900460ff16905092915050565b611caf8484846118e4565b611cbb848484846126a5565b611d10576040517f08c379a00000000000000000000000000000000000000000000000000000000081526004018080602001828103825260328152602001806131656032913960400191505060405180910390fd5b50505050565b600060019054906101000a900460ff1680611d355750611d3461194c565b5b80611d4c57506000809054906101000a900460ff16155b611da1576040517f08c379a000000000000000000000000000000000000000000000000000000000815260040180806020018281038252602e815260200180613311602e913960400191505060405180910390fd5b60008060019054906101000a900460ff161590508015611df1576001600060016101000a81548160ff02191690831515021790555060016000806101000a81548160ff0219169083151502179055505b611df9612a2d565b611e096380ac58cd60e01b61197a565b8015611e2a5760008060016101000a81548160ff0219169083151502179055505b50565b600060019054906101000a900460ff1680611e4c5750611e4b61194c565b5b80611e6357506000809054906101000a900460ff16155b611eb8576040517f08c379a000000000000000000000000000000000000000000000000000000000815260040180806020018281038252602e815260200180613311602e913960400191505060405180910390fd5b60008060019054906101000a900460ff161590508015611f08576001600060016101000a81548160ff02191690831515021790555060016000806101000a81548160ff0219169083151502179055505b611f10611963565b611f1957600080fd5b611f2282612b3c565b8015611f435760008060016101000a81548160ff0219169083151502179055505b5050565b8273ffffffffffffffffffffffffffffffffffffffff16611f6782610f44565b73ffffffffffffffffffffffffffffffffffffffff1614611fd3576040517f08c379a000000000000000000000000000000000000000000000000000000000815260040180806020018281038252602981526020018061333f6029913960400191505060405180910390fd5b600073ffffffffffffffffffffffffffffffffffffffff168273ffffffffffffffffffffffffffffffffffffffff161415612059576040517f08c379a00000000000000000000000000000000000000000000000000000000081526004018080602001828103825260248152602001806131976024913960400191505060405180910390fd5b61206281612c53565b6120a9606860008573ffffffffffffffffffffffffffffffffffffffff1673ffffffffffffffffffffffffffffffffffffffff168152602001908152602001600020612d11565b6120f0606860008473ffffffffffffffffffffffffffffffffffffffff1673ffffffffffffffffffffffffffffffffffffffff168152602001908152602001600020612d34565b816066600083815260200190815260200160002060006101000a81548173ffffffffffffffffffffffffffffffffffffffff021916908373ffffffffffffffffffffffffffffffffffffffff160217905550808273ffffffffffffffffffffffffffffffffffffffff168473ffffffffffffffffffffffffffffffffffffffff167fddf252ad1be2c89b69c2b068fc378daa952ba7f163c4a11628f55a4df523b3ef60405160405180910390a4505050565b60006121fa6001609c60008673ffffffffffffffffffffffffffffffffffffffff1673ffffffffffffffffffffffffffffffffffffffff16815260200190815260200160002080549050612d4a90919063ffffffff16565b90506000609d60008481526020019081526020016000205490508181146122e7576000609c60008673ffffffffffffffffffffffffffffffffffffffff1673ffffffffffffffffffffffffffffffffffffffff168152602001908152602001600020838154811061226757fe5b9060005260206000200154905080609c60008773ffffffffffffffffffffffffffffffffffffffff1673ffffffffffffffffffffffffffffffffffffffff16815260200190815260200160002083815481106122bf57fe5b906000526020600020018190555081609d600083815260200190815260200160002081905550505b609c60008573ffffffffffffffffffffffffffffffffffffffff1673ffffffffffffffffffffffffffffffffffffffff16815260200190815260200160002080548091906001900361233991906130e8565b5050505050565b609c60008373ffffffffffffffffffffffffffffffffffffffff1673ffffffffffffffffffffffffffffffffffffffff16815260200190815260200160002080549050609d600083815260200190815260200160002081905550609c60008373ffffffffffffffffffffffffffffffffffffffff1673ffffffffffffffffffffffffffffffffffffffff1681526020019081526020016000208190806001815401808255809150509060018203906000526020600020016000909192909190915055505050565b600073ffffffffffffffffffffffffffffffffffffffff168273ffffffffffffffffffffffffffffffffffffffff1614156124aa576040517f08c379a00000000000000000000000000000000000000000000000000000000081526004018080602001828103825260208152602001807f4552433732313a206d696e7420746f20746865207a65726f206164647265737381525060200191505060405180910390fd5b6124b381611776565b15612526576040517f08c379a000000000000000000000000000000000000000000000000000000000815260040180806020018281038252601c8152602001807f4552433732313a20746f6b656e20616c7265616479206d696e7465640000000081525060200191505060405180910390fd5b816066600083815260200190815260200160002060006101000a81548173ffffffffffffffffffffffffffffffffffffffff021916908373ffffffffffffffffffffffffffffffffffffffff1602179055506125bf606860008473ffffffffffffffffffffffffffffffffffffffff1673ffffffffffffffffffffffffffffffffffffffff168152602001908152602001600020612d34565b808273ffffffffffffffffffffffffffffffffffffffff16600073ffffffffffffffffffffffffffffffffffffffff167fddf252ad1be2c89b69c2b068fc378daa952ba7f163c4a11628f55a4df523b3ef60405160405180910390a45050565b609e80549050609f600083815260200190815260200160002081905550609e81908060018154018082558091505090600182039060005260206000200160009091929091909150555050565b6126758282612d94565b61267f82826121a2565b6000609d6000838152602001908152602001600020819055506126a181612f23565b5050565b60006126c68473ffffffffffffffffffffffffffffffffffffffff16612fdd565b6126d3576001905061288d565b60008473ffffffffffffffffffffffffffffffffffffffff1663150b7a026126f96117e8565b8887876040518563ffffffff1660e01b8152600401808573ffffffffffffffffffffffffffffffffffffffff1673ffffffffffffffffffffffffffffffffffffffff1681526020018473ffffffffffffffffffffffffffffffffffffffff1673ffffffffffffffffffffffffffffffffffffffff16815260200183815260200180602001828103825283818151815260200191508051906020019080838360005b838110156127b557808201518184015260208101905061279a565b50505050905090810190601f1680156127e25780820380516001836020036101000a031916815260200191505b5095505050505050602060405180830381600087803b15801561280457600080fd5b505af1158015612818573d6000803e3d6000fd5b505050506040513d602081101561282e57600080fd5b8101908080519060200190929190505050905063150b7a0260e01b7bffffffffffffffffffffffffffffffffffffffffffffffffffffffff1916817bffffffffffffffffffffffffffffffffffffffffffffffffffffffff1916149150505b949350505050565b61289f8282611bc6565b15612912576040517f08c379a000000000000000000000000000000000000000000000000000000000815260040180806020018281038252601f8152602001807f526f6c65733a206163636f756e7420616c72656164792068617320726f6c650081525060200191505060405180910390fd5b60018260000160008373ffffffffffffffffffffffffffffffffffffffff1673ffffffffffffffffffffffffffffffffffffffff16815260200190815260200160002060006101000a81548160ff0219169083151502179055505050565b61297a8282611bc6565b6129cf576040517f08c379a00000000000000000000000000000000000000000000000000000000081526004018080602001828103825260218152602001806132a26021913960400191505060405180910390fd5b60008260000160008373ffffffffffffffffffffffffffffffffffffffff1673ffffffffffffffffffffffffffffffffffffffff16815260200190815260200160002060006101000a81548160ff0219169083151502179055505050565b600060019054906101000a900460ff1680612a4c5750612a4b61194c565b5b80612a6357506000809054906101000a900460ff16155b612ab8576040517f08c379a000000000000000000000000000000000000000000000000000000000815260040180806020018281038252602e815260200180613311602e913960400191505060405180910390fd5b60008060019054906101000a900460ff161590508015612b08576001600060016101000a81548160ff02191690831515021790555060016000806101000a81548160ff0219169083151502179055505b612b186301ffc9a760e01b61197a565b8015612b395760008060016101000a81548160ff0219169083151502179055505b50565b600060019054906101000a900460ff1680612b5b5750612b5a61194c565b5b80612b7257506000809054906101000a900460ff16155b612bc7576040517f08c379a000000000000000000000000000000000000000000000000000000000815260040180806020018281038252602e815260200180613311602e913960400191505060405180910390fd5b60008060019054906101000a900460ff161590508015612c17576001600060016101000a81548160ff02191690831515021790555060016000806101000a81548160ff0219169083151502179055505b612c2082611534565b612c2e57612c2d82611af4565b5b8015612c4f5760008060016101000a81548160ff0219169083151502179055505b5050565b600073ffffffffffffffffffffffffffffffffffffffff166067600083815260200190815260200160002060009054906101000a900473ffffffffffffffffffffffffffffffffffffffff1673ffffffffffffffffffffffffffffffffffffffff1614612d0e5760006067600083815260200190815260200160002060006101000a81548173ffffffffffffffffffffffffffffffffffffffff021916908373ffffffffffffffffffffffffffffffffffffffff1602179055505b50565b612d2960018260000154612d4a90919063ffffffff16565b816000018190555050565b6001816000016000828254019250508190555050565b6000612d8c83836040518060400160405280601e81526020017f536166654d6174683a207375627472616374696f6e206f766572666c6f770000815250613028565b905092915050565b8173ffffffffffffffffffffffffffffffffffffffff16612db482610f44565b73ffffffffffffffffffffffffffffffffffffffff1614612e20576040517f08c379a00000000000000000000000000000000000000000000000000000000081526004018080602001828103825260258152602001806133e66025913960400191505060405180910390fd5b612e2981612c53565b612e70606860008473ffffffffffffffffffffffffffffffffffffffff1673ffffffffffffffffffffffffffffffffffffffff168152602001908152602001600020612d11565b60006066600083815260200190815260200160002060006101000a81548173ffffffffffffffffffffffffffffffffffffffff021916908373ffffffffffffffffffffffffffffffffffffffff16021790555080600073ffffffffffffffffffffffffffffffffffffffff168373ffffffffffffffffffffffffffffffffffffffff167fddf252ad1be2c89b69c2b068fc378daa952ba7f163c4a11628f55a4df523b3ef60405160405180910390a45050565b6000612f3e6001609e80549050612d4a90919063ffffffff16565b90506000609f60008481526020019081526020016000205490506000609e8381548110612f6757fe5b9060005260206000200154905080609e8381548110612f8257fe5b906000526020600020018190555081609f600083815260200190815260200160002081905550609e805480919060019003612fbd91906130e8565b506000609f60008681526020019081526020016000208190555050505050565b60008060007fc5d2460186f7233c927e7db2dcc703c0e500b653ca82273b7bfad8045d85a47060001b9050833f91506000801b821415801561301f5750808214155b92505050919050565b60008383111582906130d5576040517f08c379a00000000000000000000000000000000000000000000000000000000081526004018080602001828103825283818151815260200191508051906020019080838360005b8381101561309a57808201518184015260208101905061307f565b50505050905090810190601f1680156130c75780820380516001836020036101000a031916815260200191505b509250505060405180910390fd5b5060008385039050809150509392505050565b81548183558181111561310f5781836000526020600020918201910161310e9190613114565b5b505050565b61313691905b8082111561313257600081600090555060010161311a565b5090565b9056fe455243373231456e756d657261626c653a206f776e657220696e646578206f7574206f6620626f756e64734552433732313a207472616e7366657220746f206e6f6e20455243373231526563656976657220696d706c656d656e7465724552433732313a207472616e7366657220746f20746865207a65726f20616464726573734552433732313a206f70657261746f7220717565727920666f72206e6f6e6578697374656e7420746f6b656e4552433732313a20617070726f76652063616c6c6572206973206e6f74206f776e6572206e6f7220617070726f76656420666f7220616c6c4552433732313a2062616c616e636520717565727920666f7220746865207a65726f20616464726573734552433732313a206f776e657220717565727920666f72206e6f6e6578697374656e7420746f6b656e4d696e746572526f6c653a2063616c6c657220646f6573206e6f74206861766520746865204d696e74657220726f6c65526f6c65733a206163636f756e7420646f6573206e6f74206861766520726f6c654552433732313a20617070726f76656420717565727920666f72206e6f6e6578697374656e7420746f6b656e526f6c65733a206163636f756e7420697320746865207a65726f2061646472657373436f6e747261637420696e7374616e63652068617320616c7265616479206265656e20696e697469616c697a65644552433732313a207472616e73666572206f6620746f6b656e2074686174206973206e6f74206f776e4552433732313a20617070726f76616c20746f2063757272656e74206f776e65724552433732313a207472616e736665722063616c6c6572206973206e6f74206f776e6572206e6f7220617070726f766564455243373231456e756d657261626c653a20676c6f62616c20696e646578206f7574206f6620626f756e64734552433732313a206275726e206f6620746f6b656e2074686174206973206e6f74206f776ea265627a7a723158201b9d42efc5680ee168a6610e27e6f692282ca86bbb23c2ac7b3da22c73bae4aa64736f6c6343000510003245524332303a207472616e7366657220746f20746865207a65726f206164647265737345524332303a20617070726f766520746f20746865207a65726f206164647265737345524332303a207472616e7366657220616d6f756e7420657863656564732062616c616e63654d696e746572526f6c653a2063616c6c657220646f6573206e6f74206861766520746865204d696e74657220726f6c65526f6c65733a206163636f756e7420646f6573206e6f74206861766520726f6c65536166654d6174683a206d756c7469706c69636174696f6e206f766572666c6f7745524332303a207472616e7366657220616d6f756e74206578636565647320616c6c6f77616e63654d75737420636c61696d20616c6c20746f6b656e73206265666f7265206275726e526f6c65733a206163636f756e7420697320746865207a65726f206164647265737353656e64657220646f6573206e6f74206f776e207072656665727265642073686172652e436f6e747261637420696e7374616e63652068617320616c7265616479206265656e20696e697469616c697a656445524332303a207472616e736665722066726f6d20746865207a65726f206164647265737345524332303a20617070726f76652066726f6d20746865207a65726f206164647265737345524332303a2064656372656173656420616c6c6f77616e63652062656c6f77207a65726fa265627a7a723158203a0b9c39b7df34be7e3de450941e6beaef54f1c2502822298598f24cfb7a838b64736f6c63430005100032",
  "compiler": {
    "name": "solc",
    "version": "0.5.16+commit.9c3226ce.Emscripten.clang",
    "optimizer": {
      "enabled": false,
      "runs": 200
    },
    "evmVersion": "petersburg"
  }
}