{
  "fileName": "ORM.sol",
  "contractName": "ORM",
  "source": "pragma solidity ^0.5.0;\n\nimport \"@openzeppelin/contracts/utils/EnumerableSet.sol\";\nimport \"./utils/EnumerableBytes32Set.sol\";\nimport \"./OracleExternal.sol\";\n\ncontract ORM is OracleExternal {\n    using EnumerableSet for EnumerableSet.AddressSet;\n    using EnumerableBytes32Set for EnumerableBytes32Set.Bytes32Set;\n\n    //Events\n    event SubscribeChannel(address indexed user, address indexed channel);\n    event LikeVideo(address indexed user, address indexed channel, bytes32 indexed video);\n\n    //Sets\n    EnumerableSet.AddressSet private users;\n    EnumerableSet.AddressSet private channels;\n    EnumerableBytes32Set.Bytes32Set private videos;\n\n    //Base Metadata\n    mapping(address => bytes32) public UserIDs;\n    mapping(address => bytes32) public ChannelIDs;\n\n    //Relationship Mapping\n    mapping(address => EnumerableSet.AddressSet) private UserSubscriptions;\n    mapping(address => EnumerableSet.AddressSet) private ChannelSubscribers;\n    mapping(address => EnumerableBytes32Set.Bytes32Set) private ChannelVideos;\n    mapping(bytes32 => EnumerableSet.AddressSet) private VideoLikes;\n    mapping(bytes32 => address) private VideoChannel;\n\n    //Users\n    function addUsers(address[] calldata _users, bytes32[] calldata _userIDs) external onlyAuthorizedNode {\n        require(_users.length == _userIDs.length, \"Error arrays don't match\");\n\n        for (uint256 i = 0; i < _users.length; i++) {\n            _addUser(_users[i], _userIDs[i]);\n        }\n    }\n\n    function _addUser(address _user, bytes32 _userID) internal {\n        users.add(_user);\n        UserIDs[_user] = _userID;\n    }\n\n    //Channels\n    function addChannels(address[] calldata _channels, bytes32[] calldata _channelIDs) external onlyAuthorizedNode {\n        require(_channels.length == _channelIDs.length, \"Error arrays don't match\");\n\n        for (uint256 i = 0; i < _channels.length; i++) {\n            _addChannel(_channels[i], _channelIDs[i]);\n        }\n    }\n\n    function _addChannel(address _channel, bytes32 _channelID) internal {\n        channels.add(_channel);\n        ChannelIDs[_channel] = _channelID;\n    }\n\n    //Videos\n    function addVideos(address[] calldata _channels, bytes32[] calldata _videoIDs) external onlyAuthorizedNode {\n        require(_channels.length == _videoIDs.length, \"Error arrays don't match\");\n\n        for (uint256 i = 0; i < _channels.length; i++) {\n            _addVideo(_channels[i], _videoIDs[i]);\n        }\n    }\n\n    function _addVideo(address _channel, bytes32 _videoID) internal {\n        videos.add(_videoID);\n        VideoChannel[_videoID] = _channel;\n        ChannelVideos[_channel].add(_videoID);\n    }\n\n\n    //Subscriptions\n    function subscribeToChannels(address[] calldata _users, address[] calldata _channels) external onlyAuthorizedNode {\n        require(_users.length == _channels.length, \"Error arrays don't match\");\n\n        for (uint256 i = 0; i < _users.length; i++) {\n            _subscribeToChannel(_users[i], _channels[i]);\n        }\n    }\n\n    function _subscribeToChannel(address _user, address _channel) internal {\n        UserSubscriptions[_user].add(_channel);\n        ChannelSubscribers[_channel].add(_user);\n        emit SubscribeChannel(_user, _channel);\n    }\n\n    //Likes\n    function likeVideos(address[] calldata _users, bytes32[] calldata _videoIDs) external onlyAuthorizedNode {\n        require(_users.length == _videoIDs.length, \"Error arrays don't match\");\n\n        for (uint256 i = 0; i < _users.length; i++) {\n            _likeVideo(_users[i], _videoIDs[i]);\n        }\n    }\n\n    function _likeVideo(address _user, bytes32 _videoID) internal {\n        address channel = VideoChannel[_videoID];\n        require(channel != address(0), \"Video does not have channel.\");\n\n        VideoLikes[_videoID].add(_user);\n        emit LikeVideo(_user, channel, _videoID);\n    }\n\n\n    // Modifiers\n    modifier onlyUser() {\n        require(users.contains(msg.sender) || msg.sender == owner(), \"Not an authorized user to fulfill requests\");\n    _;\n    }\n\n    modifier onlyChannel() {\n        require(channels.contains(msg.sender) || msg.sender == owner(), \"Not an authorized channel to fulfill requests\");\n    _;\n    }\n}",
  "sourcePath": "contracts/ORM.sol",
  "abi": [
    {
      "anonymous": false,
      "inputs": [
        {
          "indexed": true,
          "internalType": "address",
          "name": "user",
          "type": "address"
        },
        {
          "indexed": true,
          "internalType": "address",
          "name": "channel",
          "type": "address"
        },
        {
          "indexed": true,
          "internalType": "bytes32",
          "name": "video",
          "type": "bytes32"
        }
      ],
      "name": "LikeVideo",
      "type": "event"
    },
    {
      "anonymous": false,
      "inputs": [
        {
          "indexed": true,
          "internalType": "address",
          "name": "previousOwner",
          "type": "address"
        },
        {
          "indexed": true,
          "internalType": "address",
          "name": "newOwner",
          "type": "address"
        }
      ],
      "name": "OwnershipTransferred",
      "type": "event"
    },
    {
      "anonymous": false,
      "inputs": [
        {
          "indexed": true,
          "internalType": "address",
          "name": "user",
          "type": "address"
        },
        {
          "indexed": true,
          "internalType": "address",
          "name": "channel",
          "type": "address"
        }
      ],
      "name": "SubscribeChannel",
      "type": "event"
    },
    {
      "constant": true,
      "inputs": [
        {
          "internalType": "address",
          "name": "",
          "type": "address"
        }
      ],
      "name": "ChannelIDs",
      "outputs": [
        {
          "internalType": "bytes32",
          "name": "",
          "type": "bytes32"
        }
      ],
      "payable": false,
      "stateMutability": "view",
      "type": "function"
    },
    {
      "constant": true,
      "inputs": [
        {
          "internalType": "address",
          "name": "",
          "type": "address"
        }
      ],
      "name": "UserIDs",
      "outputs": [
        {
          "internalType": "bytes32",
          "name": "",
          "type": "bytes32"
        }
      ],
      "payable": false,
      "stateMutability": "view",
      "type": "function"
    },
    {
      "constant": false,
      "inputs": [
        {
          "internalType": "address[]",
          "name": "_channels",
          "type": "address[]"
        },
        {
          "internalType": "bytes32[]",
          "name": "_channelIDs",
          "type": "bytes32[]"
        }
      ],
      "name": "addChannels",
      "outputs": [],
      "payable": false,
      "stateMutability": "nonpayable",
      "type": "function"
    },
    {
      "constant": false,
      "inputs": [
        {
          "internalType": "address[]",
          "name": "_users",
          "type": "address[]"
        },
        {
          "internalType": "bytes32[]",
          "name": "_userIDs",
          "type": "bytes32[]"
        }
      ],
      "name": "addUsers",
      "outputs": [],
      "payable": false,
      "stateMutability": "nonpayable",
      "type": "function"
    },
    {
      "constant": false,
      "inputs": [
        {
          "internalType": "address[]",
          "name": "_channels",
          "type": "address[]"
        },
        {
          "internalType": "bytes32[]",
          "name": "_videoIDs",
          "type": "bytes32[]"
        }
      ],
      "name": "addVideos",
      "outputs": [],
      "payable": false,
      "stateMutability": "nonpayable",
      "type": "function"
    },
    {
      "constant": true,
      "inputs": [
        {
          "internalType": "address",
          "name": "",
          "type": "address"
        }
      ],
      "name": "authorizedNodes",
      "outputs": [
        {
          "internalType": "bool",
          "name": "",
          "type": "bool"
        }
      ],
      "payable": false,
      "stateMutability": "view",
      "type": "function"
    },
    {
      "constant": false,
      "inputs": [
        {
          "internalType": "address",
          "name": "_callbackAddress",
          "type": "address"
        },
        {
          "internalType": "bytes4",
          "name": "_callbackFunctionId",
          "type": "bytes4"
        },
        {
          "internalType": "bytes",
          "name": "_data",
          "type": "bytes"
        }
      ],
      "name": "fulfillExternalRequest",
      "outputs": [
        {
          "internalType": "bool",
          "name": "",
          "type": "bool"
        }
      ],
      "payable": false,
      "stateMutability": "nonpayable",
      "type": "function"
    },
    {
      "constant": true,
      "inputs": [
        {
          "internalType": "address",
          "name": "_node",
          "type": "address"
        }
      ],
      "name": "getAuthorizationStatus",
      "outputs": [
        {
          "internalType": "bool",
          "name": "",
          "type": "bool"
        }
      ],
      "payable": false,
      "stateMutability": "view",
      "type": "function"
    },
    {
      "constant": false,
      "inputs": [
        {
          "internalType": "address",
          "name": "sender",
          "type": "address"
        }
      ],
      "name": "initialize",
      "outputs": [],
      "payable": false,
      "stateMutability": "nonpayable",
      "type": "function"
    },
    {
      "constant": true,
      "inputs": [],
      "name": "isOwner",
      "outputs": [
        {
          "internalType": "bool",
          "name": "",
          "type": "bool"
        }
      ],
      "payable": false,
      "stateMutability": "view",
      "type": "function"
    },
    {
      "constant": false,
      "inputs": [
        {
          "internalType": "address[]",
          "name": "_users",
          "type": "address[]"
        },
        {
          "internalType": "bytes32[]",
          "name": "_videoIDs",
          "type": "bytes32[]"
        }
      ],
      "name": "likeVideos",
      "outputs": [],
      "payable": false,
      "stateMutability": "nonpayable",
      "type": "function"
    },
    {
      "constant": true,
      "inputs": [],
      "name": "owner",
      "outputs": [
        {
          "internalType": "address",
          "name": "",
          "type": "address"
        }
      ],
      "payable": false,
      "stateMutability": "view",
      "type": "function"
    },
    {
      "constant": false,
      "inputs": [],
      "name": "renounceOwnership",
      "outputs": [],
      "payable": false,
      "stateMutability": "nonpayable",
      "type": "function"
    },
    {
      "constant": false,
      "inputs": [
        {
          "internalType": "address",
          "name": "_node",
          "type": "address"
        },
        {
          "internalType": "bool",
          "name": "_allowed",
          "type": "bool"
        }
      ],
      "name": "setFulfillmentPermission",
      "outputs": [],
      "payable": false,
      "stateMutability": "nonpayable",
      "type": "function"
    },
    {
      "constant": false,
      "inputs": [
        {
          "internalType": "address[]",
          "name": "_users",
          "type": "address[]"
        },
        {
          "internalType": "address[]",
          "name": "_channels",
          "type": "address[]"
        }
      ],
      "name": "subscribeToChannels",
      "outputs": [],
      "payable": false,
      "stateMutability": "nonpayable",
      "type": "function"
    },
    {
      "constant": false,
      "inputs": [
        {
          "internalType": "address",
          "name": "newOwner",
          "type": "address"
        }
      ],
      "name": "transferOwnership",
      "outputs": [],
      "payable": false,
      "stateMutability": "nonpayable",
      "type": "function"
    }
  ],
  "bytecode": "0x60806040526120e0806100136000396000f3fe608060405234801561001057600080fd5b50600436106101005760003560e01c80638da5cb5b11610097578063caeaa43e11610066578063caeaa43e1461065f578063d3e9c3141461072d578063e38a2ae214610789578063f2fde38b1461085757610100565b80638da5cb5b146104e15780638f32d59b1461052b578063b5dd42881461054d578063c4d66de81461061b57610100565b806359eed7d9116100d357806359eed7d914610351578063715018a61461042b5780637e53a740146104355780637fcd56db1461049157610100565b806319d9bb1414610105578063268e6ace1461015d5780633ecbb3591461022b578063531816df146102f9575b600080fd5b6101476004803603602081101561011b57600080fd5b81019080803573ffffffffffffffffffffffffffffffffffffffff16906020019092919050505061089b565b6040518082815260200191505060405180910390f35b6102296004803603604081101561017357600080fd5b810190808035906020019064010000000081111561019057600080fd5b8201836020820111156101a257600080fd5b803590602001918460208302840111640100000000831117156101c457600080fd5b9091929391929390803590602001906401000000008111156101e557600080fd5b8201836020820111156101f757600080fd5b8035906020019184602083028401116401000000008311171561021957600080fd5b90919293919293905050506108b3565b005b6102f76004803603604081101561024157600080fd5b810190808035906020019064010000000081111561025e57600080fd5b82018360208201111561027057600080fd5b8035906020019184602083028401116401000000008311171561029257600080fd5b9091929391929390803590602001906401000000008111156102b357600080fd5b8201836020820111156102c557600080fd5b803590602001918460208302840111640100000000831117156102e757600080fd5b9091929391929390505050610a76565b005b61033b6004803603602081101561030f57600080fd5b81019080803573ffffffffffffffffffffffffffffffffffffffff169060200190929190505050610c39565b6040518082815260200191505060405180910390f35b6104116004803603606081101561036757600080fd5b81019080803573ffffffffffffffffffffffffffffffffffffffff16906020019092919080357bffffffffffffffffffffffffffffffffffffffffffffffffffffffff19169060200190929190803590602001906401000000008111156103cd57600080fd5b8201836020820111156103df57600080fd5b8035906020019184600183028401116401000000008311171561040157600080fd5b9091929391929390505050610c51565b604051808215151515815260200191505060405180910390f35b610433610e90565b005b6104776004803603602081101561044b57600080fd5b81019080803573ffffffffffffffffffffffffffffffffffffffff169060200190929190505050610fcb565b604051808215151515815260200191505060405180910390f35b6104df600480360360408110156104a757600080fd5b81019080803573ffffffffffffffffffffffffffffffffffffffff169060200190929190803515159060200190929190505050610feb565b005b6104e96110c0565b604051808273ffffffffffffffffffffffffffffffffffffffff1673ffffffffffffffffffffffffffffffffffffffff16815260200191505060405180910390f35b6105336110ea565b604051808215151515815260200191505060405180910390f35b6106196004803603604081101561056357600080fd5b810190808035906020019064010000000081111561058057600080fd5b82018360208201111561059257600080fd5b803590602001918460208302840111640100000000831117156105b457600080fd5b9091929391929390803590602001906401000000008111156105d557600080fd5b8201836020820111156105e757600080fd5b8035906020019184602083028401116401000000008311171561060957600080fd5b9091929391929390505050611149565b005b61065d6004803603602081101561063157600080fd5b81019080803573ffffffffffffffffffffffffffffffffffffffff169060200190929190505050611322565b005b61072b6004803603604081101561067557600080fd5b810190808035906020019064010000000081111561069257600080fd5b8201836020820111156106a457600080fd5b803590602001918460208302840111640100000000831117156106c657600080fd5b9091929391929390803590602001906401000000008111156106e757600080fd5b8201836020820111156106f957600080fd5b8035906020019184602083028401116401000000008311171561071b57600080fd5b90919293919293905050506114e0565b005b61076f6004803603602081101561074357600080fd5b81019080803573ffffffffffffffffffffffffffffffffffffffff1690602001909291905050506116a3565b604051808215151515815260200191505060405180910390f35b6108556004803603604081101561079f57600080fd5b81019080803590602001906401000000008111156107bc57600080fd5b8201836020820111156107ce57600080fd5b803590602001918460208302840111640100000000831117156107f057600080fd5b90919293919293908035906020019064010000000081111561081157600080fd5b82018360208201111561082357600080fd5b8035906020019184602083028401116401000000008311171561084557600080fd5b90919293919293905050506116f9565b005b6108996004803603602081101561086d57600080fd5b81019080803573ffffffffffffffffffffffffffffffffffffffff1690602001909291905050506118bc565b005b60a06020528060005260406000206000915090505481565b606660003373ffffffffffffffffffffffffffffffffffffffff1673ffffffffffffffffffffffffffffffffffffffff16815260200190815260200160002060009054906101000a900460ff168061093d575061090e6110c0565b73ffffffffffffffffffffffffffffffffffffffff163373ffffffffffffffffffffffffffffffffffffffff16145b610992576040517f08c379a000000000000000000000000000000000000000000000000000000000815260040180806020018281038252602a815260200180612054602a913960400191505060405180910390fd5b818190508484905014610a0d576040517f08c379a00000000000000000000000000000000000000000000000000000000081526004018080602001828103825260188152602001807f4572726f722061727261797320646f6e2774206d61746368000000000000000081525060200191505060405180910390fd5b60008090505b84849050811015610a6f57610a62858583818110610a2d57fe5b9050602002013573ffffffffffffffffffffffffffffffffffffffff16848484818110610a5657fe5b90506020020135611942565b8080600101915050610a13565b5050505050565b606660003373ffffffffffffffffffffffffffffffffffffffff1673ffffffffffffffffffffffffffffffffffffffff16815260200190815260200160002060009054906101000a900460ff1680610b005750610ad16110c0565b73ffffffffffffffffffffffffffffffffffffffff163373ffffffffffffffffffffffffffffffffffffffff16145b610b55576040517f08c379a000000000000000000000000000000000000000000000000000000000815260040180806020018281038252602a815260200180612054602a913960400191505060405180910390fd5b818190508484905014610bd0576040517f08c379a00000000000000000000000000000000000000000000000000000000081526004018080602001828103825260188152602001807f4572726f722061727261797320646f6e2774206d61746368000000000000000081525060200191505060405180910390fd5b60008090505b84849050811015610c3257610c25858583818110610bf057fe5b9050602002013573ffffffffffffffffffffffffffffffffffffffff16848484818110610c1957fe5b905060200201356119ff565b8080600101915050610bd6565b5050505050565b609f6020528060005260406000206000915090505481565b6000606660003373ffffffffffffffffffffffffffffffffffffffff1673ffffffffffffffffffffffffffffffffffffffff16815260200190815260200160002060009054906101000a900460ff1680610cdd5750610cae6110c0565b73ffffffffffffffffffffffffffffffffffffffff163373ffffffffffffffffffffffffffffffffffffffff16145b610d32576040517f08c379a000000000000000000000000000000000000000000000000000000000815260040180806020018281038252602a815260200180612054602a913960400191505060405180910390fd5b60008573ffffffffffffffffffffffffffffffffffffffff1685858560405160240180806020018281038252848482818152602001925080828437600081840152601f19601f8201169050808301925050509350505050604051602081830303815290604052907bffffffffffffffffffffffffffffffffffffffffffffffffffffffff19166020820180517bffffffffffffffffffffffffffffffffffffffffffffffffffffffff83818316178352505050506040518082805190602001908083835b60208310610e195780518252602082019150602081019050602083039250610df6565b6001836020036101000a0380198251168184511680821785525050505050509050019150506000604051808303816000865af19150503d8060008114610e7b576040519150601f19603f3d011682016040523d82523d6000602084013e610e80565b606091505b5050905080915050949350505050565b610e986110ea565b610f0a576040517f08c379a00000000000000000000000000000000000000000000000000000000081526004018080602001828103825260208152602001807f4f776e61626c653a2063616c6c6572206973206e6f7420746865206f776e657281525060200191505060405180910390fd5b600073ffffffffffffffffffffffffffffffffffffffff16603360009054906101000a900473ffffffffffffffffffffffffffffffffffffffff1673ffffffffffffffffffffffffffffffffffffffff167f8be0079c531659141344cd1fd0a4f28419497f9722a3daafe3b4186f6b6457e060405160405180910390a36000603360006101000a81548173ffffffffffffffffffffffffffffffffffffffff021916908373ffffffffffffffffffffffffffffffffffffffff160217905550565b60666020528060005260406000206000915054906101000a900460ff1681565b610ff36110ea565b611065576040517f08c379a00000000000000000000000000000000000000000000000000000000081526004018080602001828103825260208152602001807f4f776e61626c653a2063616c6c6572206973206e6f7420746865206f776e657281525060200191505060405180910390fd5b80606660008473ffffffffffffffffffffffffffffffffffffffff1673ffffffffffffffffffffffffffffffffffffffff16815260200190815260200160002060006101000a81548160ff0219169083151502179055505050565b6000603360009054906101000a900473ffffffffffffffffffffffffffffffffffffffff16905090565b6000603360009054906101000a900473ffffffffffffffffffffffffffffffffffffffff1673ffffffffffffffffffffffffffffffffffffffff1661112d611b60565b73ffffffffffffffffffffffffffffffffffffffff1614905090565b606660003373ffffffffffffffffffffffffffffffffffffffff1673ffffffffffffffffffffffffffffffffffffffff16815260200190815260200160002060009054906101000a900460ff16806111d357506111a46110c0565b73ffffffffffffffffffffffffffffffffffffffff163373ffffffffffffffffffffffffffffffffffffffff16145b611228576040517f08c379a000000000000000000000000000000000000000000000000000000000815260040180806020018281038252602a815260200180612054602a913960400191505060405180910390fd5b8181905084849050146112a3576040517f08c379a00000000000000000000000000000000000000000000000000000000081526004018080602001828103825260188152602001807f4572726f722061727261797320646f6e2774206d61746368000000000000000081525060200191505060405180910390fd5b60008090505b8484905081101561131b5761130e8585838181106112c357fe5b9050602002013573ffffffffffffffffffffffffffffffffffffffff168484848181106112ec57fe5b9050602002013573ffffffffffffffffffffffffffffffffffffffff16611b68565b80806001019150506112a9565b5050505050565b600060019054906101000a900460ff16806113415750611340611c6a565b5b8061135857506000809054906101000a900460ff16155b6113ad576040517f08c379a000000000000000000000000000000000000000000000000000000000815260040180806020018281038252602e81526020018061207e602e913960400191505060405180910390fd5b60008060019054906101000a900460ff1615905080156113fd576001600060016101000a81548160ff02191690831515021790555060016000806101000a81548160ff0219169083151502179055505b81603360006101000a81548173ffffffffffffffffffffffffffffffffffffffff021916908373ffffffffffffffffffffffffffffffffffffffff160217905550603360009054906101000a900473ffffffffffffffffffffffffffffffffffffffff1673ffffffffffffffffffffffffffffffffffffffff16600073ffffffffffffffffffffffffffffffffffffffff167f8be0079c531659141344cd1fd0a4f28419497f9722a3daafe3b4186f6b6457e060405160405180910390a380156114dc5760008060016101000a81548160ff0219169083151502179055505b5050565b606660003373ffffffffffffffffffffffffffffffffffffffff1673ffffffffffffffffffffffffffffffffffffffff16815260200190815260200160002060009054906101000a900460ff168061156a575061153b6110c0565b73ffffffffffffffffffffffffffffffffffffffff163373ffffffffffffffffffffffffffffffffffffffff16145b6115bf576040517f08c379a000000000000000000000000000000000000000000000000000000000815260040180806020018281038252602a815260200180612054602a913960400191505060405180910390fd5b81819050848490501461163a576040517f08c379a00000000000000000000000000000000000000000000000000000000081526004018080602001828103825260188152602001807f4572726f722061727261797320646f6e2774206d61746368000000000000000081525060200191505060405180910390fd5b60008090505b8484905081101561169c5761168f85858381811061165a57fe5b9050602002013573ffffffffffffffffffffffffffffffffffffffff1684848481811061168357fe5b90506020020135611c81565b8080600101915050611640565b5050505050565b6000606660008373ffffffffffffffffffffffffffffffffffffffff1673ffffffffffffffffffffffffffffffffffffffff16815260200190815260200160002060009054906101000a900460ff169050919050565b606660003373ffffffffffffffffffffffffffffffffffffffff1673ffffffffffffffffffffffffffffffffffffffff16815260200190815260200160002060009054906101000a900460ff168061178357506117546110c0565b73ffffffffffffffffffffffffffffffffffffffff163373ffffffffffffffffffffffffffffffffffffffff16145b6117d8576040517f08c379a000000000000000000000000000000000000000000000000000000000815260040180806020018281038252602a815260200180612054602a913960400191505060405180910390fd5b818190508484905014611853576040517f08c379a00000000000000000000000000000000000000000000000000000000081526004018080602001828103825260188152602001807f4572726f722061727261797320646f6e2774206d61746368000000000000000081525060200191505060405180910390fd5b60008090505b848490508110156118b5576118a885858381811061187357fe5b9050602002013573ffffffffffffffffffffffffffffffffffffffff1684848481811061189c57fe5b90506020020135611cde565b8080600101915050611859565b5050505050565b6118c46110ea565b611936576040517f08c379a00000000000000000000000000000000000000000000000000000000081526004018080602001828103825260208152602001807f4f776e61626c653a2063616c6c6572206973206e6f7420746865206f776e657281525060200191505060405180910390fd5b61193f81611d3b565b50565b61195681609d611e8190919063ffffffff16565b508160a5600083815260200190815260200160002060006101000a81548173ffffffffffffffffffffffffffffffffffffffff021916908373ffffffffffffffffffffffffffffffffffffffff1602179055506119fa8160a360008573ffffffffffffffffffffffffffffffffffffffff1673ffffffffffffffffffffffffffffffffffffffff168152602001908152602001600020611e8190919063ffffffff16565b505050565b600060a5600083815260200190815260200160002060009054906101000a900473ffffffffffffffffffffffffffffffffffffffff169050600073ffffffffffffffffffffffffffffffffffffffff168173ffffffffffffffffffffffffffffffffffffffff161415611ada576040517f08c379a000000000000000000000000000000000000000000000000000000000815260040180806020018281038252601c8152602001807f566964656f20646f6573206e6f742068617665206368616e6e656c2e0000000081525060200191505060405180910390fd5b611aff8360a46000858152602001908152602001600020611eeb90919063ffffffff16565b50818173ffffffffffffffffffffffffffffffffffffffff168473ffffffffffffffffffffffffffffffffffffffff167fbc016ed09a0ee6e5369280e2a9f452b7cfe88b361786259611a7919cd83ea9ef60405160405180910390a4505050565b600033905090565b611bb98160a160008573ffffffffffffffffffffffffffffffffffffffff1673ffffffffffffffffffffffffffffffffffffffff168152602001908152602001600020611eeb90919063ffffffff16565b50611c0b8260a260008473ffffffffffffffffffffffffffffffffffffffff1673ffffffffffffffffffffffffffffffffffffffff168152602001908152602001600020611eeb90919063ffffffff16565b508073ffffffffffffffffffffffffffffffffffffffff168273ffffffffffffffffffffffffffffffffffffffff167ffb96c8e69a877ff724944c1d8751c7faa6e5e8fd8f63256757b797b4aa11ed4760405160405180910390a35050565b6000803090506000813b9050600081149250505090565b611c95826099611eeb90919063ffffffff16565b5080609f60008473ffffffffffffffffffffffffffffffffffffffff1673ffffffffffffffffffffffffffffffffffffffff168152602001908152602001600020819055505050565b611cf282609b611eeb90919063ffffffff16565b508060a060008473ffffffffffffffffffffffffffffffffffffffff1673ffffffffffffffffffffffffffffffffffffffff168152602001908152602001600020819055505050565b600073ffffffffffffffffffffffffffffffffffffffff168173ffffffffffffffffffffffffffffffffffffffff161415611dc1576040517f08c379a000000000000000000000000000000000000000000000000000000000815260040180806020018281038252602681526020018061202e6026913960400191505060405180910390fd5b8073ffffffffffffffffffffffffffffffffffffffff16603360009054906101000a900473ffffffffffffffffffffffffffffffffffffffff1673ffffffffffffffffffffffffffffffffffffffff167f8be0079c531659141344cd1fd0a4f28419497f9722a3daafe3b4186f6b6457e060405160405180910390a380603360006101000a81548173ffffffffffffffffffffffffffffffffffffffff021916908373ffffffffffffffffffffffffffffffffffffffff16021790555050565b6000611e8d8383611fbb565b611ee0578260010182908060018154018082558091505090600182039060005260206000200160009091929091909150558360000160008481526020019081526020016000208190555060019050611ee5565b600090505b92915050565b6000611ef78383611fde565b611fb057826001018290806001815401808255809150509060018203906000526020600020016000909192909190916101000a81548173ffffffffffffffffffffffffffffffffffffffff021916908373ffffffffffffffffffffffffffffffffffffffff1602179055508360000160008473ffffffffffffffffffffffffffffffffffffffff1673ffffffffffffffffffffffffffffffffffffffff1681526020019081526020016000208190555060019050611fb5565b600090505b92915050565b600080836000016000848152602001908152602001600020541415905092915050565b6000808360000160008473ffffffffffffffffffffffffffffffffffffffff1673ffffffffffffffffffffffffffffffffffffffff16815260200190815260200160002054141590509291505056fe4f776e61626c653a206e6577206f776e657220697320746865207a65726f20616464726573734e6f7420616e20617574686f72697a6564206e6f646520746f2066756c66696c6c207265717565737473436f6e747261637420696e7374616e63652068617320616c7265616479206265656e20696e697469616c697a6564a265627a7a72315820d418e2577af1131d94cd3f62a11593da45a4a4c3a84cc5dbd60fa61e91e913b864736f6c63430005100032",
  "compiler": {
    "name": "solc",
    "version": "0.5.16+commit.9c3226ce.Emscripten.clang",
    "optimizer": {
      "enabled": false,
      "runs": 200
    },
    "evmVersion": "petersburg"
  }
}