{
  "fileName": "ORMExternal.sol",
  "contractName": "ORMExternal",
  "source": "pragma solidity ^0.5.0;\nimport \"./ORM.sol\";\nimport \"./OracleExternal.sol\";\ncontract ORMExternal is ORM, OracleExternal {\n    event addTableEvent(bytes32 indexed _table);\n    event addRowEvent(bytes32 indexed _table, bytes32 indexed _row);\n    event removeRowEvent(bytes32 indexed _table, bytes32 indexed _row);\n\n    function addTable(bytes32 _table) public onlyAuthorizedNode returns (bool) {\n\n        bool added = _addTable(_table);\n        if (added) {\n            emit addTableEvent(_table); }\n\n        return added;\n    }\n\n    function add(bytes32 _table, bytes32 _row) public onlyAuthorizedNode returns (bool) {\n\n        bool added = _add(_table, _row);\n        if (added) {\n            emit addRowEvent(_table, _row); }\n\n        return added;\n    }\n\n    function remove(bytes32 _table, bytes32 _row) public onlyAuthorizedNode returns (bool) {\n\n        bool removed = _remove(_table, _row);\n        if (removed) {\n            emit removeRowEvent(_table, _row); }\n\n        return _remove(_table, _row);\n    }\n\n    function containsKey(bytes32 _table) public view returns (bool) {\n        return _containsKey(_table);\n    }\n\n    function getTables() public view returns (bytes32[] memory) {\n        return _getTables();\n    }\n\n    function contains(bytes32 _table, bytes32 _row) public view returns (bool) {\n        return _contains(_table, _row);\n    }\n\n    function enumerate(bytes32 _table) public view returns (bytes32[] memory) {\n        return _enumerate(_table);\n    }\n\n    function length(bytes32 _table) public view returns (uint256) {\n        return _length(_table);\n    }\n\n    function get(bytes32 _table, uint256 index) public view returns (bytes32) {\n        return _get(_table, index);\n    }\n\n}",
  "sourcePath": "contracts/ORMExternal.sol",
  "abi": [
    {
      "anonymous": false,
      "inputs": [
        {
          "indexed": true,
          "internalType": "address",
          "name": "previousOwner",
          "type": "address"
        },
        {
          "indexed": true,
          "internalType": "address",
          "name": "newOwner",
          "type": "address"
        }
      ],
      "name": "OwnershipTransferred",
      "type": "event"
    },
    {
      "anonymous": false,
      "inputs": [
        {
          "indexed": true,
          "internalType": "bytes32",
          "name": "_table",
          "type": "bytes32"
        },
        {
          "indexed": true,
          "internalType": "bytes32",
          "name": "_row",
          "type": "bytes32"
        }
      ],
      "name": "addRowEvent",
      "type": "event"
    },
    {
      "anonymous": false,
      "inputs": [
        {
          "indexed": true,
          "internalType": "bytes32",
          "name": "_table",
          "type": "bytes32"
        }
      ],
      "name": "addTableEvent",
      "type": "event"
    },
    {
      "anonymous": false,
      "inputs": [
        {
          "indexed": true,
          "internalType": "bytes32",
          "name": "_table",
          "type": "bytes32"
        },
        {
          "indexed": true,
          "internalType": "bytes32",
          "name": "_row",
          "type": "bytes32"
        }
      ],
      "name": "removeRowEvent",
      "type": "event"
    },
    {
      "constant": false,
      "inputs": [
        {
          "internalType": "bytes32",
          "name": "_table",
          "type": "bytes32"
        },
        {
          "internalType": "bytes32",
          "name": "_row",
          "type": "bytes32"
        }
      ],
      "name": "add",
      "outputs": [
        {
          "internalType": "bool",
          "name": "",
          "type": "bool"
        }
      ],
      "payable": false,
      "stateMutability": "nonpayable",
      "type": "function"
    },
    {
      "constant": false,
      "inputs": [
        {
          "internalType": "bytes32",
          "name": "_table",
          "type": "bytes32"
        }
      ],
      "name": "addTable",
      "outputs": [
        {
          "internalType": "bool",
          "name": "",
          "type": "bool"
        }
      ],
      "payable": false,
      "stateMutability": "nonpayable",
      "type": "function"
    },
    {
      "constant": true,
      "inputs": [
        {
          "internalType": "address",
          "name": "",
          "type": "address"
        }
      ],
      "name": "authorizedNodes",
      "outputs": [
        {
          "internalType": "bool",
          "name": "",
          "type": "bool"
        }
      ],
      "payable": false,
      "stateMutability": "view",
      "type": "function"
    },
    {
      "constant": true,
      "inputs": [
        {
          "internalType": "bytes32",
          "name": "_table",
          "type": "bytes32"
        },
        {
          "internalType": "bytes32",
          "name": "_row",
          "type": "bytes32"
        }
      ],
      "name": "contains",
      "outputs": [
        {
          "internalType": "bool",
          "name": "",
          "type": "bool"
        }
      ],
      "payable": false,
      "stateMutability": "view",
      "type": "function"
    },
    {
      "constant": true,
      "inputs": [
        {
          "internalType": "bytes32",
          "name": "_table",
          "type": "bytes32"
        }
      ],
      "name": "containsKey",
      "outputs": [
        {
          "internalType": "bool",
          "name": "",
          "type": "bool"
        }
      ],
      "payable": false,
      "stateMutability": "view",
      "type": "function"
    },
    {
      "constant": true,
      "inputs": [
        {
          "internalType": "bytes32",
          "name": "_table",
          "type": "bytes32"
        }
      ],
      "name": "enumerate",
      "outputs": [
        {
          "internalType": "bytes32[]",
          "name": "",
          "type": "bytes32[]"
        }
      ],
      "payable": false,
      "stateMutability": "view",
      "type": "function"
    },
    {
      "constant": false,
      "inputs": [
        {
          "internalType": "address",
          "name": "_callbackAddress",
          "type": "address"
        },
        {
          "internalType": "bytes4",
          "name": "_callbackFunctionId",
          "type": "bytes4"
        },
        {
          "internalType": "bytes",
          "name": "_data",
          "type": "bytes"
        }
      ],
      "name": "fulfillExternalRequest",
      "outputs": [
        {
          "internalType": "bool",
          "name": "",
          "type": "bool"
        }
      ],
      "payable": false,
      "stateMutability": "nonpayable",
      "type": "function"
    },
    {
      "constant": true,
      "inputs": [
        {
          "internalType": "bytes32",
          "name": "_table",
          "type": "bytes32"
        },
        {
          "internalType": "uint256",
          "name": "index",
          "type": "uint256"
        }
      ],
      "name": "get",
      "outputs": [
        {
          "internalType": "bytes32",
          "name": "",
          "type": "bytes32"
        }
      ],
      "payable": false,
      "stateMutability": "view",
      "type": "function"
    },
    {
      "constant": true,
      "inputs": [
        {
          "internalType": "address",
          "name": "_node",
          "type": "address"
        }
      ],
      "name": "getAuthorizationStatus",
      "outputs": [
        {
          "internalType": "bool",
          "name": "",
          "type": "bool"
        }
      ],
      "payable": false,
      "stateMutability": "view",
      "type": "function"
    },
    {
      "constant": true,
      "inputs": [],
      "name": "getTables",
      "outputs": [
        {
          "internalType": "bytes32[]",
          "name": "",
          "type": "bytes32[]"
        }
      ],
      "payable": false,
      "stateMutability": "view",
      "type": "function"
    },
    {
      "constant": false,
      "inputs": [
        {
          "internalType": "address",
          "name": "sender",
          "type": "address"
        }
      ],
      "name": "initialize",
      "outputs": [],
      "payable": false,
      "stateMutability": "nonpayable",
      "type": "function"
    },
    {
      "constant": true,
      "inputs": [],
      "name": "isOwner",
      "outputs": [
        {
          "internalType": "bool",
          "name": "",
          "type": "bool"
        }
      ],
      "payable": false,
      "stateMutability": "view",
      "type": "function"
    },
    {
      "constant": true,
      "inputs": [
        {
          "internalType": "bytes32",
          "name": "_table",
          "type": "bytes32"
        }
      ],
      "name": "length",
      "outputs": [
        {
          "internalType": "uint256",
          "name": "",
          "type": "uint256"
        }
      ],
      "payable": false,
      "stateMutability": "view",
      "type": "function"
    },
    {
      "constant": true,
      "inputs": [],
      "name": "owner",
      "outputs": [
        {
          "internalType": "address",
          "name": "",
          "type": "address"
        }
      ],
      "payable": false,
      "stateMutability": "view",
      "type": "function"
    },
    {
      "constant": false,
      "inputs": [
        {
          "internalType": "bytes32",
          "name": "_table",
          "type": "bytes32"
        },
        {
          "internalType": "bytes32",
          "name": "_row",
          "type": "bytes32"
        }
      ],
      "name": "remove",
      "outputs": [
        {
          "internalType": "bool",
          "name": "",
          "type": "bool"
        }
      ],
      "payable": false,
      "stateMutability": "nonpayable",
      "type": "function"
    },
    {
      "constant": false,
      "inputs": [],
      "name": "renounceOwnership",
      "outputs": [],
      "payable": false,
      "stateMutability": "nonpayable",
      "type": "function"
    },
    {
      "constant": false,
      "inputs": [
        {
          "internalType": "address",
          "name": "_node",
          "type": "address"
        },
        {
          "internalType": "bool",
          "name": "_allowed",
          "type": "bool"
        }
      ],
      "name": "setFulfillmentPermission",
      "outputs": [],
      "payable": false,
      "stateMutability": "nonpayable",
      "type": "function"
    },
    {
      "constant": false,
      "inputs": [
        {
          "internalType": "address",
          "name": "newOwner",
          "type": "address"
        }
      ],
      "name": "transferOwnership",
      "outputs": [],
      "payable": false,
      "stateMutability": "nonpayable",
      "type": "function"
    }
  ],
  "bytecode": "0x60806040526118fc806100136000396000f3fe608060405234801561001057600080fd5b50600436106101165760003560e01c80638f32d59b116100a2578063c4d66de811610071578063c4d66de81461056d578063d1de592a146105b1578063d3e9c31414610601578063f2fde38b1461065d578063f6b102a6146106a157610116565b80638f32d59b14610436578063a9dbaf2514610458578063b10e41721461049a578063bc3c490d146104ea57610116565b80635bf2a4e9116100e95780635bf2a4e9146102e6578063715018a6146103365780637e53a740146103405780637fcd56db1461039c5780638da5cb5b146103ec57610116565b80631095a5f11461011b57806318ae19c21461016157806328343c34146101ad57806359eed7d91461020c575b600080fd5b6101476004803603602081101561013157600080fd5b81019080803590602001909291905050506106e7565b604051808215151515815260200191505060405180910390f35b6101976004803603604081101561017757600080fd5b810190808035906020019092919080359060200190929190505050610812565b6040518082815260200191505060405180910390f35b6101b5610826565b6040518080602001828103825283818151815260200191508051906020019060200280838360005b838110156101f85780820151818401526020810190506101dd565b505050509050019250505060405180910390f35b6102cc6004803603606081101561022257600080fd5b81019080803573ffffffffffffffffffffffffffffffffffffffff16906020019092919080357bffffffffffffffffffffffffffffffffffffffffffffffffffffffff191690602001909291908035906020019064010000000081111561028857600080fd5b82018360208201111561029a57600080fd5b803590602001918460018302840111640100000000831117156102bc57600080fd5b9091929391929390505050610835565b604051808215151515815260200191505060405180910390f35b61031c600480360360408110156102fc57600080fd5b810190808035906020019092919080359060200190929190505050610a74565b604051808215151515815260200191505060405180910390f35b61033e610a88565b005b6103826004803603602081101561035657600080fd5b81019080803573ffffffffffffffffffffffffffffffffffffffff169060200190929190505050610bc3565b604051808215151515815260200191505060405180910390f35b6103ea600480360360408110156103b257600080fd5b81019080803573ffffffffffffffffffffffffffffffffffffffff169060200190929190803515159060200190929190505050610be3565b005b6103f4610cb8565b604051808273ffffffffffffffffffffffffffffffffffffffff1673ffffffffffffffffffffffffffffffffffffffff16815260200191505060405180910390f35b61043e610ce2565b604051808215151515815260200191505060405180910390f35b6104846004803603602081101561046e57600080fd5b8101908080359060200190929190505050610d41565b6040518082815260200191505060405180910390f35b6104d0600480360360408110156104b057600080fd5b810190808035906020019092919080359060200190929190505050610d53565b604051808215151515815260200191505060405180910390f35b6105166004803603602081101561050057600080fd5b8101908080359060200190929190505050610e8a565b6040518080602001828103825283818151815260200191508051906020019060200280838360005b8381101561055957808201518184015260208101905061053e565b505050509050019250505060405180910390f35b6105af6004803603602081101561058357600080fd5b81019080803573ffffffffffffffffffffffffffffffffffffffff169060200190929190505050610e9c565b005b6105e7600480360360408110156105c757600080fd5b81019080803590602001909291908035906020019092919050505061105e565b604051808215151515815260200191505060405180910390f35b6106436004803603602081101561061757600080fd5b81019080803573ffffffffffffffffffffffffffffffffffffffff16906020019092919050505061118c565b604051808215151515815260200191505060405180910390f35b61069f6004803603602081101561067357600080fd5b81019080803573ffffffffffffffffffffffffffffffffffffffff1690602001909291905050506111e2565b005b6106cd600480360360208110156106b757600080fd5b8101908080359060200190929190505050611268565b604051808215151515815260200191505060405180910390f35b6000606960003373ffffffffffffffffffffffffffffffffffffffff1673ffffffffffffffffffffffffffffffffffffffff16815260200190815260200160002060009054906101000a900460ff16806107735750610744610cb8565b73ffffffffffffffffffffffffffffffffffffffff163373ffffffffffffffffffffffffffffffffffffffff16145b6107c8576040517f08c379a000000000000000000000000000000000000000000000000000000000815260040180806020018281038252602a815260200180611870602a913960400191505060405180910390fd5b60006107d38361127a565b9050801561080957827fa8c762fae9757a7aefaa4d2026c9b16af3b1265f3374ed7a689d0336795ee27c60405160405180910390a25b80915050919050565b600061081e8383611297565b905092915050565b60606108306112bc565b905090565b6000606960003373ffffffffffffffffffffffffffffffffffffffff1673ffffffffffffffffffffffffffffffffffffffff16815260200190815260200160002060009054906101000a900460ff16806108c15750610892610cb8565b73ffffffffffffffffffffffffffffffffffffffff163373ffffffffffffffffffffffffffffffffffffffff16145b610916576040517f08c379a000000000000000000000000000000000000000000000000000000000815260040180806020018281038252602a815260200180611870602a913960400191505060405180910390fd5b60008573ffffffffffffffffffffffffffffffffffffffff1685858560405160240180806020018281038252848482818152602001925080828437600081840152601f19601f8201169050808301925050509350505050604051602081830303815290604052907bffffffffffffffffffffffffffffffffffffffffffffffffffffffff19166020820180517bffffffffffffffffffffffffffffffffffffffffffffffffffffffff83818316178352505050506040518082805190602001908083835b602083106109fd57805182526020820191506020810190506020830392506109da565b6001836020036101000a0380198251168184511680821785525050505050509050019150506000604051808303816000865af19150503d8060008114610a5f576040519150601f19603f3d011682016040523d82523d6000602084013e610a64565b606091505b5050905080915050949350505050565b6000610a8083836112cd565b905092915050565b610a90610ce2565b610b02576040517f08c379a00000000000000000000000000000000000000000000000000000000081526004018080602001828103825260208152602001807f4f776e61626c653a2063616c6c6572206973206e6f7420746865206f776e657281525060200191505060405180910390fd5b600073ffffffffffffffffffffffffffffffffffffffff16603660009054906101000a900473ffffffffffffffffffffffffffffffffffffffff1673ffffffffffffffffffffffffffffffffffffffff167f8be0079c531659141344cd1fd0a4f28419497f9722a3daafe3b4186f6b6457e060405160405180910390a36000603660006101000a81548173ffffffffffffffffffffffffffffffffffffffff021916908373ffffffffffffffffffffffffffffffffffffffff160217905550565b60696020528060005260406000206000915054906101000a900460ff1681565b610beb610ce2565b610c5d576040517f08c379a00000000000000000000000000000000000000000000000000000000081526004018080602001828103825260208152602001807f4f776e61626c653a2063616c6c6572206973206e6f7420746865206f776e657281525060200191505060405180910390fd5b80606960008473ffffffffffffffffffffffffffffffffffffffff1673ffffffffffffffffffffffffffffffffffffffff16815260200190815260200160002060006101000a81548160ff0219169083151502179055505050565b6000603660009054906101000a900473ffffffffffffffffffffffffffffffffffffffff16905090565b6000603660009054906101000a900473ffffffffffffffffffffffffffffffffffffffff1673ffffffffffffffffffffffffffffffffffffffff16610d256112f2565b73ffffffffffffffffffffffffffffffffffffffff1614905090565b6000610d4c826112fa565b9050919050565b6000606960003373ffffffffffffffffffffffffffffffffffffffff1673ffffffffffffffffffffffffffffffffffffffff16815260200190815260200160002060009054906101000a900460ff1680610ddf5750610db0610cb8565b73ffffffffffffffffffffffffffffffffffffffff163373ffffffffffffffffffffffffffffffffffffffff16145b610e34576040517f08c379a000000000000000000000000000000000000000000000000000000000815260040180806020018281038252602a815260200180611870602a913960400191505060405180910390fd5b6000610e408484611314565b90508015610e775782847fc5d91f356cea4a2933ed9f78ec87b4f91a05986ee2a3154f0bd20bfad9d1b3b860405160405180910390a35b610e818484611314565b91505092915050565b6060610e9582611339565b9050919050565b600360019054906101000a900460ff1680610ebb5750610eba611353565b5b80610ed35750600360009054906101000a900460ff16155b610f28576040517f08c379a000000000000000000000000000000000000000000000000000000000815260040180806020018281038252602e81526020018061189a602e913960400191505060405180910390fd5b6000600360019054906101000a900460ff161590508015610f7a576001600360016101000a81548160ff0219169083151502179055506001600360006101000a81548160ff0219169083151502179055505b81603660006101000a81548173ffffffffffffffffffffffffffffffffffffffff021916908373ffffffffffffffffffffffffffffffffffffffff160217905550603660009054906101000a900473ffffffffffffffffffffffffffffffffffffffff1673ffffffffffffffffffffffffffffffffffffffff16600073ffffffffffffffffffffffffffffffffffffffff167f8be0079c531659141344cd1fd0a4f28419497f9722a3daafe3b4186f6b6457e060405160405180910390a3801561105a576000600360016101000a81548160ff0219169083151502179055505b5050565b6000606960003373ffffffffffffffffffffffffffffffffffffffff1673ffffffffffffffffffffffffffffffffffffffff16815260200190815260200160002060009054906101000a900460ff16806110ea57506110bb610cb8565b73ffffffffffffffffffffffffffffffffffffffff163373ffffffffffffffffffffffffffffffffffffffff16145b61113f576040517f08c379a000000000000000000000000000000000000000000000000000000000815260040180806020018281038252602a815260200180611870602a913960400191505060405180910390fd5b600061114b848461136a565b905080156111825782847f060df603306baa87050778b5ce94a1a38056c1ac5b1a7df3ee860c699662731b60405160405180910390a35b8091505092915050565b6000606960008373ffffffffffffffffffffffffffffffffffffffff1673ffffffffffffffffffffffffffffffffffffffff16815260200190815260200160002060009054906101000a900460ff169050919050565b6111ea610ce2565b61125c576040517f08c379a00000000000000000000000000000000000000000000000000000000081526004018080602001828103825260208152602001807f4f776e61626c653a2063616c6c6572206973206e6f7420746865206f776e657281525060200191505060405180910390fd5b6112658161138f565b50565b6000611273826114d5565b9050919050565b60006112908260006114f290919063ffffffff16565b9050919050565b60006112b4826112a685611512565b61152f90919063ffffffff16565b905092915050565b60606112c86000611553565b905090565b60006112ea826112dc85611512565b61156890919063ffffffff16565b905092915050565b600033905090565b600061130d61130883611512565b61158b565b9050919050565b60006113318261132385611512565b61159c90919063ffffffff16565b905092915050565b606061134c61134783611512565b61168d565b9050919050565b6000803090506000813b9050600081149250505090565b60006113878261137985611512565b61172490919063ffffffff16565b905092915050565b600073ffffffffffffffffffffffffffffffffffffffff168173ffffffffffffffffffffffffffffffffffffffff161415611415576040517f08c379a000000000000000000000000000000000000000000000000000000000815260040180806020018281038252602681526020018061184a6026913960400191505060405180910390fd5b8073ffffffffffffffffffffffffffffffffffffffff16603660009054906101000a900473ffffffffffffffffffffffffffffffffffffffff1673ffffffffffffffffffffffffffffffffffffffff167f8be0079c531659141344cd1fd0a4f28419497f9722a3daafe3b4186f6b6457e060405160405180910390a380603660006101000a81548173ffffffffffffffffffffffffffffffffffffffff021916908373ffffffffffffffffffffffffffffffffffffffff16021790555050565b60006114eb82600061178e90919063ffffffff16565b9050919050565b600061150a828460010161172490919063ffffffff16565b905092915050565b60006115288260006117ae90919063ffffffff16565b9050919050565b600082600101828154811061154057fe5b9060005260206000200154905092915050565b60606115618260010161168d565b9050919050565b600080836000016000848152602001908152602001600020541415905092915050565b600081600101805490509050919050565b60006115a88383611568565b1561168257600060018460000160008581526020019081526020016000205403905060006001856001018054905003905081811461163b5760008560010182815481106115f157fe5b906000526020600020015490508086600101848154811061160e57fe5b90600052602060002001819055506001830186600001600083815260200190815260200160002081905550505b846000016000858152602001908152602001600020600090558460010180548061166157fe5b60019003818190600052602060002001600090559055600192505050611687565b600090505b92915050565b60608082600101805490506040519080825280602002602001820160405280156116c65781602001602082028038833980820191505090505b50905060005b836001018054905081101561171a578360010181815481106116ea57fe5b906000526020600020015482828151811061170157fe5b60200260200101818152505080806001019150506116cc565b5080915050919050565b60006117308383611568565b611783578260010182908060018154018082558091505090600182039060005260206000200160009091929091909150558360000160008481526020019081526020016000208190555060019050611788565b600090505b92915050565b60006117a6828460010161156890919063ffffffff16565b905092915050565b60006117ba838361178e565b61182c576040517f08c379a00000000000000000000000000000000000000000000000000000000081526004018080602001828103825260198152602001807f4572726f72206b657920646f6573206e6f74206578697374210000000000000081525060200191505060405180910390fd5b82600001600083815260200190815260200160002090509291505056fe4f776e61626c653a206e6577206f776e657220697320746865207a65726f20616464726573734e6f7420616e20617574686f72697a6564206e6f646520746f2066756c66696c6c207265717565737473436f6e747261637420696e7374616e63652068617320616c7265616479206265656e20696e697469616c697a6564a265627a7a72315820521098f5920accb9fdf0bac551bd274bb09e9780d36aeaff3daa74a507a425d964736f6c63430005100032",
  "compiler": {
    "name": "solc",
    "version": "0.5.16+commit.9c3226ce.Emscripten.clang",
    "optimizer": {
      "enabled": false,
      "runs": 200
    },
    "evmVersion": "petersburg"
  }
}