{
  "fileName": "ORMExternal.sol",
  "contractName": "ORMExternal",
  "source": "pragma solidity ^0.5.0;\nimport \"./ORM.sol\";\nimport \"./OracleExternal.sol\";\ncontract ORMExternal is ORM, OracleExternal {\n    function addSetClass(bytes32 _class) public onlyAuthorizedNode returns (bool) {\n        return SetClasses.addKey(_class);\n    }\n\n    function add(bytes32 _class, bytes32 _data) public onlyAuthorizedNode returns (bool) {\n        return _add(_class, _data);\n    }\n\n    function remove(bytes32 _class, bytes32 _data) public onlyAuthorizedNode returns (bool) {\n        return _remove(_class, _data);\n    }\n    function containsKey(bytes32 _class) public view returns (bool) {\n        return _containsKey(_class);\n    }\n\n    function getSetClassKeys() public view returns (bytes32[] memory) {\n        return _getSetClassKeys();\n    }\n\n    function contains(bytes32 _class, bytes32 _data) public view returns (bool) {\n        return _contains(_class, _data);\n    }\n\n    function enumerate(bytes32 _class) public view returns (bytes32[] memory) {\n        return _enumerate(_class);\n    }\n\n    function length(bytes32 _class) public view returns (uint256) {\n        return _length(_class);\n    }\n\n    function get(bytes32 _class, uint256 index) public view returns (bytes32) {\n        return _get(_class, index);\n    }\n\n}",
  "sourcePath": "contracts/ORMExternal.sol",
  "abi": [
    {
      "anonymous": false,
      "inputs": [
        {
          "indexed": true,
          "internalType": "address",
          "name": "previousOwner",
          "type": "address"
        },
        {
          "indexed": true,
          "internalType": "address",
          "name": "newOwner",
          "type": "address"
        }
      ],
      "name": "OwnershipTransferred",
      "type": "event"
    },
    {
      "constant": false,
      "inputs": [
        {
          "internalType": "bytes32",
          "name": "_class",
          "type": "bytes32"
        },
        {
          "internalType": "bytes32",
          "name": "_data",
          "type": "bytes32"
        }
      ],
      "name": "add",
      "outputs": [
        {
          "internalType": "bool",
          "name": "",
          "type": "bool"
        }
      ],
      "payable": false,
      "stateMutability": "nonpayable",
      "type": "function"
    },
    {
      "constant": false,
      "inputs": [
        {
          "internalType": "bytes32",
          "name": "_class",
          "type": "bytes32"
        }
      ],
      "name": "addSetClass",
      "outputs": [
        {
          "internalType": "bool",
          "name": "",
          "type": "bool"
        }
      ],
      "payable": false,
      "stateMutability": "nonpayable",
      "type": "function"
    },
    {
      "constant": true,
      "inputs": [
        {
          "internalType": "address",
          "name": "",
          "type": "address"
        }
      ],
      "name": "authorizedNodes",
      "outputs": [
        {
          "internalType": "bool",
          "name": "",
          "type": "bool"
        }
      ],
      "payable": false,
      "stateMutability": "view",
      "type": "function"
    },
    {
      "constant": true,
      "inputs": [
        {
          "internalType": "bytes32",
          "name": "_class",
          "type": "bytes32"
        },
        {
          "internalType": "bytes32",
          "name": "_data",
          "type": "bytes32"
        }
      ],
      "name": "contains",
      "outputs": [
        {
          "internalType": "bool",
          "name": "",
          "type": "bool"
        }
      ],
      "payable": false,
      "stateMutability": "view",
      "type": "function"
    },
    {
      "constant": true,
      "inputs": [
        {
          "internalType": "bytes32",
          "name": "_class",
          "type": "bytes32"
        }
      ],
      "name": "containsKey",
      "outputs": [
        {
          "internalType": "bool",
          "name": "",
          "type": "bool"
        }
      ],
      "payable": false,
      "stateMutability": "view",
      "type": "function"
    },
    {
      "constant": true,
      "inputs": [
        {
          "internalType": "bytes32",
          "name": "_class",
          "type": "bytes32"
        }
      ],
      "name": "enumerate",
      "outputs": [
        {
          "internalType": "bytes32[]",
          "name": "",
          "type": "bytes32[]"
        }
      ],
      "payable": false,
      "stateMutability": "view",
      "type": "function"
    },
    {
      "constant": false,
      "inputs": [
        {
          "internalType": "address",
          "name": "_callbackAddress",
          "type": "address"
        },
        {
          "internalType": "bytes4",
          "name": "_callbackFunctionId",
          "type": "bytes4"
        },
        {
          "internalType": "bytes",
          "name": "_data",
          "type": "bytes"
        }
      ],
      "name": "fulfillExternalRequest",
      "outputs": [
        {
          "internalType": "bool",
          "name": "",
          "type": "bool"
        }
      ],
      "payable": false,
      "stateMutability": "nonpayable",
      "type": "function"
    },
    {
      "constant": true,
      "inputs": [
        {
          "internalType": "bytes32",
          "name": "_class",
          "type": "bytes32"
        },
        {
          "internalType": "uint256",
          "name": "index",
          "type": "uint256"
        }
      ],
      "name": "get",
      "outputs": [
        {
          "internalType": "bytes32",
          "name": "",
          "type": "bytes32"
        }
      ],
      "payable": false,
      "stateMutability": "view",
      "type": "function"
    },
    {
      "constant": true,
      "inputs": [
        {
          "internalType": "address",
          "name": "_node",
          "type": "address"
        }
      ],
      "name": "getAuthorizationStatus",
      "outputs": [
        {
          "internalType": "bool",
          "name": "",
          "type": "bool"
        }
      ],
      "payable": false,
      "stateMutability": "view",
      "type": "function"
    },
    {
      "constant": true,
      "inputs": [],
      "name": "getSetClassKeys",
      "outputs": [
        {
          "internalType": "bytes32[]",
          "name": "",
          "type": "bytes32[]"
        }
      ],
      "payable": false,
      "stateMutability": "view",
      "type": "function"
    },
    {
      "constant": false,
      "inputs": [
        {
          "internalType": "address",
          "name": "sender",
          "type": "address"
        }
      ],
      "name": "initialize",
      "outputs": [],
      "payable": false,
      "stateMutability": "nonpayable",
      "type": "function"
    },
    {
      "constant": true,
      "inputs": [],
      "name": "isOwner",
      "outputs": [
        {
          "internalType": "bool",
          "name": "",
          "type": "bool"
        }
      ],
      "payable": false,
      "stateMutability": "view",
      "type": "function"
    },
    {
      "constant": true,
      "inputs": [
        {
          "internalType": "bytes32",
          "name": "_class",
          "type": "bytes32"
        }
      ],
      "name": "length",
      "outputs": [
        {
          "internalType": "uint256",
          "name": "",
          "type": "uint256"
        }
      ],
      "payable": false,
      "stateMutability": "view",
      "type": "function"
    },
    {
      "constant": true,
      "inputs": [],
      "name": "owner",
      "outputs": [
        {
          "internalType": "address",
          "name": "",
          "type": "address"
        }
      ],
      "payable": false,
      "stateMutability": "view",
      "type": "function"
    },
    {
      "constant": false,
      "inputs": [
        {
          "internalType": "bytes32",
          "name": "_class",
          "type": "bytes32"
        },
        {
          "internalType": "bytes32",
          "name": "_data",
          "type": "bytes32"
        }
      ],
      "name": "remove",
      "outputs": [
        {
          "internalType": "bool",
          "name": "",
          "type": "bool"
        }
      ],
      "payable": false,
      "stateMutability": "nonpayable",
      "type": "function"
    },
    {
      "constant": false,
      "inputs": [],
      "name": "renounceOwnership",
      "outputs": [],
      "payable": false,
      "stateMutability": "nonpayable",
      "type": "function"
    },
    {
      "constant": false,
      "inputs": [
        {
          "internalType": "address",
          "name": "_node",
          "type": "address"
        },
        {
          "internalType": "bool",
          "name": "_allowed",
          "type": "bool"
        }
      ],
      "name": "setFulfillmentPermission",
      "outputs": [],
      "payable": false,
      "stateMutability": "nonpayable",
      "type": "function"
    },
    {
      "constant": false,
      "inputs": [
        {
          "internalType": "address",
          "name": "newOwner",
          "type": "address"
        }
      ],
      "name": "transferOwnership",
      "outputs": [],
      "payable": false,
      "stateMutability": "nonpayable",
      "type": "function"
    }
  ],
  "bytecode": "0x6080604052611831806100136000396000f3fe608060405234801561001057600080fd5b50600436106101165760003560e01c8063b10e4172116100a2578063d3e9c31411610071578063d3e9c3141461055c578063e17d33d4146105b8578063e340dc63146105fe578063f2fde38b1461065d578063f6b102a6146106a157610116565b8063b10e4172146103f5578063bc3c490d14610445578063c4d66de8146104c8578063d1de592a1461050c57610116565b80637e53a740116100e95780637e53a7401461029b5780637fcd56db146102f75780638da5cb5b146103475780638f32d59b14610391578063a9dbaf25146103b357610116565b806318ae19c21461011b57806359eed7d9146101675780635bf2a4e914610241578063715018a614610291575b600080fd5b6101516004803603604081101561013157600080fd5b8101908080359060200190929190803590602001909291905050506106e7565b6040518082815260200191505060405180910390f35b6102276004803603606081101561017d57600080fd5b81019080803573ffffffffffffffffffffffffffffffffffffffff16906020019092919080357bffffffffffffffffffffffffffffffffffffffffffffffffffffffff19169060200190929190803590602001906401000000008111156101e357600080fd5b8201836020820111156101f557600080fd5b8035906020019184600183028401116401000000008311171561021757600080fd5b90919293919293905050506106fb565b604051808215151515815260200191505060405180910390f35b6102776004803603604081101561025757600080fd5b81019080803590602001909291908035906020019092919050505061093a565b604051808215151515815260200191505060405180910390f35b61029961094e565b005b6102dd600480360360208110156102b157600080fd5b81019080803573ffffffffffffffffffffffffffffffffffffffff169060200190929190505050610a89565b604051808215151515815260200191505060405180910390f35b6103456004803603604081101561030d57600080fd5b81019080803573ffffffffffffffffffffffffffffffffffffffff169060200190929190803515159060200190929190505050610aa9565b005b61034f610b7e565b604051808273ffffffffffffffffffffffffffffffffffffffff1673ffffffffffffffffffffffffffffffffffffffff16815260200191505060405180910390f35b610399610ba8565b604051808215151515815260200191505060405180910390f35b6103df600480360360208110156103c957600080fd5b8101908080359060200190929190505050610c07565b6040518082815260200191505060405180910390f35b61042b6004803603604081101561040b57600080fd5b810190808035906020019092919080359060200190929190505050610c19565b604051808215151515815260200191505060405180910390f35b6104716004803603602081101561045b57600080fd5b8101908080359060200190929190505050610d0c565b6040518080602001828103825283818151815260200191508051906020019060200280838360005b838110156104b4578082015181840152602081019050610499565b505050509050019250505060405180910390f35b61050a600480360360208110156104de57600080fd5b81019080803573ffffffffffffffffffffffffffffffffffffffff169060200190929190505050610d1e565b005b6105426004803603604081101561052257600080fd5b810190808035906020019092919080359060200190929190505050610ee0565b604051808215151515815260200191505060405180910390f35b61059e6004803603602081101561057257600080fd5b81019080803573ffffffffffffffffffffffffffffffffffffffff169060200190929190505050610fd3565b604051808215151515815260200191505060405180910390f35b6105e4600480360360208110156105ce57600080fd5b8101908080359060200190929190505050611029565b604051808215151515815260200191505060405180910390f35b610606611125565b6040518080602001828103825283818151815260200191508051906020019060200280838360005b8381101561064957808201518184015260208101905061062e565b505050509050019250505060405180910390f35b61069f6004803603602081101561067357600080fd5b81019080803573ffffffffffffffffffffffffffffffffffffffff169060200190929190505050611134565b005b6106cd600480360360208110156106b757600080fd5b81019080803590602001909291905050506111ba565b604051808215151515815260200191505060405180910390f35b60006106f383836111cc565b905092915050565b6000606960003373ffffffffffffffffffffffffffffffffffffffff1673ffffffffffffffffffffffffffffffffffffffff16815260200190815260200160002060009054906101000a900460ff16806107875750610758610b7e565b73ffffffffffffffffffffffffffffffffffffffff163373ffffffffffffffffffffffffffffffffffffffff16145b6107dc576040517f08c379a000000000000000000000000000000000000000000000000000000000815260040180806020018281038252602a8152602001806117a5602a913960400191505060405180910390fd5b60008573ffffffffffffffffffffffffffffffffffffffff1685858560405160240180806020018281038252848482818152602001925080828437600081840152601f19601f8201169050808301925050509350505050604051602081830303815290604052907bffffffffffffffffffffffffffffffffffffffffffffffffffffffff19166020820180517bffffffffffffffffffffffffffffffffffffffffffffffffffffffff83818316178352505050506040518082805190602001908083835b602083106108c357805182526020820191506020810190506020830392506108a0565b6001836020036101000a0380198251168184511680821785525050505050509050019150506000604051808303816000865af19150503d8060008114610925576040519150601f19603f3d011682016040523d82523d6000602084013e61092a565b606091505b5050905080915050949350505050565b600061094683836111f1565b905092915050565b610956610ba8565b6109c8576040517f08c379a00000000000000000000000000000000000000000000000000000000081526004018080602001828103825260208152602001807f4f776e61626c653a2063616c6c6572206973206e6f7420746865206f776e657281525060200191505060405180910390fd5b600073ffffffffffffffffffffffffffffffffffffffff16603660009054906101000a900473ffffffffffffffffffffffffffffffffffffffff1673ffffffffffffffffffffffffffffffffffffffff167f8be0079c531659141344cd1fd0a4f28419497f9722a3daafe3b4186f6b6457e060405160405180910390a36000603660006101000a81548173ffffffffffffffffffffffffffffffffffffffff021916908373ffffffffffffffffffffffffffffffffffffffff160217905550565b60696020528060005260406000206000915054906101000a900460ff1681565b610ab1610ba8565b610b23576040517f08c379a00000000000000000000000000000000000000000000000000000000081526004018080602001828103825260208152602001807f4f776e61626c653a2063616c6c6572206973206e6f7420746865206f776e657281525060200191505060405180910390fd5b80606960008473ffffffffffffffffffffffffffffffffffffffff1673ffffffffffffffffffffffffffffffffffffffff16815260200190815260200160002060006101000a81548160ff0219169083151502179055505050565b6000603660009054906101000a900473ffffffffffffffffffffffffffffffffffffffff16905090565b6000603660009054906101000a900473ffffffffffffffffffffffffffffffffffffffff1673ffffffffffffffffffffffffffffffffffffffff16610beb611216565b73ffffffffffffffffffffffffffffffffffffffff1614905090565b6000610c128261121e565b9050919050565b6000606960003373ffffffffffffffffffffffffffffffffffffffff1673ffffffffffffffffffffffffffffffffffffffff16815260200190815260200160002060009054906101000a900460ff1680610ca55750610c76610b7e565b73ffffffffffffffffffffffffffffffffffffffff163373ffffffffffffffffffffffffffffffffffffffff16145b610cfa576040517f08c379a000000000000000000000000000000000000000000000000000000000815260040180806020018281038252602a8152602001806117a5602a913960400191505060405180910390fd5b610d048383611238565b905092915050565b6060610d178261125d565b9050919050565b600360019054906101000a900460ff1680610d3d5750610d3c611277565b5b80610d555750600360009054906101000a900460ff16155b610daa576040517f08c379a000000000000000000000000000000000000000000000000000000000815260040180806020018281038252602e8152602001806117cf602e913960400191505060405180910390fd5b6000600360019054906101000a900460ff161590508015610dfc576001600360016101000a81548160ff0219169083151502179055506001600360006101000a81548160ff0219169083151502179055505b81603660006101000a81548173ffffffffffffffffffffffffffffffffffffffff021916908373ffffffffffffffffffffffffffffffffffffffff160217905550603660009054906101000a900473ffffffffffffffffffffffffffffffffffffffff1673ffffffffffffffffffffffffffffffffffffffff16600073ffffffffffffffffffffffffffffffffffffffff167f8be0079c531659141344cd1fd0a4f28419497f9722a3daafe3b4186f6b6457e060405160405180910390a38015610edc576000600360016101000a81548160ff0219169083151502179055505b5050565b6000606960003373ffffffffffffffffffffffffffffffffffffffff1673ffffffffffffffffffffffffffffffffffffffff16815260200190815260200160002060009054906101000a900460ff1680610f6c5750610f3d610b7e565b73ffffffffffffffffffffffffffffffffffffffff163373ffffffffffffffffffffffffffffffffffffffff16145b610fc1576040517f08c379a000000000000000000000000000000000000000000000000000000000815260040180806020018281038252602a8152602001806117a5602a913960400191505060405180910390fd5b610fcb838361128e565b905092915050565b6000606960008373ffffffffffffffffffffffffffffffffffffffff1673ffffffffffffffffffffffffffffffffffffffff16815260200190815260200160002060009054906101000a900460ff169050919050565b6000606960003373ffffffffffffffffffffffffffffffffffffffff1673ffffffffffffffffffffffffffffffffffffffff16815260200190815260200160002060009054906101000a900460ff16806110b55750611086610b7e565b73ffffffffffffffffffffffffffffffffffffffff163373ffffffffffffffffffffffffffffffffffffffff16145b61110a576040517f08c379a000000000000000000000000000000000000000000000000000000000815260040180806020018281038252602a8152602001806117a5602a913960400191505060405180910390fd5b61111e8260006112b390919063ffffffff16565b9050919050565b606061112f6112d3565b905090565b61113c610ba8565b6111ae576040517f08c379a00000000000000000000000000000000000000000000000000000000081526004018080602001828103825260208152602001807f4f776e61626c653a2063616c6c6572206973206e6f7420746865206f776e657281525060200191505060405180910390fd5b6111b7816112e4565b50565b60006111c58261142a565b9050919050565b60006111e9826111db85611447565b61146490919063ffffffff16565b905092915050565b600061120e8261120085611447565b61148890919063ffffffff16565b905092915050565b600033905090565b600061123161122c83611447565b6114ab565b9050919050565b60006112558261124785611447565b6114bc90919063ffffffff16565b905092915050565b606061127061126b83611447565b6115ad565b9050919050565b6000803090506000813b9050600081149250505090565b60006112ab8261129d85611447565b61164490919063ffffffff16565b905092915050565b60006112cb828460010161164490919063ffffffff16565b905092915050565b60606112df60006116ae565b905090565b600073ffffffffffffffffffffffffffffffffffffffff168173ffffffffffffffffffffffffffffffffffffffff16141561136a576040517f08c379a000000000000000000000000000000000000000000000000000000000815260040180806020018281038252602681526020018061177f6026913960400191505060405180910390fd5b8073ffffffffffffffffffffffffffffffffffffffff16603660009054906101000a900473ffffffffffffffffffffffffffffffffffffffff1673ffffffffffffffffffffffffffffffffffffffff167f8be0079c531659141344cd1fd0a4f28419497f9722a3daafe3b4186f6b6457e060405160405180910390a380603660006101000a81548173ffffffffffffffffffffffffffffffffffffffff021916908373ffffffffffffffffffffffffffffffffffffffff16021790555050565b60006114408260006116c390919063ffffffff16565b9050919050565b600061145d8260006116e390919063ffffffff16565b9050919050565b600082600101828154811061147557fe5b9060005260206000200154905092915050565b600080836000016000848152602001908152602001600020541415905092915050565b600081600101805490509050919050565b60006114c88383611488565b156115a257600060018460000160008581526020019081526020016000205403905060006001856001018054905003905081811461155b57600085600101828154811061151157fe5b906000526020600020015490508086600101848154811061152e57fe5b90600052602060002001819055506001830186600001600083815260200190815260200160002081905550505b846000016000858152602001908152602001600020600090558460010180548061158157fe5b600190038181906000526020600020016000905590556001925050506115a7565b600090505b92915050565b60608082600101805490506040519080825280602002602001820160405280156115e65781602001602082028038833980820191505090505b50905060005b836001018054905081101561163a5783600101818154811061160a57fe5b906000526020600020015482828151811061162157fe5b60200260200101818152505080806001019150506115ec565b5080915050919050565b60006116508383611488565b6116a35782600101829080600181540180825580915050906001820390600052602060002001600090919290919091505583600001600084815260200190815260200160002081905550600190506116a8565b600090505b92915050565b60606116bc826001016115ad565b9050919050565b60006116db828460010161148890919063ffffffff16565b905092915050565b60006116ef83836116c3565b611761576040517f08c379a00000000000000000000000000000000000000000000000000000000081526004018080602001828103825260198152602001807f4572726f72206b657920646f6573206e6f74206578697374210000000000000081525060200191505060405180910390fd5b82600001600083815260200190815260200160002090509291505056fe4f776e61626c653a206e6577206f776e657220697320746865207a65726f20616464726573734e6f7420616e20617574686f72697a6564206e6f646520746f2066756c66696c6c207265717565737473436f6e747261637420696e7374616e63652068617320616c7265616479206265656e20696e697469616c697a6564a265627a7a72315820288339d0a7efed0ff2162a3cc6817b3a9cb5a77cb2eddd67cd417638382caa1764736f6c63430005100032",
  "compiler": {
    "name": "solc",
    "version": "0.5.16+commit.9c3226ce.Emscripten.clang",
    "optimizer": {
      "enabled": false,
      "runs": 200
    },
    "evmVersion": "petersburg"
  }
}