{
  "fileName": "ORMExternal.sol",
  "contractName": "ORMExternal",
  "source": "pragma solidity ^0.5.0;\nimport \"./ORM.sol\";\nimport \"./OracleExternal.sol\";\ncontract ORMExternal is ORM, OracleExternal {\n    event addTableEvent(bytes32 indexed _table);\n    event addRowEvent(bytes32 indexed _table, bytes32 indexed _row);\n    event removeRowEvent(bytes32 indexed _table, bytes32 indexed _row);\n\n    function addTable(bytes32 _table) external onlyAuthorizedNode returns (bool) {\n\n        bool added = _addTable(_table);\n        if (added) {\n            emit addTableEvent(_table); }\n\n        return added;\n    }\n\n    function add(bytes32 _table, bytes32 _row) external onlyAuthorizedNode returns (bool) {\n\n        bool added = _add(_table, _row);\n        if (added) {\n            emit addRowEvent(_table, _row); }\n\n        return added;\n    }\n\n    function addBatch(bytes32[] calldata _table, bytes32[] calldata _row) external onlyAuthorizedNode returns (bool[] memory) {\n        require(_table.length == _row.length, \"Invalid entries!\");\n\n        bool[] memory added = new bool[](_table.length);\n        for (uint256 i = 0; i < _table.length; i++) {\n            added[i] = _add(_table[i], _row[i]);\n            if (added[i]) {\n                emit addRowEvent(_table[i], _row[i]); }\n        }\n\n        return added;\n    }\n\n    function remove(bytes32 _table, bytes32 _row) external onlyAuthorizedNode returns (bool) {\n\n        bool removed = _remove(_table, _row);\n        if (removed) {\n            emit removeRowEvent(_table, _row); }\n\n        return _remove(_table, _row);\n    }\n\n    function containsKey(bytes32 _table) public view returns (bool) {\n        return _containsKey(_table);\n    }\n\n    function getTables() public view returns (bytes32[] memory) {\n        return _getTables();\n    }\n\n    function contains(bytes32 _table, bytes32 _row) public view returns (bool) {\n        return _contains(_table, _row);\n    }\n\n    function enumerate(bytes32 _table) public view returns (bytes32[] memory) {\n        return _enumerate(_table);\n    }\n\n    function length(bytes32 _table) public view returns (uint256) {\n        return _length(_table);\n    }\n\n    function get(bytes32 _table, uint256 index) public view returns (bytes32) {\n        return _get(_table, index);\n    }\n\n}",
  "sourcePath": "contracts/ORMExternal.sol",
  "abi": [
    {
      "anonymous": false,
      "inputs": [
        {
          "indexed": true,
          "internalType": "address",
          "name": "previousOwner",
          "type": "address"
        },
        {
          "indexed": true,
          "internalType": "address",
          "name": "newOwner",
          "type": "address"
        }
      ],
      "name": "OwnershipTransferred",
      "type": "event"
    },
    {
      "anonymous": false,
      "inputs": [
        {
          "indexed": true,
          "internalType": "bytes32",
          "name": "_table",
          "type": "bytes32"
        },
        {
          "indexed": true,
          "internalType": "bytes32",
          "name": "_row",
          "type": "bytes32"
        }
      ],
      "name": "addRowEvent",
      "type": "event"
    },
    {
      "anonymous": false,
      "inputs": [
        {
          "indexed": true,
          "internalType": "bytes32",
          "name": "_table",
          "type": "bytes32"
        }
      ],
      "name": "addTableEvent",
      "type": "event"
    },
    {
      "anonymous": false,
      "inputs": [
        {
          "indexed": true,
          "internalType": "bytes32",
          "name": "_table",
          "type": "bytes32"
        },
        {
          "indexed": true,
          "internalType": "bytes32",
          "name": "_row",
          "type": "bytes32"
        }
      ],
      "name": "removeRowEvent",
      "type": "event"
    },
    {
      "constant": false,
      "inputs": [
        {
          "internalType": "bytes32",
          "name": "_table",
          "type": "bytes32"
        },
        {
          "internalType": "bytes32",
          "name": "_row",
          "type": "bytes32"
        }
      ],
      "name": "add",
      "outputs": [
        {
          "internalType": "bool",
          "name": "",
          "type": "bool"
        }
      ],
      "payable": false,
      "stateMutability": "nonpayable",
      "type": "function"
    },
    {
      "constant": false,
      "inputs": [
        {
          "internalType": "bytes32[]",
          "name": "_table",
          "type": "bytes32[]"
        },
        {
          "internalType": "bytes32[]",
          "name": "_row",
          "type": "bytes32[]"
        }
      ],
      "name": "addBatch",
      "outputs": [
        {
          "internalType": "bool[]",
          "name": "",
          "type": "bool[]"
        }
      ],
      "payable": false,
      "stateMutability": "nonpayable",
      "type": "function"
    },
    {
      "constant": false,
      "inputs": [
        {
          "internalType": "bytes32",
          "name": "_table",
          "type": "bytes32"
        }
      ],
      "name": "addTable",
      "outputs": [
        {
          "internalType": "bool",
          "name": "",
          "type": "bool"
        }
      ],
      "payable": false,
      "stateMutability": "nonpayable",
      "type": "function"
    },
    {
      "constant": true,
      "inputs": [
        {
          "internalType": "address",
          "name": "",
          "type": "address"
        }
      ],
      "name": "authorizedNodes",
      "outputs": [
        {
          "internalType": "bool",
          "name": "",
          "type": "bool"
        }
      ],
      "payable": false,
      "stateMutability": "view",
      "type": "function"
    },
    {
      "constant": true,
      "inputs": [
        {
          "internalType": "bytes32",
          "name": "_table",
          "type": "bytes32"
        },
        {
          "internalType": "bytes32",
          "name": "_row",
          "type": "bytes32"
        }
      ],
      "name": "contains",
      "outputs": [
        {
          "internalType": "bool",
          "name": "",
          "type": "bool"
        }
      ],
      "payable": false,
      "stateMutability": "view",
      "type": "function"
    },
    {
      "constant": true,
      "inputs": [
        {
          "internalType": "bytes32",
          "name": "_table",
          "type": "bytes32"
        }
      ],
      "name": "containsKey",
      "outputs": [
        {
          "internalType": "bool",
          "name": "",
          "type": "bool"
        }
      ],
      "payable": false,
      "stateMutability": "view",
      "type": "function"
    },
    {
      "constant": true,
      "inputs": [
        {
          "internalType": "bytes32",
          "name": "_table",
          "type": "bytes32"
        }
      ],
      "name": "enumerate",
      "outputs": [
        {
          "internalType": "bytes32[]",
          "name": "",
          "type": "bytes32[]"
        }
      ],
      "payable": false,
      "stateMutability": "view",
      "type": "function"
    },
    {
      "constant": false,
      "inputs": [
        {
          "internalType": "address",
          "name": "_callbackAddress",
          "type": "address"
        },
        {
          "internalType": "bytes4",
          "name": "_callbackFunctionId",
          "type": "bytes4"
        },
        {
          "internalType": "bytes",
          "name": "_data",
          "type": "bytes"
        }
      ],
      "name": "fulfillExternalRequest",
      "outputs": [
        {
          "internalType": "bool",
          "name": "",
          "type": "bool"
        }
      ],
      "payable": false,
      "stateMutability": "nonpayable",
      "type": "function"
    },
    {
      "constant": true,
      "inputs": [
        {
          "internalType": "bytes32",
          "name": "_table",
          "type": "bytes32"
        },
        {
          "internalType": "uint256",
          "name": "index",
          "type": "uint256"
        }
      ],
      "name": "get",
      "outputs": [
        {
          "internalType": "bytes32",
          "name": "",
          "type": "bytes32"
        }
      ],
      "payable": false,
      "stateMutability": "view",
      "type": "function"
    },
    {
      "constant": true,
      "inputs": [
        {
          "internalType": "address",
          "name": "_node",
          "type": "address"
        }
      ],
      "name": "getAuthorizationStatus",
      "outputs": [
        {
          "internalType": "bool",
          "name": "",
          "type": "bool"
        }
      ],
      "payable": false,
      "stateMutability": "view",
      "type": "function"
    },
    {
      "constant": true,
      "inputs": [],
      "name": "getTables",
      "outputs": [
        {
          "internalType": "bytes32[]",
          "name": "",
          "type": "bytes32[]"
        }
      ],
      "payable": false,
      "stateMutability": "view",
      "type": "function"
    },
    {
      "constant": false,
      "inputs": [
        {
          "internalType": "address",
          "name": "sender",
          "type": "address"
        }
      ],
      "name": "initialize",
      "outputs": [],
      "payable": false,
      "stateMutability": "nonpayable",
      "type": "function"
    },
    {
      "constant": true,
      "inputs": [],
      "name": "isOwner",
      "outputs": [
        {
          "internalType": "bool",
          "name": "",
          "type": "bool"
        }
      ],
      "payable": false,
      "stateMutability": "view",
      "type": "function"
    },
    {
      "constant": true,
      "inputs": [
        {
          "internalType": "bytes32",
          "name": "_table",
          "type": "bytes32"
        }
      ],
      "name": "length",
      "outputs": [
        {
          "internalType": "uint256",
          "name": "",
          "type": "uint256"
        }
      ],
      "payable": false,
      "stateMutability": "view",
      "type": "function"
    },
    {
      "constant": true,
      "inputs": [],
      "name": "owner",
      "outputs": [
        {
          "internalType": "address",
          "name": "",
          "type": "address"
        }
      ],
      "payable": false,
      "stateMutability": "view",
      "type": "function"
    },
    {
      "constant": false,
      "inputs": [
        {
          "internalType": "bytes32",
          "name": "_table",
          "type": "bytes32"
        },
        {
          "internalType": "bytes32",
          "name": "_row",
          "type": "bytes32"
        }
      ],
      "name": "remove",
      "outputs": [
        {
          "internalType": "bool",
          "name": "",
          "type": "bool"
        }
      ],
      "payable": false,
      "stateMutability": "nonpayable",
      "type": "function"
    },
    {
      "constant": false,
      "inputs": [],
      "name": "renounceOwnership",
      "outputs": [],
      "payable": false,
      "stateMutability": "nonpayable",
      "type": "function"
    },
    {
      "constant": false,
      "inputs": [
        {
          "internalType": "address",
          "name": "_node",
          "type": "address"
        },
        {
          "internalType": "bool",
          "name": "_allowed",
          "type": "bool"
        }
      ],
      "name": "setFulfillmentPermission",
      "outputs": [],
      "payable": false,
      "stateMutability": "nonpayable",
      "type": "function"
    },
    {
      "constant": false,
      "inputs": [
        {
          "internalType": "address",
          "name": "newOwner",
          "type": "address"
        }
      ],
      "name": "transferOwnership",
      "outputs": [],
      "payable": false,
      "stateMutability": "nonpayable",
      "type": "function"
    }
  ],
  "bytecode": "0x6080604052611ca0806100136000396000f3fe608060405234801561001057600080fd5b50600436106101215760003560e01c80638f32d59b116100ad578063c4d66de811610071578063c4d66de81461069b578063d1de592a146106df578063d3e9c3141461072f578063f2fde38b1461078b578063f6b102a6146107cf57610121565b80638f32d59b14610441578063a9dbaf2514610463578063b10e4172146104a5578063b58ca448146104f5578063bc3c490d1461061857610121565b80635bf2a4e9116100f45780635bf2a4e9146102f1578063715018a6146103415780637e53a7401461034b5780637fcd56db146103a75780638da5cb5b146103f757610121565b80631095a5f11461012657806318ae19c21461016c57806328343c34146101b857806359eed7d914610217575b600080fd5b6101526004803603602081101561013c57600080fd5b8101908080359060200190929190505050610815565b604051808215151515815260200191505060405180910390f35b6101a26004803603604081101561018257600080fd5b810190808035906020019092919080359060200190929190505050610940565b6040518082815260200191505060405180910390f35b6101c0610954565b6040518080602001828103825283818151815260200191508051906020019060200280838360005b838110156102035780820151818401526020810190506101e8565b505050509050019250505060405180910390f35b6102d76004803603606081101561022d57600080fd5b81019080803573ffffffffffffffffffffffffffffffffffffffff16906020019092919080357bffffffffffffffffffffffffffffffffffffffffffffffffffffffff191690602001909291908035906020019064010000000081111561029357600080fd5b8201836020820111156102a557600080fd5b803590602001918460018302840111640100000000831117156102c757600080fd5b9091929391929390505050610963565b604051808215151515815260200191505060405180910390f35b6103276004803603604081101561030757600080fd5b810190808035906020019092919080359060200190929190505050610ba2565b604051808215151515815260200191505060405180910390f35b610349610bb6565b005b61038d6004803603602081101561036157600080fd5b81019080803573ffffffffffffffffffffffffffffffffffffffff169060200190929190505050610cf1565b604051808215151515815260200191505060405180910390f35b6103f5600480360360408110156103bd57600080fd5b81019080803573ffffffffffffffffffffffffffffffffffffffff169060200190929190803515159060200190929190505050610d11565b005b6103ff610de6565b604051808273ffffffffffffffffffffffffffffffffffffffff1673ffffffffffffffffffffffffffffffffffffffff16815260200191505060405180910390f35b610449610e10565b604051808215151515815260200191505060405180910390f35b61048f6004803603602081101561047957600080fd5b8101908080359060200190929190505050610e6f565b6040518082815260200191505060405180910390f35b6104db600480360360408110156104bb57600080fd5b810190808035906020019092919080359060200190929190505050610e81565b604051808215151515815260200191505060405180910390f35b6105c16004803603604081101561050b57600080fd5b810190808035906020019064010000000081111561052857600080fd5b82018360208201111561053a57600080fd5b8035906020019184602083028401116401000000008311171561055c57600080fd5b90919293919293908035906020019064010000000081111561057d57600080fd5b82018360208201111561058f57600080fd5b803590602001918460208302840111640100000000831117156105b157600080fd5b9091929391929390505050610fb8565b6040518080602001828103825283818151815260200191508051906020019060200280838360005b838110156106045780820151818401526020810190506105e9565b505050509050019250505060405180910390f35b6106446004803603602081101561062e57600080fd5b810190808035906020019092919050505061122e565b6040518080602001828103825283818151815260200191508051906020019060200280838360005b8381101561068757808201518184015260208101905061066c565b505050509050019250505060405180910390f35b6106dd600480360360208110156106b157600080fd5b81019080803573ffffffffffffffffffffffffffffffffffffffff169060200190929190505050611240565b005b610715600480360360408110156106f557600080fd5b810190808035906020019092919080359060200190929190505050611402565b604051808215151515815260200191505060405180910390f35b6107716004803603602081101561074557600080fd5b81019080803573ffffffffffffffffffffffffffffffffffffffff169060200190929190505050611530565b604051808215151515815260200191505060405180910390f35b6107cd600480360360208110156107a157600080fd5b81019080803573ffffffffffffffffffffffffffffffffffffffff169060200190929190505050611586565b005b6107fb600480360360208110156107e557600080fd5b810190808035906020019092919050505061160c565b604051808215151515815260200191505060405180910390f35b6000606960003373ffffffffffffffffffffffffffffffffffffffff1673ffffffffffffffffffffffffffffffffffffffff16815260200190815260200160002060009054906101000a900460ff16806108a15750610872610de6565b73ffffffffffffffffffffffffffffffffffffffff163373ffffffffffffffffffffffffffffffffffffffff16145b6108f6576040517f08c379a000000000000000000000000000000000000000000000000000000000815260040180806020018281038252602a815260200180611c14602a913960400191505060405180910390fd5b60006109018361161e565b9050801561093757827fa8c762fae9757a7aefaa4d2026c9b16af3b1265f3374ed7a689d0336795ee27c60405160405180910390a25b80915050919050565b600061094c838361163b565b905092915050565b606061095e611660565b905090565b6000606960003373ffffffffffffffffffffffffffffffffffffffff1673ffffffffffffffffffffffffffffffffffffffff16815260200190815260200160002060009054906101000a900460ff16806109ef57506109c0610de6565b73ffffffffffffffffffffffffffffffffffffffff163373ffffffffffffffffffffffffffffffffffffffff16145b610a44576040517f08c379a000000000000000000000000000000000000000000000000000000000815260040180806020018281038252602a815260200180611c14602a913960400191505060405180910390fd5b60008573ffffffffffffffffffffffffffffffffffffffff1685858560405160240180806020018281038252848482818152602001925080828437600081840152601f19601f8201169050808301925050509350505050604051602081830303815290604052907bffffffffffffffffffffffffffffffffffffffffffffffffffffffff19166020820180517bffffffffffffffffffffffffffffffffffffffffffffffffffffffff83818316178352505050506040518082805190602001908083835b60208310610b2b5780518252602082019150602081019050602083039250610b08565b6001836020036101000a0380198251168184511680821785525050505050509050019150506000604051808303816000865af19150503d8060008114610b8d576040519150601f19603f3d011682016040523d82523d6000602084013e610b92565b606091505b5050905080915050949350505050565b6000610bae8383611671565b905092915050565b610bbe610e10565b610c30576040517f08c379a00000000000000000000000000000000000000000000000000000000081526004018080602001828103825260208152602001807f4f776e61626c653a2063616c6c6572206973206e6f7420746865206f776e657281525060200191505060405180910390fd5b600073ffffffffffffffffffffffffffffffffffffffff16603660009054906101000a900473ffffffffffffffffffffffffffffffffffffffff1673ffffffffffffffffffffffffffffffffffffffff167f8be0079c531659141344cd1fd0a4f28419497f9722a3daafe3b4186f6b6457e060405160405180910390a36000603660006101000a81548173ffffffffffffffffffffffffffffffffffffffff021916908373ffffffffffffffffffffffffffffffffffffffff160217905550565b60696020528060005260406000206000915054906101000a900460ff1681565b610d19610e10565b610d8b576040517f08c379a00000000000000000000000000000000000000000000000000000000081526004018080602001828103825260208152602001807f4f776e61626c653a2063616c6c6572206973206e6f7420746865206f776e657281525060200191505060405180910390fd5b80606960008473ffffffffffffffffffffffffffffffffffffffff1673ffffffffffffffffffffffffffffffffffffffff16815260200190815260200160002060006101000a81548160ff0219169083151502179055505050565b6000603660009054906101000a900473ffffffffffffffffffffffffffffffffffffffff16905090565b6000603660009054906101000a900473ffffffffffffffffffffffffffffffffffffffff1673ffffffffffffffffffffffffffffffffffffffff16610e53611696565b73ffffffffffffffffffffffffffffffffffffffff1614905090565b6000610e7a8261169e565b9050919050565b6000606960003373ffffffffffffffffffffffffffffffffffffffff1673ffffffffffffffffffffffffffffffffffffffff16815260200190815260200160002060009054906101000a900460ff1680610f0d5750610ede610de6565b73ffffffffffffffffffffffffffffffffffffffff163373ffffffffffffffffffffffffffffffffffffffff16145b610f62576040517f08c379a000000000000000000000000000000000000000000000000000000000815260040180806020018281038252602a815260200180611c14602a913960400191505060405180910390fd5b6000610f6e84846116b8565b90508015610fa55782847fc5d91f356cea4a2933ed9f78ec87b4f91a05986ee2a3154f0bd20bfad9d1b3b860405160405180910390a35b610faf84846116b8565b91505092915050565b6060606960003373ffffffffffffffffffffffffffffffffffffffff1673ffffffffffffffffffffffffffffffffffffffff16815260200190815260200160002060009054906101000a900460ff16806110445750611015610de6565b73ffffffffffffffffffffffffffffffffffffffff163373ffffffffffffffffffffffffffffffffffffffff16145b611099576040517f08c379a000000000000000000000000000000000000000000000000000000000815260040180806020018281038252602a815260200180611c14602a913960400191505060405180910390fd5b828290508585905014611114576040517f08c379a00000000000000000000000000000000000000000000000000000000081526004018080602001828103825260108152602001807f496e76616c696420656e7472696573210000000000000000000000000000000081525060200191505060405180910390fd5b6060858590506040519080825280602002602001820160405280156111485781602001602082028038833980820191505090505b50905060008090505b868690508110156112215761118a87878381811061116b57fe5b9050602002013586868481811061117e57fe5b905060200201356116dd565b82828151811061119657fe5b6020026020010190151590811515815250508181815181106111b457fe5b602002602001015115611214578484828181106111cd57fe5b905060200201358787838181106111e057fe5b905060200201357f060df603306baa87050778b5ce94a1a38056c1ac5b1a7df3ee860c699662731b60405160405180910390a35b8080600101915050611151565b5080915050949350505050565b606061123982611702565b9050919050565b600360019054906101000a900460ff168061125f575061125e61171c565b5b806112775750600360009054906101000a900460ff16155b6112cc576040517f08c379a000000000000000000000000000000000000000000000000000000000815260040180806020018281038252602e815260200180611c3e602e913960400191505060405180910390fd5b6000600360019054906101000a900460ff16159050801561131e576001600360016101000a81548160ff0219169083151502179055506001600360006101000a81548160ff0219169083151502179055505b81603660006101000a81548173ffffffffffffffffffffffffffffffffffffffff021916908373ffffffffffffffffffffffffffffffffffffffff160217905550603660009054906101000a900473ffffffffffffffffffffffffffffffffffffffff1673ffffffffffffffffffffffffffffffffffffffff16600073ffffffffffffffffffffffffffffffffffffffff167f8be0079c531659141344cd1fd0a4f28419497f9722a3daafe3b4186f6b6457e060405160405180910390a380156113fe576000600360016101000a81548160ff0219169083151502179055505b5050565b6000606960003373ffffffffffffffffffffffffffffffffffffffff1673ffffffffffffffffffffffffffffffffffffffff16815260200190815260200160002060009054906101000a900460ff168061148e575061145f610de6565b73ffffffffffffffffffffffffffffffffffffffff163373ffffffffffffffffffffffffffffffffffffffff16145b6114e3576040517f08c379a000000000000000000000000000000000000000000000000000000000815260040180806020018281038252602a815260200180611c14602a913960400191505060405180910390fd5b60006114ef84846116dd565b905080156115265782847f060df603306baa87050778b5ce94a1a38056c1ac5b1a7df3ee860c699662731b60405160405180910390a35b8091505092915050565b6000606960008373ffffffffffffffffffffffffffffffffffffffff1673ffffffffffffffffffffffffffffffffffffffff16815260200190815260200160002060009054906101000a900460ff169050919050565b61158e610e10565b611600576040517f08c379a00000000000000000000000000000000000000000000000000000000081526004018080602001828103825260208152602001807f4f776e61626c653a2063616c6c6572206973206e6f7420746865206f776e657281525060200191505060405180910390fd5b61160981611733565b50565b600061161782611879565b9050919050565b600061163482600061189690919063ffffffff16565b9050919050565b60006116588261164a856118b6565b6118d390919063ffffffff16565b905092915050565b606061166c60006118f7565b905090565b600061168e82611680856118b6565b61190c90919063ffffffff16565b905092915050565b600033905090565b60006116b16116ac836118b6565b61192f565b9050919050565b60006116d5826116c7856118b6565b61194090919063ffffffff16565b905092915050565b60006116fa826116ec856118b6565b611a3190919063ffffffff16565b905092915050565b6060611715611710836118b6565b611a9b565b9050919050565b6000803090506000813b9050600081149250505090565b600073ffffffffffffffffffffffffffffffffffffffff168173ffffffffffffffffffffffffffffffffffffffff1614156117b9576040517f08c379a0000000000000000000000000000000000000000000000000000000008152600401808060200182810382526026815260200180611bee6026913960400191505060405180910390fd5b8073ffffffffffffffffffffffffffffffffffffffff16603660009054906101000a900473ffffffffffffffffffffffffffffffffffffffff1673ffffffffffffffffffffffffffffffffffffffff167f8be0079c531659141344cd1fd0a4f28419497f9722a3daafe3b4186f6b6457e060405160405180910390a380603660006101000a81548173ffffffffffffffffffffffffffffffffffffffff021916908373ffffffffffffffffffffffffffffffffffffffff16021790555050565b600061188f826000611b3290919063ffffffff16565b9050919050565b60006118ae8284600101611a3190919063ffffffff16565b905092915050565b60006118cc826000611b5290919063ffffffff16565b9050919050565b60008260010182815481106118e457fe5b9060005260206000200154905092915050565b606061190582600101611a9b565b9050919050565b600080836000016000848152602001908152602001600020541415905092915050565b600081600101805490509050919050565b600061194c838361190c565b15611a265760006001846000016000858152602001908152602001600020540390506000600185600101805490500390508181146119df57600085600101828154811061199557fe5b90600052602060002001549050808660010184815481106119b257fe5b90600052602060002001819055506001830186600001600083815260200190815260200160002081905550505b8460000160008581526020019081526020016000206000905584600101805480611a0557fe5b60019003818190600052602060002001600090559055600192505050611a2b565b600090505b92915050565b6000611a3d838361190c565b611a90578260010182908060018154018082558091505090600182039060005260206000200160009091929091909150558360000160008481526020019081526020016000208190555060019050611a95565b600090505b92915050565b6060808260010180549050604051908082528060200260200182016040528015611ad45781602001602082028038833980820191505090505b50905060005b8360010180549050811015611b2857836001018181548110611af857fe5b9060005260206000200154828281518110611b0f57fe5b6020026020010181815250508080600101915050611ada565b5080915050919050565b6000611b4a828460010161190c90919063ffffffff16565b905092915050565b6000611b5e8383611b32565b611bd0576040517f08c379a00000000000000000000000000000000000000000000000000000000081526004018080602001828103825260198152602001807f4572726f72206b657920646f6573206e6f74206578697374210000000000000081525060200191505060405180910390fd5b82600001600083815260200190815260200160002090509291505056fe4f776e61626c653a206e6577206f776e657220697320746865207a65726f20616464726573734e6f7420616e20617574686f72697a6564206e6f646520746f2066756c66696c6c207265717565737473436f6e747261637420696e7374616e63652068617320616c7265616479206265656e20696e697469616c697a6564a265627a7a7231582076c3631dec652e6198b02e2d778c6b5bf811321e44aae6df8f0d8984245f66cd64736f6c63430005100032",
  "compiler": {
    "name": "solc",
    "version": "0.5.16+commit.9c3226ce.Emscripten.clang",
    "optimizer": {
      "enabled": false,
      "runs": 200
    },
    "evmVersion": "petersburg"
  }
}