{
  "fileName": "ORMExternal.sol",
  "contractName": "ORMExternal",
  "source": "pragma solidity ^0.5.0;\nimport \"./ORM.sol\";\nimport \"./OracleExternal.sol\";\ncontract ORMExternal is ORM, OracleExternal {\n    event addTableEvent(bytes32 indexed _table);\n    event addRowEvent(bytes32 indexed _table, bytes32 indexed _row);\n    event removeRowEvent(bytes32 indexed _table, bytes32 indexed _row);\n\n    function addTable(bytes32 _table) external onlyAuthorizedNode returns (bool) {\n\n        bool added = _addTable(_table);\n        if (added) {\n            emit addTableEvent(_table); }\n\n        return added;\n    }\n\n    function add(bytes32 _table, bytes32 _row) external onlyAuthorizedNode returns (bool) {\n        if (!exists(_table)) {\n            bool addedTable = _addTable(_table);\n            if (addedTable) {\n                emit addTableEvent(_table); }\n        }\n\n        bool added = _add(_table, _row);\n        if (added) {\n            emit addRowEvent(_table, _row); }\n\n        return added;\n    }\n\n    function addBatch(bytes32[] calldata _table, bytes32[] calldata _row) external onlyAuthorizedNode returns (bool[] memory) {\n        require(_table.length == _row.length, \"Invalid entries!\");\n\n        bool[] memory added = new bool[](_table.length);\n        for (uint256 i = 0; i < _table.length; i++) {\n            added[i] = _add(_table[i], _row[i]);\n            if (added[i]) {\n                emit addRowEvent(_table[i], _row[i]); }\n        }\n\n        return added;\n    }\n\n    function remove(bytes32 _table, bytes32 _row) external onlyAuthorizedNode returns (bool) {\n\n        bool removed = _remove(_table, _row);\n        if (removed) {\n            emit removeRowEvent(_table, _row); }\n\n        return _remove(_table, _row);\n    }\n\n    function exists(bytes32 _table) public view returns (bool) {\n        return _containsKey(_table);\n    }\n\n    function getTables() public view returns (bytes32[] memory) {\n        return _getTables();\n    }\n\n    function contains(bytes32 _table, bytes32 _row) public view returns (bool) {\n        return _contains(_table, _row);\n    }\n\n    function enumerate(bytes32 _table) public view returns (bytes32[] memory) {\n        return _enumerate(_table);\n    }\n\n    function length(bytes32 _table) public view returns (uint256) {\n        return _length(_table);\n    }\n\n    function get(bytes32 _table, uint256 index) public view returns (bytes32) {\n        return _get(_table, index);\n    }\n\n}",
  "sourcePath": "contracts/ORMExternal.sol",
  "abi": [
    {
      "anonymous": false,
      "inputs": [
        {
          "indexed": true,
          "internalType": "address",
          "name": "previousOwner",
          "type": "address"
        },
        {
          "indexed": true,
          "internalType": "address",
          "name": "newOwner",
          "type": "address"
        }
      ],
      "name": "OwnershipTransferred",
      "type": "event"
    },
    {
      "anonymous": false,
      "inputs": [
        {
          "indexed": true,
          "internalType": "bytes32",
          "name": "_table",
          "type": "bytes32"
        },
        {
          "indexed": true,
          "internalType": "bytes32",
          "name": "_row",
          "type": "bytes32"
        }
      ],
      "name": "addRowEvent",
      "type": "event"
    },
    {
      "anonymous": false,
      "inputs": [
        {
          "indexed": true,
          "internalType": "bytes32",
          "name": "_table",
          "type": "bytes32"
        }
      ],
      "name": "addTableEvent",
      "type": "event"
    },
    {
      "anonymous": false,
      "inputs": [
        {
          "indexed": true,
          "internalType": "bytes32",
          "name": "_table",
          "type": "bytes32"
        },
        {
          "indexed": true,
          "internalType": "bytes32",
          "name": "_row",
          "type": "bytes32"
        }
      ],
      "name": "removeRowEvent",
      "type": "event"
    },
    {
      "constant": false,
      "inputs": [
        {
          "internalType": "bytes32",
          "name": "_table",
          "type": "bytes32"
        },
        {
          "internalType": "bytes32",
          "name": "_row",
          "type": "bytes32"
        }
      ],
      "name": "add",
      "outputs": [
        {
          "internalType": "bool",
          "name": "",
          "type": "bool"
        }
      ],
      "payable": false,
      "stateMutability": "nonpayable",
      "type": "function"
    },
    {
      "constant": false,
      "inputs": [
        {
          "internalType": "bytes32[]",
          "name": "_table",
          "type": "bytes32[]"
        },
        {
          "internalType": "bytes32[]",
          "name": "_row",
          "type": "bytes32[]"
        }
      ],
      "name": "addBatch",
      "outputs": [
        {
          "internalType": "bool[]",
          "name": "",
          "type": "bool[]"
        }
      ],
      "payable": false,
      "stateMutability": "nonpayable",
      "type": "function"
    },
    {
      "constant": false,
      "inputs": [
        {
          "internalType": "bytes32",
          "name": "_table",
          "type": "bytes32"
        }
      ],
      "name": "addTable",
      "outputs": [
        {
          "internalType": "bool",
          "name": "",
          "type": "bool"
        }
      ],
      "payable": false,
      "stateMutability": "nonpayable",
      "type": "function"
    },
    {
      "constant": true,
      "inputs": [
        {
          "internalType": "address",
          "name": "",
          "type": "address"
        }
      ],
      "name": "authorizedNodes",
      "outputs": [
        {
          "internalType": "bool",
          "name": "",
          "type": "bool"
        }
      ],
      "payable": false,
      "stateMutability": "view",
      "type": "function"
    },
    {
      "constant": true,
      "inputs": [
        {
          "internalType": "bytes32",
          "name": "_table",
          "type": "bytes32"
        },
        {
          "internalType": "bytes32",
          "name": "_row",
          "type": "bytes32"
        }
      ],
      "name": "contains",
      "outputs": [
        {
          "internalType": "bool",
          "name": "",
          "type": "bool"
        }
      ],
      "payable": false,
      "stateMutability": "view",
      "type": "function"
    },
    {
      "constant": true,
      "inputs": [
        {
          "internalType": "bytes32",
          "name": "_table",
          "type": "bytes32"
        }
      ],
      "name": "enumerate",
      "outputs": [
        {
          "internalType": "bytes32[]",
          "name": "",
          "type": "bytes32[]"
        }
      ],
      "payable": false,
      "stateMutability": "view",
      "type": "function"
    },
    {
      "constant": true,
      "inputs": [
        {
          "internalType": "bytes32",
          "name": "_table",
          "type": "bytes32"
        }
      ],
      "name": "exists",
      "outputs": [
        {
          "internalType": "bool",
          "name": "",
          "type": "bool"
        }
      ],
      "payable": false,
      "stateMutability": "view",
      "type": "function"
    },
    {
      "constant": false,
      "inputs": [
        {
          "internalType": "address",
          "name": "_callbackAddress",
          "type": "address"
        },
        {
          "internalType": "bytes4",
          "name": "_callbackFunctionId",
          "type": "bytes4"
        },
        {
          "internalType": "bytes",
          "name": "_data",
          "type": "bytes"
        }
      ],
      "name": "fulfillExternalRequest",
      "outputs": [
        {
          "internalType": "bool",
          "name": "",
          "type": "bool"
        }
      ],
      "payable": false,
      "stateMutability": "nonpayable",
      "type": "function"
    },
    {
      "constant": true,
      "inputs": [
        {
          "internalType": "bytes32",
          "name": "_table",
          "type": "bytes32"
        },
        {
          "internalType": "uint256",
          "name": "index",
          "type": "uint256"
        }
      ],
      "name": "get",
      "outputs": [
        {
          "internalType": "bytes32",
          "name": "",
          "type": "bytes32"
        }
      ],
      "payable": false,
      "stateMutability": "view",
      "type": "function"
    },
    {
      "constant": true,
      "inputs": [
        {
          "internalType": "address",
          "name": "_node",
          "type": "address"
        }
      ],
      "name": "getAuthorizationStatus",
      "outputs": [
        {
          "internalType": "bool",
          "name": "",
          "type": "bool"
        }
      ],
      "payable": false,
      "stateMutability": "view",
      "type": "function"
    },
    {
      "constant": true,
      "inputs": [],
      "name": "getTables",
      "outputs": [
        {
          "internalType": "bytes32[]",
          "name": "",
          "type": "bytes32[]"
        }
      ],
      "payable": false,
      "stateMutability": "view",
      "type": "function"
    },
    {
      "constant": false,
      "inputs": [
        {
          "internalType": "address",
          "name": "sender",
          "type": "address"
        }
      ],
      "name": "initialize",
      "outputs": [],
      "payable": false,
      "stateMutability": "nonpayable",
      "type": "function"
    },
    {
      "constant": true,
      "inputs": [],
      "name": "isOwner",
      "outputs": [
        {
          "internalType": "bool",
          "name": "",
          "type": "bool"
        }
      ],
      "payable": false,
      "stateMutability": "view",
      "type": "function"
    },
    {
      "constant": true,
      "inputs": [
        {
          "internalType": "bytes32",
          "name": "_table",
          "type": "bytes32"
        }
      ],
      "name": "length",
      "outputs": [
        {
          "internalType": "uint256",
          "name": "",
          "type": "uint256"
        }
      ],
      "payable": false,
      "stateMutability": "view",
      "type": "function"
    },
    {
      "constant": true,
      "inputs": [],
      "name": "owner",
      "outputs": [
        {
          "internalType": "address",
          "name": "",
          "type": "address"
        }
      ],
      "payable": false,
      "stateMutability": "view",
      "type": "function"
    },
    {
      "constant": false,
      "inputs": [
        {
          "internalType": "bytes32",
          "name": "_table",
          "type": "bytes32"
        },
        {
          "internalType": "bytes32",
          "name": "_row",
          "type": "bytes32"
        }
      ],
      "name": "remove",
      "outputs": [
        {
          "internalType": "bool",
          "name": "",
          "type": "bool"
        }
      ],
      "payable": false,
      "stateMutability": "nonpayable",
      "type": "function"
    },
    {
      "constant": false,
      "inputs": [],
      "name": "renounceOwnership",
      "outputs": [],
      "payable": false,
      "stateMutability": "nonpayable",
      "type": "function"
    },
    {
      "constant": false,
      "inputs": [
        {
          "internalType": "address",
          "name": "_node",
          "type": "address"
        },
        {
          "internalType": "bool",
          "name": "_allowed",
          "type": "bool"
        }
      ],
      "name": "setFulfillmentPermission",
      "outputs": [],
      "payable": false,
      "stateMutability": "nonpayable",
      "type": "function"
    },
    {
      "constant": false,
      "inputs": [
        {
          "internalType": "address",
          "name": "newOwner",
          "type": "address"
        }
      ],
      "name": "transferOwnership",
      "outputs": [],
      "payable": false,
      "stateMutability": "nonpayable",
      "type": "function"
    }
  ],
  "bytecode": "0x6080604052611cf0806100136000396000f3fe608060405234801561001057600080fd5b50600436106101215760003560e01c80638da5cb5b116100ad578063bc3c490d11610071578063bc3c490d1461065e578063c4d66de8146106e1578063d1de592a14610725578063d3e9c31414610775578063f2fde38b146107d157610121565b80638da5cb5b1461043d5780638f32d59b14610487578063a9dbaf25146104a9578063b10e4172146104eb578063b58ca4481461053b57610121565b806359eed7d9116100f457806359eed7d91461025d5780635bf2a4e914610337578063715018a6146103875780637e53a740146103915780637fcd56db146103ed57610121565b80631095a5f11461012657806318ae19c21461016c57806328343c34146101b857806338a699a414610217575b600080fd5b6101526004803603602081101561013c57600080fd5b8101908080359060200190929190505050610815565b604051808215151515815260200191505060405180910390f35b6101a26004803603604081101561018257600080fd5b810190808035906020019092919080359060200190929190505050610940565b6040518082815260200191505060405180910390f35b6101c0610954565b6040518080602001828103825283818151815260200191508051906020019060200280838360005b838110156102035780820151818401526020810190506101e8565b505050509050019250505060405180910390f35b6102436004803603602081101561022d57600080fd5b8101908080359060200190929190505050610963565b604051808215151515815260200191505060405180910390f35b61031d6004803603606081101561027357600080fd5b81019080803573ffffffffffffffffffffffffffffffffffffffff16906020019092919080357bffffffffffffffffffffffffffffffffffffffffffffffffffffffff19169060200190929190803590602001906401000000008111156102d957600080fd5b8201836020820111156102eb57600080fd5b8035906020019184600183028401116401000000008311171561030d57600080fd5b9091929391929390505050610975565b604051808215151515815260200191505060405180910390f35b61036d6004803603604081101561034d57600080fd5b810190808035906020019092919080359060200190929190505050610bb4565b604051808215151515815260200191505060405180910390f35b61038f610bc8565b005b6103d3600480360360208110156103a757600080fd5b81019080803573ffffffffffffffffffffffffffffffffffffffff169060200190929190505050610d03565b604051808215151515815260200191505060405180910390f35b61043b6004803603604081101561040357600080fd5b81019080803573ffffffffffffffffffffffffffffffffffffffff169060200190929190803515159060200190929190505050610d23565b005b610445610df8565b604051808273ffffffffffffffffffffffffffffffffffffffff1673ffffffffffffffffffffffffffffffffffffffff16815260200191505060405180910390f35b61048f610e22565b604051808215151515815260200191505060405180910390f35b6104d5600480360360208110156104bf57600080fd5b8101908080359060200190929190505050610e81565b6040518082815260200191505060405180910390f35b6105216004803603604081101561050157600080fd5b810190808035906020019092919080359060200190929190505050610e93565b604051808215151515815260200191505060405180910390f35b6106076004803603604081101561055157600080fd5b810190808035906020019064010000000081111561056e57600080fd5b82018360208201111561058057600080fd5b803590602001918460208302840111640100000000831117156105a257600080fd5b9091929391929390803590602001906401000000008111156105c357600080fd5b8201836020820111156105d557600080fd5b803590602001918460208302840111640100000000831117156105f757600080fd5b9091929391929390505050610fca565b6040518080602001828103825283818151815260200191508051906020019060200280838360005b8381101561064a57808201518184015260208101905061062f565b505050509050019250505060405180910390f35b61068a6004803603602081101561067457600080fd5b8101908080359060200190929190505050611240565b6040518080602001828103825283818151815260200191508051906020019060200280838360005b838110156106cd5780820151818401526020810190506106b2565b505050509050019250505060405180910390f35b610723600480360360208110156106f757600080fd5b81019080803573ffffffffffffffffffffffffffffffffffffffff169060200190929190505050611252565b005b61075b6004803603604081101561073b57600080fd5b810190808035906020019092919080359060200190929190505050611414565b604051808215151515815260200191505060405180910390f35b6107b76004803603602081101561078b57600080fd5b81019080803573ffffffffffffffffffffffffffffffffffffffff169060200190929190505050611592565b604051808215151515815260200191505060405180910390f35b610813600480360360208110156107e757600080fd5b81019080803573ffffffffffffffffffffffffffffffffffffffff1690602001909291905050506115e8565b005b6000606960003373ffffffffffffffffffffffffffffffffffffffff1673ffffffffffffffffffffffffffffffffffffffff16815260200190815260200160002060009054906101000a900460ff16806108a15750610872610df8565b73ffffffffffffffffffffffffffffffffffffffff163373ffffffffffffffffffffffffffffffffffffffff16145b6108f6576040517f08c379a000000000000000000000000000000000000000000000000000000000815260040180806020018281038252602a815260200180611c64602a913960400191505060405180910390fd5b60006109018361166e565b9050801561093757827fa8c762fae9757a7aefaa4d2026c9b16af3b1265f3374ed7a689d0336795ee27c60405160405180910390a25b80915050919050565b600061094c838361168b565b905092915050565b606061095e6116b0565b905090565b600061096e826116c1565b9050919050565b6000606960003373ffffffffffffffffffffffffffffffffffffffff1673ffffffffffffffffffffffffffffffffffffffff16815260200190815260200160002060009054906101000a900460ff1680610a0157506109d2610df8565b73ffffffffffffffffffffffffffffffffffffffff163373ffffffffffffffffffffffffffffffffffffffff16145b610a56576040517f08c379a000000000000000000000000000000000000000000000000000000000815260040180806020018281038252602a815260200180611c64602a913960400191505060405180910390fd5b60008573ffffffffffffffffffffffffffffffffffffffff1685858560405160240180806020018281038252848482818152602001925080828437600081840152601f19601f8201169050808301925050509350505050604051602081830303815290604052907bffffffffffffffffffffffffffffffffffffffffffffffffffffffff19166020820180517bffffffffffffffffffffffffffffffffffffffffffffffffffffffff83818316178352505050506040518082805190602001908083835b60208310610b3d5780518252602082019150602081019050602083039250610b1a565b6001836020036101000a0380198251168184511680821785525050505050509050019150506000604051808303816000865af19150503d8060008114610b9f576040519150601f19603f3d011682016040523d82523d6000602084013e610ba4565b606091505b5050905080915050949350505050565b6000610bc083836116de565b905092915050565b610bd0610e22565b610c42576040517f08c379a00000000000000000000000000000000000000000000000000000000081526004018080602001828103825260208152602001807f4f776e61626c653a2063616c6c6572206973206e6f7420746865206f776e657281525060200191505060405180910390fd5b600073ffffffffffffffffffffffffffffffffffffffff16603660009054906101000a900473ffffffffffffffffffffffffffffffffffffffff1673ffffffffffffffffffffffffffffffffffffffff167f8be0079c531659141344cd1fd0a4f28419497f9722a3daafe3b4186f6b6457e060405160405180910390a36000603660006101000a81548173ffffffffffffffffffffffffffffffffffffffff021916908373ffffffffffffffffffffffffffffffffffffffff160217905550565b60696020528060005260406000206000915054906101000a900460ff1681565b610d2b610e22565b610d9d576040517f08c379a00000000000000000000000000000000000000000000000000000000081526004018080602001828103825260208152602001807f4f776e61626c653a2063616c6c6572206973206e6f7420746865206f776e657281525060200191505060405180910390fd5b80606960008473ffffffffffffffffffffffffffffffffffffffff1673ffffffffffffffffffffffffffffffffffffffff16815260200190815260200160002060006101000a81548160ff0219169083151502179055505050565b6000603660009054906101000a900473ffffffffffffffffffffffffffffffffffffffff16905090565b6000603660009054906101000a900473ffffffffffffffffffffffffffffffffffffffff1673ffffffffffffffffffffffffffffffffffffffff16610e65611703565b73ffffffffffffffffffffffffffffffffffffffff1614905090565b6000610e8c8261170b565b9050919050565b6000606960003373ffffffffffffffffffffffffffffffffffffffff1673ffffffffffffffffffffffffffffffffffffffff16815260200190815260200160002060009054906101000a900460ff1680610f1f5750610ef0610df8565b73ffffffffffffffffffffffffffffffffffffffff163373ffffffffffffffffffffffffffffffffffffffff16145b610f74576040517f08c379a000000000000000000000000000000000000000000000000000000000815260040180806020018281038252602a815260200180611c64602a913960400191505060405180910390fd5b6000610f808484611725565b90508015610fb75782847fc5d91f356cea4a2933ed9f78ec87b4f91a05986ee2a3154f0bd20bfad9d1b3b860405160405180910390a35b610fc18484611725565b91505092915050565b6060606960003373ffffffffffffffffffffffffffffffffffffffff1673ffffffffffffffffffffffffffffffffffffffff16815260200190815260200160002060009054906101000a900460ff16806110565750611027610df8565b73ffffffffffffffffffffffffffffffffffffffff163373ffffffffffffffffffffffffffffffffffffffff16145b6110ab576040517f08c379a000000000000000000000000000000000000000000000000000000000815260040180806020018281038252602a815260200180611c64602a913960400191505060405180910390fd5b828290508585905014611126576040517f08c379a00000000000000000000000000000000000000000000000000000000081526004018080602001828103825260108152602001807f496e76616c696420656e7472696573210000000000000000000000000000000081525060200191505060405180910390fd5b60608585905060405190808252806020026020018201604052801561115a5781602001602082028038833980820191505090505b50905060008090505b868690508110156112335761119c87878381811061117d57fe5b9050602002013586868481811061119057fe5b9050602002013561174a565b8282815181106111a857fe5b6020026020010190151590811515815250508181815181106111c657fe5b602002602001015115611226578484828181106111df57fe5b905060200201358787838181106111f257fe5b905060200201357f060df603306baa87050778b5ce94a1a38056c1ac5b1a7df3ee860c699662731b60405160405180910390a35b8080600101915050611163565b5080915050949350505050565b606061124b8261176f565b9050919050565b600360019054906101000a900460ff16806112715750611270611789565b5b806112895750600360009054906101000a900460ff16155b6112de576040517f08c379a000000000000000000000000000000000000000000000000000000000815260040180806020018281038252602e815260200180611c8e602e913960400191505060405180910390fd5b6000600360019054906101000a900460ff161590508015611330576001600360016101000a81548160ff0219169083151502179055506001600360006101000a81548160ff0219169083151502179055505b81603660006101000a81548173ffffffffffffffffffffffffffffffffffffffff021916908373ffffffffffffffffffffffffffffffffffffffff160217905550603660009054906101000a900473ffffffffffffffffffffffffffffffffffffffff1673ffffffffffffffffffffffffffffffffffffffff16600073ffffffffffffffffffffffffffffffffffffffff167f8be0079c531659141344cd1fd0a4f28419497f9722a3daafe3b4186f6b6457e060405160405180910390a38015611410576000600360016101000a81548160ff0219169083151502179055505b5050565b6000606960003373ffffffffffffffffffffffffffffffffffffffff1673ffffffffffffffffffffffffffffffffffffffff16815260200190815260200160002060009054906101000a900460ff16806114a05750611471610df8565b73ffffffffffffffffffffffffffffffffffffffff163373ffffffffffffffffffffffffffffffffffffffff16145b6114f5576040517f08c379a000000000000000000000000000000000000000000000000000000000815260040180806020018281038252602a815260200180611c64602a913960400191505060405180910390fd5b6114fe83610963565b61154557600061150d8461166e565b9050801561154357837fa8c762fae9757a7aefaa4d2026c9b16af3b1265f3374ed7a689d0336795ee27c60405160405180910390a25b505b6000611551848461174a565b905080156115885782847f060df603306baa87050778b5ce94a1a38056c1ac5b1a7df3ee860c699662731b60405160405180910390a35b8091505092915050565b6000606960008373ffffffffffffffffffffffffffffffffffffffff1673ffffffffffffffffffffffffffffffffffffffff16815260200190815260200160002060009054906101000a900460ff169050919050565b6115f0610e22565b611662576040517f08c379a00000000000000000000000000000000000000000000000000000000081526004018080602001828103825260208152602001807f4f776e61626c653a2063616c6c6572206973206e6f7420746865206f776e657281525060200191505060405180910390fd5b61166b816117a0565b50565b60006116848260006118e690919063ffffffff16565b9050919050565b60006116a88261169a85611906565b61192390919063ffffffff16565b905092915050565b60606116bc6000611947565b905090565b60006116d782600061195c90919063ffffffff16565b9050919050565b60006116fb826116ed85611906565b61197c90919063ffffffff16565b905092915050565b600033905090565b600061171e61171983611906565b61199f565b9050919050565b60006117428261173485611906565b6119b090919063ffffffff16565b905092915050565b60006117678261175985611906565b611aa190919063ffffffff16565b905092915050565b606061178261177d83611906565b611b0b565b9050919050565b6000803090506000813b9050600081149250505090565b600073ffffffffffffffffffffffffffffffffffffffff168173ffffffffffffffffffffffffffffffffffffffff161415611826576040517f08c379a0000000000000000000000000000000000000000000000000000000008152600401808060200182810382526026815260200180611c3e6026913960400191505060405180910390fd5b8073ffffffffffffffffffffffffffffffffffffffff16603660009054906101000a900473ffffffffffffffffffffffffffffffffffffffff1673ffffffffffffffffffffffffffffffffffffffff167f8be0079c531659141344cd1fd0a4f28419497f9722a3daafe3b4186f6b6457e060405160405180910390a380603660006101000a81548173ffffffffffffffffffffffffffffffffffffffff021916908373ffffffffffffffffffffffffffffffffffffffff16021790555050565b60006118fe8284600101611aa190919063ffffffff16565b905092915050565b600061191c826000611ba290919063ffffffff16565b9050919050565b600082600101828154811061193457fe5b9060005260206000200154905092915050565b606061195582600101611b0b565b9050919050565b6000611974828460010161197c90919063ffffffff16565b905092915050565b600080836000016000848152602001908152602001600020541415905092915050565b600081600101805490509050919050565b60006119bc838361197c565b15611a96576000600184600001600085815260200190815260200160002054039050600060018560010180549050039050818114611a4f576000856001018281548110611a0557fe5b9060005260206000200154905080866001018481548110611a2257fe5b90600052602060002001819055506001830186600001600083815260200190815260200160002081905550505b8460000160008581526020019081526020016000206000905584600101805480611a7557fe5b60019003818190600052602060002001600090559055600192505050611a9b565b600090505b92915050565b6000611aad838361197c565b611b00578260010182908060018154018082558091505090600182039060005260206000200160009091929091909150558360000160008481526020019081526020016000208190555060019050611b05565b600090505b92915050565b6060808260010180549050604051908082528060200260200182016040528015611b445781602001602082028038833980820191505090505b50905060005b8360010180549050811015611b9857836001018181548110611b6857fe5b9060005260206000200154828281518110611b7f57fe5b6020026020010181815250508080600101915050611b4a565b5080915050919050565b6000611bae838361195c565b611c20576040517f08c379a00000000000000000000000000000000000000000000000000000000081526004018080602001828103825260138152602001807f4b657920646f6573206e6f74206578697374210000000000000000000000000081525060200191505060405180910390fd5b82600001600083815260200190815260200160002090509291505056fe4f776e61626c653a206e6577206f776e657220697320746865207a65726f20616464726573734e6f7420616e20617574686f72697a6564206e6f646520746f2066756c66696c6c207265717565737473436f6e747261637420696e7374616e63652068617320616c7265616479206265656e20696e697469616c697a6564a265627a7a72315820fa2a0c4364e2589ace8e8702722c85ca4809540c56348f8e717e75fb0bcfa87a64736f6c63430005100032",
  "compiler": {
    "name": "solc",
    "version": "0.5.16+commit.9c3226ce.Emscripten.clang",
    "optimizer": {
      "enabled": false,
      "runs": 200
    },
    "evmVersion": "petersburg"
  }
}